{
  "contractName": "ConsultationOnline",
  "abi": [
    {
      "inputs": [
        {
          "internalType": "address",
          "name": "_adresseContratExterne",
          "type": "address"
        }
      ],
      "stateMutability": "nonpayable",
      "type": "constructor"
    },
    {
      "anonymous": false,
      "inputs": [
        {
          "indexed": true,
          "internalType": "uint256",
          "name": "index",
          "type": "uint256"
        }
      ],
      "name": "ConsultationComplete",
      "type": "event"
    },
    {
      "anonymous": false,
      "inputs": [
        {
          "indexed": true,
          "internalType": "uint256",
          "name": "index",
          "type": "uint256"
        },
        {
          "indexed": true,
          "internalType": "address",
          "name": "utilisateur",
          "type": "address"
        },
        {
          "indexed": false,
          "internalType": "string",
          "name": "message",
          "type": "string"
        }
      ],
      "name": "NouveauMessage",
      "type": "event"
    },
    {
      "anonymous": false,
      "inputs": [
        {
          "indexed": true,
          "internalType": "address",
          "name": "patient",
          "type": "address"
        },
        {
          "indexed": true,
          "internalType": "address",
          "name": "medecin",
          "type": "address"
        },
        {
          "indexed": false,
          "internalType": "uint256",
          "name": "cout",
          "type": "uint256"
        }
      ],
      "name": "NouvelleConsultation",
      "type": "event"
    },
    {
      "anonymous": false,
      "inputs": [
        {
          "indexed": true,
          "internalType": "uint256",
          "name": "index",
          "type": "uint256"
        },
        {
          "indexed": true,
          "internalType": "address",
          "name": "patient",
          "type": "address"
        }
      ],
      "name": "PaiementEffectue",
      "type": "event"
    },
    {
      "inputs": [
        {
          "internalType": "address",
          "name": "",
          "type": "address"
        },
        {
          "internalType": "uint256",
          "name": "",
          "type": "uint256"
        }
      ],
      "name": "Doctor_appointmentRequests",
      "outputs": [
        {
          "internalType": "uint256",
          "name": "id",
          "type": "uint256"
        },
        {
          "internalType": "address",
          "name": "client",
          "type": "address"
        },
        {
          "internalType": "address",
          "name": "medecin",
          "type": "address"
        },
        {
          "internalType": "string",
          "name": "date",
          "type": "string"
        },
        {
          "internalType": "string",
          "name": "ville",
          "type": "string"
        },
        {
          "internalType": "uint256",
          "name": "accepted",
          "type": "uint256"
        }
      ],
      "stateMutability": "view",
      "type": "function",
      "constant": true
    },
    {
      "inputs": [
        {
          "internalType": "address",
          "name": "",
          "type": "address"
        },
        {
          "internalType": "uint256",
          "name": "",
          "type": "uint256"
        }
      ],
      "name": "Patient_appointmentRequests",
      "outputs": [
        {
          "internalType": "uint256",
          "name": "id",
          "type": "uint256"
        },
        {
          "internalType": "address",
          "name": "client",
          "type": "address"
        },
        {
          "internalType": "address",
          "name": "medecin",
          "type": "address"
        },
        {
          "internalType": "string",
          "name": "date",
          "type": "string"
        },
        {
          "internalType": "string",
          "name": "ville",
          "type": "string"
        },
        {
          "internalType": "uint256",
          "name": "accepted",
          "type": "uint256"
        }
      ],
      "stateMutability": "view",
      "type": "function",
      "constant": true
    },
    {
      "inputs": [
        {
          "internalType": "address",
          "name": "",
          "type": "address"
        },
        {
          "internalType": "uint256",
          "name": "",
          "type": "uint256"
        }
      ],
      "name": "Patient_consultations",
      "outputs": [
        {
          "internalType": "uint256",
          "name": "id",
          "type": "uint256"
        },
        {
          "internalType": "address",
          "name": "patient",
          "type": "address"
        },
        {
          "internalType": "address",
          "name": "medecin",
          "type": "address"
        },
        {
          "internalType": "string",
          "name": "infosSante",
          "type": "string"
        },
        {
          "internalType": "uint256",
          "name": "cout",
          "type": "uint256"
        },
        {
          "internalType": "bool",
          "name": "paye",
          "type": "bool"
        },
        {
          "internalType": "bool",
          "name": "complete",
          "type": "bool"
        }
      ],
      "stateMutability": "view",
      "type": "function",
      "constant": true
    },
    {
      "inputs": [],
      "name": "diagnostic",
      "outputs": [
        {
          "internalType": "contract Diagnostic",
          "name": "",
          "type": "address"
        }
      ],
      "stateMutability": "view",
      "type": "function",
      "constant": true
    },
    {
      "inputs": [
        {
          "internalType": "uint256",
          "name": "",
          "type": "uint256"
        }
      ],
      "name": "doctor_information",
      "outputs": [
        {
          "internalType": "string",
          "name": "name",
          "type": "string"
        },
        {
          "internalType": "string",
          "name": "specialite",
          "type": "string"
        },
        {
          "internalType": "address",
          "name": "doct_add",
          "type": "address"
        }
      ],
      "stateMutability": "view",
      "type": "function",
      "constant": true
    },
    {
      "inputs": [
        {
          "internalType": "uint256",
          "name": "",
          "type": "uint256"
        }
      ],
      "name": "patient_information",
      "outputs": [
        {
          "internalType": "string",
          "name": "name",
          "type": "string"
        },
        {
          "internalType": "string",
          "name": "bloodtype",
          "type": "string"
        },
        {
          "internalType": "uint256",
          "name": "weight",
          "type": "uint256"
        },
        {
          "internalType": "uint256",
          "name": "height",
          "type": "uint256"
        },
        {
          "internalType": "uint256",
          "name": "age",
          "type": "uint256"
        },
        {
          "internalType": "string",
          "name": "Birth_date",
          "type": "string"
        },
        {
          "internalType": "string",
          "name": "Gender",
          "type": "string"
        },
        {
          "internalType": "address",
          "name": "patient_add",
          "type": "address"
        }
      ],
      "stateMutability": "view",
      "type": "function",
      "constant": true
    },
    {
      "inputs": [
        {
          "internalType": "string",
          "name": "namedoc",
          "type": "string"
        },
        {
          "internalType": "string",
          "name": "specialite",
          "type": "string"
        }
      ],
      "name": "addDoctorInfo",
      "outputs": [],
      "stateMutability": "nonpayable",
      "type": "function"
    },
    {
      "inputs": [
        {
          "internalType": "string",
          "name": "namedoc",
          "type": "string"
        },
        {
          "internalType": "string",
          "name": "specialite",
          "type": "string"
        }
      ],
      "name": "getdoct_add",
      "outputs": [
        {
          "internalType": "address",
          "name": "",
          "type": "address"
        }
      ],
      "stateMutability": "view",
      "type": "function",
      "constant": true
    },
    {
      "inputs": [
        {
          "internalType": "string",
          "name": "namep",
          "type": "string"
        },
        {
          "internalType": "string",
          "name": "dob",
          "type": "string"
        }
      ],
      "name": "getpatient_add",
      "outputs": [
        {
          "internalType": "address",
          "name": "",
          "type": "address"
        }
      ],
      "stateMutability": "view",
      "type": "function",
      "constant": true
    },
    {
      "inputs": [
        {
          "internalType": "address",
          "name": "_patient",
          "type": "address"
        },
        {
          "internalType": "string",
          "name": "_infosSante",
          "type": "string"
        },
        {
          "internalType": "uint256",
          "name": "_cout",
          "type": "uint256"
        }
      ],
      "name": "nouvelleConsultation",
      "outputs": [],
      "stateMutability": "nonpayable",
      "type": "function"
    },
    {
      "inputs": [
        {
          "internalType": "uint256",
          "name": "_indexCon",
          "type": "uint256"
        },
        {
          "internalType": "uint256",
          "name": "_indexRend",
          "type": "uint256"
        }
      ],
      "name": "effectuerPaiement",
      "outputs": [],
      "stateMutability": "payable",
      "type": "function",
      "payable": true
    },
    {
      "inputs": [
        {
          "internalType": "uint256",
          "name": "_index",
          "type": "uint256"
        },
        {
          "internalType": "address",
          "name": "patient",
          "type": "address"
        }
      ],
      "name": "marquerConsultationComplete",
      "outputs": [],
      "stateMutability": "nonpayable",
      "type": "function"
    },
    {
      "inputs": [
        {
          "internalType": "address",
          "name": "_medecin",
          "type": "address"
        },
        {
          "internalType": "string",
          "name": "_date",
          "type": "string"
        },
        {
          "internalType": "string",
          "name": "_ville",
          "type": "string"
        }
      ],
      "name": "prendreRendezVous",
      "outputs": [],
      "stateMutability": "nonpayable",
      "type": "function"
    },
    {
      "inputs": [
        {
          "internalType": "uint256",
          "name": "id",
          "type": "uint256"
        },
        {
          "internalType": "address",
          "name": "patient",
          "type": "address"
        }
      ],
      "name": "accepterRendezVous",
      "outputs": [],
      "stateMutability": "nonpayable",
      "type": "function"
    },
    {
      "inputs": [
        {
          "internalType": "uint256",
          "name": "id",
          "type": "uint256"
        },
        {
          "internalType": "address",
          "name": "patient",
          "type": "address"
        }
      ],
      "name": "refuserRendezVous",
      "outputs": [],
      "stateMutability": "nonpayable",
      "type": "function"
    },
    {
      "inputs": [
        {
          "internalType": "address",
          "name": "_patient_add",
          "type": "address"
        },
        {
          "internalType": "string",
          "name": "_name",
          "type": "string"
        },
        {
          "internalType": "string",
          "name": "_bloodtype",
          "type": "string"
        },
        {
          "internalType": "uint256",
          "name": "_weight",
          "type": "uint256"
        },
        {
          "internalType": "uint256",
          "name": "_height",
          "type": "uint256"
        },
        {
          "internalType": "uint256",
          "name": "_age",
          "type": "uint256"
        },
        {
          "internalType": "string",
          "name": "_Birth_date",
          "type": "string"
        },
        {
          "internalType": "string",
          "name": "_Gender",
          "type": "string"
        }
      ],
      "name": "addNewPatientInfo",
      "outputs": [],
      "stateMutability": "nonpayable",
      "type": "function"
    },
    {
      "inputs": [
        {
          "internalType": "address",
          "name": "_patient_add",
          "type": "address"
        },
        {
          "internalType": "string",
          "name": "_email",
          "type": "string"
        },
        {
          "internalType": "string",
          "name": "_phone",
          "type": "string"
        },
        {
          "internalType": "string",
          "name": "_Name_Emergency",
          "type": "string"
        },
        {
          "internalType": "string",
          "name": "_Phone_Emergency",
          "type": "string"
        },
        {
          "internalType": "string",
          "name": "_Relationship",
          "type": "string"
        }
      ],
      "name": "addPatientContact",
      "outputs": [],
      "stateMutability": "nonpayable",
      "type": "function"
    },
    {
      "inputs": [
        {
          "internalType": "string",
          "name": "analyse_name",
          "type": "string"
        },
        {
          "internalType": "uint256",
          "name": "id_record",
          "type": "uint256"
        },
        {
          "internalType": "address",
          "name": "p",
          "type": "address"
        },
        {
          "internalType": "address",
          "name": "lab",
          "type": "address"
        }
      ],
      "name": "ask_for_analyse",
      "outputs": [],
      "stateMutability": "nonpayable",
      "type": "function"
    },
    {
      "inputs": [
        {
          "internalType": "address",
          "name": "_patient_add",
          "type": "address"
        }
      ],
      "name": "addPatientRecord",
      "outputs": [],
      "stateMutability": "nonpayable",
      "type": "function"
    },
    {
      "inputs": [
        {
          "internalType": "address",
          "name": "p",
          "type": "address"
        },
        {
          "internalType": "uint256",
          "name": "id_analyse",
          "type": "uint256"
        },
        {
          "internalType": "string",
          "name": "result",
          "type": "string"
        },
        {
          "internalType": "uint256",
          "name": "price",
          "type": "uint256"
        }
      ],
      "name": "Add_Analyse_result",
      "outputs": [],
      "stateMutability": "nonpayable",
      "type": "function"
    },
    {
      "inputs": [
        {
          "internalType": "uint256",
          "name": "id",
          "type": "uint256"
        },
        {
          "internalType": "address payable",
          "name": "lab",
          "type": "address"
        }
      ],
      "name": "pay_analyse",
      "outputs": [],
      "stateMutability": "payable",
      "type": "function",
      "payable": true
    },
    {
      "inputs": [
        {
          "internalType": "uint256",
          "name": "id_analyse",
          "type": "uint256"
        },
        {
          "internalType": "address",
          "name": "patient",
          "type": "address"
        }
      ],
      "name": "send_analyse_to_patinet",
      "outputs": [],
      "stateMutability": "nonpayable",
      "type": "function"
    },
    {
      "inputs": [
        {
          "internalType": "uint256",
          "name": "id_rec",
          "type": "uint256"
        },
        {
          "internalType": "address",
          "name": "patient",
          "type": "address"
        },
        {
          "internalType": "string",
          "name": "name",
          "type": "string"
        },
        {
          "internalType": "string",
          "name": "dosage",
          "type": "string"
        },
        {
          "internalType": "uint256",
          "name": "duration",
          "type": "uint256"
        },
        {
          "internalType": "string",
          "name": "inst",
          "type": "string"
        }
      ],
      "name": "add_medecine",
      "outputs": [],
      "stateMutability": "nonpayable",
      "type": "function"
    },
    {
      "inputs": [
        {
          "internalType": "address",
          "name": "pharmacie",
          "type": "address"
        },
        {
          "internalType": "uint256",
          "name": "id_rec",
          "type": "uint256"
        }
      ],
      "name": "approve_pharmacy",
      "outputs": [],
      "stateMutability": "nonpayable",
      "type": "function"
    },
    {
      "inputs": [
        {
          "internalType": "uint256",
          "name": "id",
          "type": "uint256"
        },
        {
          "internalType": "address",
          "name": "patient",
          "type": "address"
        },
        {
          "internalType": "uint256",
          "name": "price",
          "type": "uint256"
        }
      ],
      "name": "add_prescription_price",
      "outputs": [],
      "stateMutability": "nonpayable",
      "type": "function"
    },
    {
      "inputs": [
        {
          "internalType": "uint256",
          "name": "id",
          "type": "uint256"
        },
        {
          "internalType": "address payable",
          "name": "phar",
          "type": "address"
        }
      ],
      "name": "pay_prescription",
      "outputs": [],
      "stateMutability": "payable",
      "type": "function",
      "payable": true
    },
    {
      "inputs": [
        {
          "internalType": "uint256",
          "name": "id_rec",
          "type": "uint256"
        },
        {
          "internalType": "address",
          "name": "patient",
          "type": "address"
        },
        {
          "internalType": "address",
          "name": "deliveryAddress",
          "type": "address"
        }
      ],
      "name": "setDeliveryAddress",
      "outputs": [],
      "stateMutability": "nonpayable",
      "type": "function"
    },
    {
      "inputs": [
        {
          "internalType": "uint256",
          "name": "id_rec",
          "type": "uint256"
        },
        {
          "internalType": "address",
          "name": "pharmacie",
          "type": "address"
        }
      ],
      "name": "deliverMedicines",
      "outputs": [],
      "stateMutability": "nonpayable",
      "type": "function"
    }
  ],
  "bytecode": "0x60806040523480156200001157600080fd5b5060405162005dbd38038062005dbd8339818101604052810190620000379190620000e9565b80600260006101000a81548173ffffffffffffffffffffffffffffffffffffffff021916908373ffffffffffffffffffffffffffffffffffffffff160217905550506200011b565b600080fd5b600073ffffffffffffffffffffffffffffffffffffffff82169050919050565b6000620000b18262000084565b9050919050565b620000c381620000a4565b8114620000cf57600080fd5b50565b600081519050620000e381620000b8565b92915050565b6000602082840312156200010257620001016200007f565b5b60006200011284828501620000d2565b91505092915050565b615c92806200012b6000396000f3fe6080604052600436106101b75760003560e01c8063a7b4479c116100ec578063d3c27c971161008a578063e109705411610064578063e1097054146105f7578063e7d6b1571461063b578063eecaab7414610664578063f6dbd9b31461068f576101b7565b8063d3c27c9714610589578063dd06f59a146105b2578063e0aeba91146105db576101b7565b8063b88cf203116100c6578063b88cf203146104de578063c337bb5b146104fa578063c371f25014610523578063cb514ada14610560576101b7565b8063a7b4479c1461044d578063a8868fbc14610476578063b0995fd31461049f576101b7565b806355263440116101595780637cafac46116101335780637cafac461461038f57806384d60ec4146103d25780638788b733146103fb5780638ce35c7814610424576101b7565b806355263440146103005780635bc0017a1461032957806374e9b49614610352576101b7565b80631bd82a62116101955780631bd82a62146102695780631c447c5a146102925780632ab8bddb146102bb5780632d8dde4c146102e4576101b7565b8063170389f0146101bc57806317168200146101e5578063174cc7e914610227575b600080fd5b3480156101c857600080fd5b506101e360048036038101906101de9190614303565b6106b8565b005b3480156101f157600080fd5b5061020c60048036038101906102079190614429565b6108bd565b60405161021e96959493929190614506565b60405180910390f35b34801561023357600080fd5b5061024e60048036038101906102499190614429565b610a66565b60405161026096959493929190614506565b60405180910390f35b34801561027557600080fd5b50610290600480360381019061028b9190614575565b610c0f565b005b34801561029e57600080fd5b506102b960048036038101906102b4919061468e565b610cae565b005b3480156102c757600080fd5b506102e260048036038101906102dd91906146e1565b610e21565b005b6102fe60048036038101906102f99190614797565b610ff4565b005b34801561030c57600080fd5b50610327600480360381019061032291906147d7565b611165565b005b34801561033557600080fd5b50610350600480360381019061034b9190614846565b611564565b005b34801561035e57600080fd5b50610379600480360381019061037491906146e1565b6116da565b60405161038691906148c9565b60405180910390f35b34801561039b57600080fd5b506103b660048036038101906103b19190614429565b611ac0565b6040516103c997969594939291906148ff565b60405180910390f35b3480156103de57600080fd5b506103f960048036038101906103f49190614975565b611c01565b005b34801561040757600080fd5b50610422600480360381019061041d91906149c8565b611d74565b005b34801561043057600080fd5b5061044b60048036038101906104469190614a08565b611ee4565b005b34801561045957600080fd5b50610474600480360381019061046f9190614429565b61205a565b005b34801561048257600080fd5b5061049d600480360381019061049891906149c8565b6121ca565b005b3480156104ab57600080fd5b506104c660048036038101906104c19190614a8b565b6125b0565b6040516104d593929190614ab8565b60405180910390f35b6104f860048036038101906104f39190614afd565b61271a565b005b34801561050657600080fd5b50610521600480360381019061051c9190614b3d565b612a88565b005b34801561052f57600080fd5b5061054a600480360381019061054591906146e1565b612c02565b60405161055791906148c9565b60405180910390f35b34801561056c57600080fd5b5061058760048036038101906105829190614c1e565b612ea3565b005b34801561059557600080fd5b506105b060048036038101906105ab91906149c8565b613296565b005b3480156105be57600080fd5b506105d960048036038101906105d49190614ca9565b613406565b005b6105f560048036038101906105f09190614797565b613573565b005b34801561060357600080fd5b5061061e60048036038101906106199190614a8b565b6136e4565b604051610632989796959493929190614cd6565b60405180910390f35b34801561064757600080fd5b50610662600480360381019061065d91906149c8565b61397c565b005b34801561067057600080fd5b50610679613c77565b6040516106869190614dcf565b60405180910390f35b34801561069b57600080fd5b506106b660048036038101906106b191906149c8565b613c9d565b005b6106c0614083565b878160000181905250868160200181905250858160400181815250508481606001818152505083816080018181525050828160a00181905250818160c00181905250888160e0019073ffffffffffffffffffffffffffffffffffffffff16908173ffffffffffffffffffffffffffffffffffffffff1681525050600260009054906101000a900473ffffffffffffffffffffffffffffffffffffffff1673ffffffffffffffffffffffffffffffffffffffff1663e5ac64ae826040518263ffffffff1660e01b81526004016107959190614f17565b600060405180830381600087803b1580156107af57600080fd5b505af11580156107c3573d6000803e3d6000fd5b5050505060018190806001815401808255809150506001900390600052602060002090600802016000909190919091506000820151816000019081610808919061513b565b50602082015181600101908161081e919061513b565b5060408201518160020155606082015181600301556080820151816004015560a0820151816005019081610852919061513b565b5060c0820151816006019081610868919061513b565b5060e08201518160070160006101000a81548173ffffffffffffffffffffffffffffffffffffffff021916908373ffffffffffffffffffffffffffffffffffffffff1602179055505050505050505050505050565b600360205281600052604060002081815481106108d957600080fd5b9060005260206000209060060201600091509150508060000154908060010160009054906101000a900473ffffffffffffffffffffffffffffffffffffffff16908060020160009054906101000a900473ffffffffffffffffffffffffffffffffffffffff169080600301805461094f90614f68565b80601f016020809104026020016040519081016040528092919081815260200182805461097b90614f68565b80156109c85780601f1061099d576101008083540402835291602001916109c8565b820191906000526020600020905b8154815290600101906020018083116109ab57829003601f168201915b5050505050908060040180546109dd90614f68565b80601f0160208091040260200160405190810160405280929190818152602001828054610a0990614f68565b8015610a565780601f10610a2b57610100808354040283529160200191610a56565b820191906000526020600020905b815481529060010190602001808311610a3957829003601f168201915b5050505050908060050154905086565b60046020528160005260406000208181548110610a8257600080fd5b9060005260206000209060060201600091509150508060000154908060010160009054906101000a900473ffffffffffffffffffffffffffffffffffffffff16908060020160009054906101000a900473ffffffffffffffffffffffffffffffffffffffff1690806003018054610af890614f68565b80601f0160208091040260200160405190810160405280929190818152602001828054610b2490614f68565b8015610b715780601f10610b4657610100808354040283529160200191610b71565b820191906000526020600020905b815481529060010190602001808311610b5457829003601f168201915b505050505090806004018054610b8690614f68565b80601f0160208091040260200160405190810160405280929190818152602001828054610bb290614f68565b8015610bff5780601f10610bd457610100808354040283529160200191610bff565b820191906000526020600020905b815481529060010190602001808311610be257829003601f168201915b5050505050908060050154905086565b600260009054906101000a900473ffffffffffffffffffffffffffffffffffffffff1673ffffffffffffffffffffffffffffffffffffffff16631bd82a628787878787876040518763ffffffff1660e01b8152600401610c749695949392919061520d565b600060405180830381600087803b158015610c8e57600080fd5b505af1158015610ca2573d6000803e3d6000fd5b50505050505050505050565b600260009054906101000a900473ffffffffffffffffffffffffffffffffffffffff1673ffffffffffffffffffffffffffffffffffffffff1663e7a71381336040518263ffffffff1660e01b8152600401610d0991906148c9565b602060405180830381865afa158015610d26573d6000803e3d6000fd5b505050506040513d601f19601f82011682018060405250810190610d4a91906152bd565b610d89576040517f08c379a0000000000000000000000000000000000000000000000000000000008152600401610d809061535c565b60405180910390fd5b600260009054906101000a900473ffffffffffffffffffffffffffffffffffffffff1673ffffffffffffffffffffffffffffffffffffffff16637b25b456848484336040518563ffffffff1660e01b8152600401610dea949392919061537c565b600060405180830381600087803b158015610e0457600080fd5b505af1158015610e18573d6000803e3d6000fd5b50505050505050565b600260009054906101000a900473ffffffffffffffffffffffffffffffffffffffff1673ffffffffffffffffffffffffffffffffffffffff1663a9583c22336040518263ffffffff1660e01b8152600401610e7c91906148c9565b602060405180830381865afa158015610e99573d6000803e3d6000fd5b505050506040513d601f19601f82011682018060405250810190610ebd91906152bd565b610efc576040517f08c379a0000000000000000000000000000000000000000000000000000000008152600401610ef39061535c565b60405180910390fd5b610f046140de565b82816000018190525081816020018190525033816040019073ffffffffffffffffffffffffffffffffffffffff16908173ffffffffffffffffffffffffffffffffffffffff168152505060008190806001815401808255809150506001900390600052602060002090600302016000909190919091506000820151816000019081610f8f919061513b565b506020820151816001019081610fa5919061513b565b5060408201518160020160006101000a81548173ffffffffffffffffffffffffffffffffffffffff021916908373ffffffffffffffffffffffffffffffffffffffff1602179055505050505050565b600260009054906101000a900473ffffffffffffffffffffffffffffffffffffffff1673ffffffffffffffffffffffffffffffffffffffff16630869cfbc336040518263ffffffff1660e01b815260040161104f91906148c9565b602060405180830381865afa15801561106c573d6000803e3d6000fd5b505050506040513d601f19601f8201168201806040525081019061109091906152bd565b6110cf576040517f08c379a00000000000000000000000000000000000000000000000000000000081526004016110c69061535c565b60405180910390fd5b600260009054906101000a900473ffffffffffffffffffffffffffffffffffffffff1673ffffffffffffffffffffffffffffffffffffffff1663f9537a00348484336040518563ffffffff1660e01b815260040161112f939291906153d0565b6000604051808303818588803b15801561114857600080fd5b505af115801561115c573d6000803e3d6000fd5b50505050505050565b600260009054906101000a900473ffffffffffffffffffffffffffffffffffffffff1673ffffffffffffffffffffffffffffffffffffffff1663a9583c22336040518263ffffffff1660e01b81526004016111c091906148c9565b602060405180830381865afa1580156111dd573d6000803e3d6000fd5b505050506040513d601f19601f8201168201806040525081019061120191906152bd565b611240576040517f08c379a00000000000000000000000000000000000000000000000000000000081526004016112379061535c565b60405180910390fd5b8273ffffffffffffffffffffffffffffffffffffffff163373ffffffffffffffffffffffffffffffffffffffff16036112ae576040517f08c379a00000000000000000000000000000000000000000000000000000000081526004016112a590615479565b60405180910390fd5b600081116112f1576040517f08c379a00000000000000000000000000000000000000000000000000000000081526004016112e89061550b565b60405180910390fd5b600560008473ffffffffffffffffffffffffffffffffffffffff1673ffffffffffffffffffffffffffffffffffffffff1681526020019081526020016000206040518060e00160405280600560008773ffffffffffffffffffffffffffffffffffffffff1673ffffffffffffffffffffffffffffffffffffffff1681526020019081526020016000208054905081526020018573ffffffffffffffffffffffffffffffffffffffff1681526020013373ffffffffffffffffffffffffffffffffffffffff1681526020018481526020018381526020016000151581526020016000151581525090806001815401808255809150506001900390600052602060002090600602016000909190919091506000820151816000015560208201518160010160006101000a81548173ffffffffffffffffffffffffffffffffffffffff021916908373ffffffffffffffffffffffffffffffffffffffff16021790555060408201518160020160006101000a81548173ffffffffffffffffffffffffffffffffffffffff021916908373ffffffffffffffffffffffffffffffffffffffff16021790555060608201518160030190816114ad919061513b565b506080820151816004015560a08201518160050160006101000a81548160ff02191690831515021790555060c08201518160050160016101000a81548160ff02191690831515021790555050503373ffffffffffffffffffffffffffffffffffffffff168373ffffffffffffffffffffffffffffffffffffffff167f37908becbaad3e3f9736a5f228dfa7cb2d6ec6d30ac5a9a696ebbd028739227783604051611557919061552b565b60405180910390a3505050565b600260009054906101000a900473ffffffffffffffffffffffffffffffffffffffff1673ffffffffffffffffffffffffffffffffffffffff1663a9583c22336040518263ffffffff1660e01b81526004016115bf91906148c9565b602060405180830381865afa1580156115dc573d6000803e3d6000fd5b505050506040513d601f19601f8201168201806040525081019061160091906152bd565b61163f576040517f08c379a00000000000000000000000000000000000000000000000000000000081526004016116369061535c565b60405180910390fd5b600260009054906101000a900473ffffffffffffffffffffffffffffffffffffffff1673ffffffffffffffffffffffffffffffffffffffff1663fcff8c3085858585336040518663ffffffff1660e01b81526004016116a2959493929190615546565b600060405180830381600087803b1580156116bc57600080fd5b505af11580156116d0573d6000803e3d6000fd5b5050505050505050565b600080600090505b600180549050811015611a7e57600060018281548110611705576117046155a0565b5b906000526020600020906008020160070160009054906101000a900473ffffffffffffffffffffffffffffffffffffffff16905060006001838154811061174f5761174e6155a0565b5b90600052602060002090600802016040518061010001604052908160008201805461177990614f68565b80601f01602080910402602001604051908101604052809291908181526020018280546117a590614f68565b80156117f25780601f106117c7576101008083540402835291602001916117f2565b820191906000526020600020905b8154815290600101906020018083116117d557829003601f168201915b5050505050815260200160018201805461180b90614f68565b80601f016020809104026020016040519081016040528092919081815260200182805461183790614f68565b80156118845780601f1061185957610100808354040283529160200191611884565b820191906000526020600020905b81548152906001019060200180831161186757829003601f168201915b505050505081526020016002820154815260200160038201548152602001600482015481526020016005820180546118bb90614f68565b80601f01602080910402602001604051908101604052809291908181526020018280546118e790614f68565b80156119345780601f1061190957610100808354040283529160200191611934565b820191906000526020600020905b81548152906001019060200180831161191757829003601f168201915b5050505050815260200160068201805461194d90614f68565b80601f016020809104026020016040519081016040528092919081815260200182805461197990614f68565b80156119c65780601f1061199b576101008083540402835291602001916119c6565b820191906000526020600020905b8154815290600101906020018083116119a957829003601f168201915b505050505081526020016007820160009054906101000a900473ffffffffffffffffffffffffffffffffffffffff1673ffffffffffffffffffffffffffffffffffffffff1673ffffffffffffffffffffffffffffffffffffffff168152505090508580519060200120816000015180519060200120148015611a59575084805190602001208160a0015180519060200120145b15611a6957819350505050611aba565b50508080611a76906155fe565b9150506116e2565b506040517f08c379a0000000000000000000000000000000000000000000000000000000008152600401611ab190615692565b60405180910390fd5b92915050565b60056020528160005260406000208181548110611adc57600080fd5b9060005260206000209060060201600091509150508060000154908060010160009054906101000a900473ffffffffffffffffffffffffffffffffffffffff16908060020160009054906101000a900473ffffffffffffffffffffffffffffffffffffffff1690806003018054611b5290614f68565b80601f0160208091040260200160405190810160405280929190818152602001828054611b7e90614f68565b8015611bcb5780601f10611ba057610100808354040283529160200191611bcb565b820191906000526020600020905b815481529060010190602001808311611bae57829003601f168201915b5050505050908060040154908060050160009054906101000a900460ff16908060050160019054906101000a900460ff16905087565b600260009054906101000a900473ffffffffffffffffffffffffffffffffffffffff1673ffffffffffffffffffffffffffffffffffffffff1663e7a71381336040518263ffffffff1660e01b8152600401611c5c91906148c9565b602060405180830381865afa158015611c79573d6000803e3d6000fd5b505050506040513d601f19601f82011682018060405250810190611c9d91906152bd565b611cdc576040517f08c379a0000000000000000000000000000000000000000000000000000000008152600401611cd39061535c565b60405180910390fd5b600260009054906101000a900473ffffffffffffffffffffffffffffffffffffffff1673ffffffffffffffffffffffffffffffffffffffff1663cbef0b34848484336040518563ffffffff1660e01b8152600401611d3d94939291906156b2565b600060405180830381600087803b158015611d5757600080fd5b505af1158015611d6b573d6000803e3d6000fd5b50505050505050565b600260009054906101000a900473ffffffffffffffffffffffffffffffffffffffff1673ffffffffffffffffffffffffffffffffffffffff1663ad3d5ab7336040518263ffffffff1660e01b8152600401611dcf91906148c9565b602060405180830381865afa158015611dec573d6000803e3d6000fd5b505050506040513d601f19601f82011682018060405250810190611e1091906152bd565b611e4f576040517f08c379a0000000000000000000000000000000000000000000000000000000008152600401611e469061535c565b60405180910390fd5b600260009054906101000a900473ffffffffffffffffffffffffffffffffffffffff1673ffffffffffffffffffffffffffffffffffffffff16636e06ae4c8383336040518463ffffffff1660e01b8152600401611eae939291906156f7565b600060405180830381600087803b158015611ec857600080fd5b505af1158015611edc573d6000803e3d6000fd5b505050505050565b600260009054906101000a900473ffffffffffffffffffffffffffffffffffffffff1673ffffffffffffffffffffffffffffffffffffffff1663ad3d5ab7336040518263ffffffff1660e01b8152600401611f3f91906148c9565b602060405180830381865afa158015611f5c573d6000803e3d6000fd5b505050506040513d601f19601f82011682018060405250810190611f8091906152bd565b611fbf576040517f08c379a0000000000000000000000000000000000000000000000000000000008152600401611fb69061535c565b60405180910390fd5b600260009054906101000a900473ffffffffffffffffffffffffffffffffffffffff1673ffffffffffffffffffffffffffffffffffffffff16633fcc5b5b85858585336040518663ffffffff1660e01b815260040161202295949392919061572e565b600060405180830381600087803b15801561203c57600080fd5b505af1158015612050573d6000803e3d6000fd5b5050505050505050565b600260009054906101000a900473ffffffffffffffffffffffffffffffffffffffff1673ffffffffffffffffffffffffffffffffffffffff16630869cfbc336040518263ffffffff1660e01b81526004016120b591906148c9565b602060405180830381865afa1580156120d2573d6000803e3d6000fd5b505050506040513d601f19601f820116820180604052508101906120f691906152bd565b612135576040517f08c379a000000000000000000000000000000000000000000000000000000000815260040161212c9061535c565b60405180910390fd5b600260009054906101000a900473ffffffffffffffffffffffffffffffffffffffff1673ffffffffffffffffffffffffffffffffffffffff1663984777858383336040518463ffffffff1660e01b815260040161219493929190615788565b600060405180830381600087803b1580156121ae57600080fd5b505af11580156121c2573d6000803e3d6000fd5b505050505050565b600260009054906101000a900473ffffffffffffffffffffffffffffffffffffffff1673ffffffffffffffffffffffffffffffffffffffff1663a9583c22336040518263ffffffff1660e01b815260040161222591906148c9565b602060405180830381865afa158015612242573d6000803e3d6000fd5b505050506040513d601f19601f8201168201806040525081019061226691906152bd565b6122a5576040517f08c379a000000000000000000000000000000000000000000000000000000000815260040161229c9061535c565b60405180910390fd5b60008060005b600360003373ffffffffffffffffffffffffffffffffffffffff1673ffffffffffffffffffffffffffffffffffffffff168152602001908152602001600020805490508110156124285784600360003373ffffffffffffffffffffffffffffffffffffffff1673ffffffffffffffffffffffffffffffffffffffff1681526020019081526020016000208281548110612347576123466155a0565b5b9060005260206000209060060201600001540361241557600360003373ffffffffffffffffffffffffffffffffffffffff1673ffffffffffffffffffffffffffffffffffffffff16815260200190815260200160002081815481106123af576123ae6155a0565b5b906000526020600020906006020192506002836005015403612406576040517f08c379a00000000000000000000000000000000000000000000000000000000081526004016123fd90615831565b60405180910390fd5b60028360050181905550612428565b8080612420906155fe565b9150506122ab565b5060005b600460008573ffffffffffffffffffffffffffffffffffffffff1673ffffffffffffffffffffffffffffffffffffffff168152602001908152602001600020805490508110156125a95784600460008673ffffffffffffffffffffffffffffffffffffffff1673ffffffffffffffffffffffffffffffffffffffff16815260200190815260200160002082815481106124c8576124c76155a0565b5b9060005260206000209060060201600001540361259657600460008573ffffffffffffffffffffffffffffffffffffffff1673ffffffffffffffffffffffffffffffffffffffff16815260200190815260200160002081815481106125305761252f6155a0565b5b906000526020600020906006020191506002826005015403612587576040517f08c379a000000000000000000000000000000000000000000000000000000000815260040161257e90615831565b60405180910390fd5b600282600501819055506125a9565b80806125a1906155fe565b91505061242c565b5050505050565b600081815481106125c057600080fd5b90600052602060002090600302016000915090508060000180546125e390614f68565b80601f016020809104026020016040519081016040528092919081815260200182805461260f90614f68565b801561265c5780601f106126315761010080835404028352916020019161265c565b820191906000526020600020905b81548152906001019060200180831161263f57829003601f168201915b50505050509080600101805461267190614f68565b80601f016020809104026020016040519081016040528092919081815260200182805461269d90614f68565b80156126ea5780601f106126bf576101008083540402835291602001916126ea565b820191906000526020600020905b8154815290600101906020018083116126cd57829003601f168201915b5050505050908060020160009054906101000a900473ffffffffffffffffffffffffffffffffffffffff16905083565b600260009054906101000a900473ffffffffffffffffffffffffffffffffffffffff1673ffffffffffffffffffffffffffffffffffffffff16630869cfbc336040518263ffffffff1660e01b815260040161277591906148c9565b602060405180830381865afa158015612792573d6000803e3d6000fd5b505050506040513d601f19601f820116820180604052508101906127b691906152bd565b6127f5576040517f08c379a00000000000000000000000000000000000000000000000000000000081526004016127ec9061535c565b60405180910390fd5b600560003373ffffffffffffffffffffffffffffffffffffffff1673ffffffffffffffffffffffffffffffffffffffff168152602001908152602001600020805490508210612879576040517f08c379a00000000000000000000000000000000000000000000000000000000081526004016128709061589d565b60405180910390fd5b6000600560003373ffffffffffffffffffffffffffffffffffffffff1673ffffffffffffffffffffffffffffffffffffffff16815260200190815260200160002083815481106128cc576128cb6155a0565b5b906000526020600020906006020190506000600460003373ffffffffffffffffffffffffffffffffffffffff1673ffffffffffffffffffffffffffffffffffffffff168152602001908152602001600020838154811061292f5761292e6155a0565b5b906000526020600020906006020190508160010160009054906101000a900473ffffffffffffffffffffffffffffffffffffffff1673ffffffffffffffffffffffffffffffffffffffff163373ffffffffffffffffffffffffffffffffffffffff16146129d1576040517f08c379a00000000000000000000000000000000000000000000000000000000081526004016129c89061592f565b60405180910390fd5b81600401543414612a17576040517f08c379a0000000000000000000000000000000000000000000000000000000008152600401612a0e906159c1565b60405180910390fd5b60018260050160006101000a81548160ff021916908315150217905550600381600501819055503373ffffffffffffffffffffffffffffffffffffffff16847fe326dc30b24abd23246529be85971e38264111c7ed35a0a09eca2445b7b5973660405160405180910390a350505050565b600260009054906101000a900473ffffffffffffffffffffffffffffffffffffffff1673ffffffffffffffffffffffffffffffffffffffff1663a9583c22336040518263ffffffff1660e01b8152600401612ae391906148c9565b602060405180830381865afa158015612b00573d6000803e3d6000fd5b505050506040513d601f19601f82011682018060405250810190612b2491906152bd565b612b63576040517f08c379a0000000000000000000000000000000000000000000000000000000008152600401612b5a9061535c565b60405180910390fd5b600260009054906101000a900473ffffffffffffffffffffffffffffffffffffffff1673ffffffffffffffffffffffffffffffffffffffff1663c337bb5b8787878787876040518763ffffffff1660e01b8152600401612bc8969594939291906159e1565b600060405180830381600087803b158015612be257600080fd5b505af1158015612bf6573d6000803e3d6000fd5b50505050505050505050565b600080600090505b600080549050811015612e61576000808281548110612c2c57612c2b6155a0565b5b906000526020600020906003020160020160009054906101000a900473ffffffffffffffffffffffffffffffffffffffff1690506000808381548110612c7557612c746155a0565b5b9060005260206000209060030201604051806060016040529081600082018054612c9e90614f68565b80601f0160208091040260200160405190810160405280929190818152602001828054612cca90614f68565b8015612d175780601f10612cec57610100808354040283529160200191612d17565b820191906000526020600020905b815481529060010190602001808311612cfa57829003601f168201915b50505050508152602001600182018054612d3090614f68565b80601f0160208091040260200160405190810160405280929190818152602001828054612d5c90614f68565b8015612da95780601f10612d7e57610100808354040283529160200191612da9565b820191906000526020600020905b815481529060010190602001808311612d8c57829003601f168201915b505050505081526020016002820160009054906101000a900473ffffffffffffffffffffffffffffffffffffffff1673ffffffffffffffffffffffffffffffffffffffff1673ffffffffffffffffffffffffffffffffffffffff168152505090508580519060200120816000015180519060200120148015612e3c57508480519060200120816020015180519060200120145b15612e4c57819350505050612e9d565b50508080612e59906155fe565b915050612c0a565b506040517f08c379a0000000000000000000000000000000000000000000000000000000008152600401612e9490615692565b60405180910390fd5b92915050565b600260009054906101000a900473ffffffffffffffffffffffffffffffffffffffff1673ffffffffffffffffffffffffffffffffffffffff16630869cfbc336040518263ffffffff1660e01b8152600401612efe91906148c9565b602060405180830381865afa158015612f1b573d6000803e3d6000fd5b505050506040513d601f19601f82011682018060405250810190612f3f91906152bd565b612f7e576040517f08c379a0000000000000000000000000000000000000000000000000000000008152600401612f759061535c565b60405180910390fd5b60006040518060c00160405280600460003373ffffffffffffffffffffffffffffffffffffffff1673ffffffffffffffffffffffffffffffffffffffff1681526020019081526020016000208054905081526020013373ffffffffffffffffffffffffffffffffffffffff1681526020018573ffffffffffffffffffffffffffffffffffffffff16815260200184815260200183815260200160008152509050600460003373ffffffffffffffffffffffffffffffffffffffff1673ffffffffffffffffffffffffffffffffffffffff1681526020019081526020016000208190806001815401808255809150506001900390600052602060002090600602016000909190919091506000820151816000015560208201518160010160006101000a81548173ffffffffffffffffffffffffffffffffffffffff021916908373ffffffffffffffffffffffffffffffffffffffff16021790555060408201518160020160006101000a81548173ffffffffffffffffffffffffffffffffffffffff021916908373ffffffffffffffffffffffffffffffffffffffff1602179055506060820151816003019081613134919061513b565b50608082015181600401908161314a919061513b565b5060a082015181600501555050600360008573ffffffffffffffffffffffffffffffffffffffff1673ffffffffffffffffffffffffffffffffffffffff1681526020019081526020016000208190806001815401808255809150506001900390600052602060002090600602016000909190919091506000820151816000015560208201518160010160006101000a81548173ffffffffffffffffffffffffffffffffffffffff021916908373ffffffffffffffffffffffffffffffffffffffff16021790555060408201518160020160006101000a81548173ffffffffffffffffffffffffffffffffffffffff021916908373ffffffffffffffffffffffffffffffffffffffff160217905550606082015181600301908161326d919061513b565b506080820151816004019081613283919061513b565b5060a08201518160050155505050505050565b600260009054906101000a900473ffffffffffffffffffffffffffffffffffffffff1673ffffffffffffffffffffffffffffffffffffffff16630869cfbc336040518263ffffffff1660e01b81526004016132f191906148c9565b602060405180830381865afa15801561330e573d6000803e3d6000fd5b505050506040513d601f19601f8201168201806040525081019061333291906152bd565b613371576040517f08c379a00000000000000000000000000000000000000000000000000000000081526004016133689061535c565b60405180910390fd5b600260009054906101000a900473ffffffffffffffffffffffffffffffffffffffff1673ffffffffffffffffffffffffffffffffffffffff16632c15a6ba8333846040518463ffffffff1660e01b81526004016133d0939291906156f7565b600060405180830381600087803b1580156133ea57600080fd5b505af11580156133fe573d6000803e3d6000fd5b505050505050565b600260009054906101000a900473ffffffffffffffffffffffffffffffffffffffff1673ffffffffffffffffffffffffffffffffffffffff1663a9583c22336040518263ffffffff1660e01b815260040161346191906148c9565b602060405180830381865afa15801561347e573d6000803e3d6000fd5b505050506040513d601f19601f820116820180604052508101906134a291906152bd565b6134e1576040517f08c379a00000000000000000000000000000000000000000000000000000000081526004016134d89061535c565b60405180910390fd5b600260009054906101000a900473ffffffffffffffffffffffffffffffffffffffff1673ffffffffffffffffffffffffffffffffffffffff16632ee27e2d82336040518363ffffffff1660e01b815260040161353e929190615a57565b600060405180830381600087803b15801561355857600080fd5b505af115801561356c573d6000803e3d6000fd5b5050505050565b600260009054906101000a900473ffffffffffffffffffffffffffffffffffffffff1673ffffffffffffffffffffffffffffffffffffffff16630869cfbc336040518263ffffffff1660e01b81526004016135ce91906148c9565b602060405180830381865afa1580156135eb573d6000803e3d6000fd5b505050506040513d601f19601f8201168201806040525081019061360f91906152bd565b61364e576040517f08c379a00000000000000000000000000000000000000000000000000000000081526004016136459061535c565b60405180910390fd5b600260009054906101000a900473ffffffffffffffffffffffffffffffffffffffff1673ffffffffffffffffffffffffffffffffffffffff1663aed6513a348484336040518563ffffffff1660e01b81526004016136ae939291906153d0565b6000604051808303818588803b1580156136c757600080fd5b505af11580156136db573d6000803e3d6000fd5b50505050505050565b600181815481106136f457600080fd5b906000526020600020906008020160009150905080600001805461371790614f68565b80601f016020809104026020016040519081016040528092919081815260200182805461374390614f68565b80156137905780601f1061376557610100808354040283529160200191613790565b820191906000526020600020905b81548152906001019060200180831161377357829003601f168201915b5050505050908060010180546137a590614f68565b80601f01602080910402602001604051908101604052809291908181526020018280546137d190614f68565b801561381e5780601f106137f35761010080835404028352916020019161381e565b820191906000526020600020905b81548152906001019060200180831161380157829003601f168201915b50505050509080600201549080600301549080600401549080600501805461384590614f68565b80601f016020809104026020016040519081016040528092919081815260200182805461387190614f68565b80156138be5780601f10613893576101008083540402835291602001916138be565b820191906000526020600020905b8154815290600101906020018083116138a157829003601f168201915b5050505050908060060180546138d390614f68565b80601f01602080910402602001604051908101604052809291908181526020018280546138ff90614f68565b801561394c5780601f106139215761010080835404028352916020019161394c565b820191906000526020600020905b81548152906001019060200180831161392f57829003601f168201915b5050505050908060070160009054906101000a900473ffffffffffffffffffffffffffffffffffffffff16905088565b600260009054906101000a900473ffffffffffffffffffffffffffffffffffffffff1673ffffffffffffffffffffffffffffffffffffffff1663a9583c22336040518263ffffffff1660e01b81526004016139d791906148c9565b602060405180830381865afa1580156139f4573d6000803e3d6000fd5b505050506040513d601f19601f82011682018060405250810190613a1891906152bd565b613a57576040517f08c379a0000000000000000000000000000000000000000000000000000000008152600401613a4e9061535c565b60405180910390fd5b600560008273ffffffffffffffffffffffffffffffffffffffff1673ffffffffffffffffffffffffffffffffffffffff168152602001908152602001600020805490508210613adb576040517f08c379a0000000000000000000000000000000000000000000000000000000008152600401613ad29061589d565b60405180910390fd5b6000600560008373ffffffffffffffffffffffffffffffffffffffff1673ffffffffffffffffffffffffffffffffffffffff1681526020019081526020016000208381548110613b2e57613b2d6155a0565b5b906000526020600020906006020190508060020160009054906101000a900473ffffffffffffffffffffffffffffffffffffffff1673ffffffffffffffffffffffffffffffffffffffff163373ffffffffffffffffffffffffffffffffffffffff1614613bd0576040517f08c379a0000000000000000000000000000000000000000000000000000000008152600401613bc790615af2565b60405180910390fd5b600115158160050160009054906101000a900460ff16151514613c28576040517f08c379a0000000000000000000000000000000000000000000000000000000008152600401613c1f90615baa565b60405180910390fd5b60018160050160016101000a81548160ff021916908315150217905550827f5c18d7e21dc76a84abe99d98175a0449f20e8e9f07adecafa8d50b5c73cead7460405160405180910390a2505050565b600260009054906101000a900473ffffffffffffffffffffffffffffffffffffffff1681565b600260009054906101000a900473ffffffffffffffffffffffffffffffffffffffff1673ffffffffffffffffffffffffffffffffffffffff1663a9583c22336040518263ffffffff1660e01b8152600401613cf891906148c9565b602060405180830381865afa158015613d15573d6000803e3d6000fd5b505050506040513d601f19601f82011682018060405250810190613d3991906152bd565b613d78576040517f08c379a0000000000000000000000000000000000000000000000000000000008152600401613d6f9061535c565b60405180910390fd5b60008060005b600360003373ffffffffffffffffffffffffffffffffffffffff1673ffffffffffffffffffffffffffffffffffffffff16815260200190815260200160002080549050811015613efb5784600360003373ffffffffffffffffffffffffffffffffffffffff1673ffffffffffffffffffffffffffffffffffffffff1681526020019081526020016000208281548110613e1a57613e196155a0565b5b90600052602060002090600602016000015403613ee857600360003373ffffffffffffffffffffffffffffffffffffffff1673ffffffffffffffffffffffffffffffffffffffff1681526020019081526020016000208181548110613e8257613e816155a0565b5b906000526020600020906006020192506001836005015403613ed9576040517f08c379a0000000000000000000000000000000000000000000000000000000008152600401613ed090615c3c565b60405180910390fd5b60018360050181905550613efb565b8080613ef3906155fe565b915050613d7e565b5060005b600460008573ffffffffffffffffffffffffffffffffffffffff1673ffffffffffffffffffffffffffffffffffffffff1681526020019081526020016000208054905081101561407c5784600460008673ffffffffffffffffffffffffffffffffffffffff1673ffffffffffffffffffffffffffffffffffffffff1681526020019081526020016000208281548110613f9b57613f9a6155a0565b5b9060005260206000209060060201600001540361406957600460008573ffffffffffffffffffffffffffffffffffffffff1673ffffffffffffffffffffffffffffffffffffffff1681526020019081526020016000208181548110614003576140026155a0565b5b90600052602060002090600602019150600182600501540361405a576040517f08c379a000000000000000000000000000000000000000000000000000000000815260040161405190615c3c565b60405180910390fd5b6001826005018190555061407c565b8080614074906155fe565b915050613eff565b5050505050565b60405180610100016040528060608152602001606081526020016000815260200160008152602001600081526020016060815260200160608152602001600073ffffffffffffffffffffffffffffffffffffffff1681525090565b60405180606001604052806060815260200160608152602001600073ffffffffffffffffffffffffffffffffffffffff1681525090565b6000604051905090565b600080fd5b600080fd5b600073ffffffffffffffffffffffffffffffffffffffff82169050919050565b600061415482614129565b9050919050565b61416481614149565b811461416f57600080fd5b50565b6000813590506141818161415b565b92915050565b600080fd5b600080fd5b6000601f19601f8301169050919050565b7f4e487b7100000000000000000000000000000000000000000000000000000000600052604160045260246000fd5b6141da82614191565b810181811067ffffffffffffffff821117156141f9576141f86141a2565b5b80604052505050565b600061420c614115565b905061421882826141d1565b919050565b600067ffffffffffffffff821115614238576142376141a2565b5b61424182614191565b9050602081019050919050565b82818337600083830152505050565b600061427061426b8461421d565b614202565b90508281526020810184848401111561428c5761428b61418c565b5b61429784828561424e565b509392505050565b600082601f8301126142b4576142b3614187565b5b81356142c484826020860161425d565b91505092915050565b6000819050919050565b6142e0816142cd565b81146142eb57600080fd5b50565b6000813590506142fd816142d7565b92915050565b600080600080600080600080610100898b0312156143245761432361411f565b5b60006143328b828c01614172565b985050602089013567ffffffffffffffff81111561435357614352614124565b5b61435f8b828c0161429f565b975050604089013567ffffffffffffffff8111156143805761437f614124565b5b61438c8b828c0161429f565b965050606061439d8b828c016142ee565b95505060806143ae8b828c016142ee565b94505060a06143bf8b828c016142ee565b93505060c089013567ffffffffffffffff8111156143e0576143df614124565b5b6143ec8b828c0161429f565b92505060e089013567ffffffffffffffff81111561440d5761440c614124565b5b6144198b828c0161429f565b9150509295985092959890939650565b600080604083850312156144405761443f61411f565b5b600061444e85828601614172565b925050602061445f858286016142ee565b9150509250929050565b614472816142cd565b82525050565b61448181614149565b82525050565b600081519050919050565b600082825260208201905092915050565b60005b838110156144c15780820151818401526020810190506144a6565b60008484015250505050565b60006144d882614487565b6144e28185614492565b93506144f28185602086016144a3565b6144fb81614191565b840191505092915050565b600060c08201905061451b6000830189614469565b6145286020830188614478565b6145356040830187614478565b818103606083015261454781866144cd565b9050818103608083015261455b81856144cd565b905061456a60a0830184614469565b979650505050505050565b60008060008060008060c087890312156145925761459161411f565b5b60006145a089828a01614172565b965050602087013567ffffffffffffffff8111156145c1576145c0614124565b5b6145cd89828a0161429f565b955050604087013567ffffffffffffffff8111156145ee576145ed614124565b5b6145fa89828a0161429f565b945050606087013567ffffffffffffffff81111561461b5761461a614124565b5b61462789828a0161429f565b935050608087013567ffffffffffffffff81111561464857614647614124565b5b61465489828a0161429f565b92505060a087013567ffffffffffffffff81111561467557614674614124565b5b61468189828a0161429f565b9150509295509295509295565b6000806000606084860312156146a7576146a661411f565b5b60006146b5868287016142ee565b93505060206146c686828701614172565b92505060406146d786828701614172565b9150509250925092565b600080604083850312156146f8576146f761411f565b5b600083013567ffffffffffffffff81111561471657614715614124565b5b6147228582860161429f565b925050602083013567ffffffffffffffff81111561474357614742614124565b5b61474f8582860161429f565b9150509250929050565b600061476482614129565b9050919050565b61477481614759565b811461477f57600080fd5b50565b6000813590506147918161476b565b92915050565b600080604083850312156147ae576147ad61411f565b5b60006147bc858286016142ee565b92505060206147cd85828601614782565b9150509250929050565b6000806000606084860312156147f0576147ef61411f565b5b60006147fe86828701614172565b935050602084013567ffffffffffffffff81111561481f5761481e614124565b5b61482b8682870161429f565b925050604061483c868287016142ee565b9150509250925092565b600080600080608085870312156148605761485f61411f565b5b600085013567ffffffffffffffff81111561487e5761487d614124565b5b61488a8782880161429f565b945050602061489b878288016142ee565b93505060406148ac87828801614172565b92505060606148bd87828801614172565b91505092959194509250565b60006020820190506148de6000830184614478565b92915050565b60008115159050919050565b6148f9816148e4565b82525050565b600060e082019050614914600083018a614469565b6149216020830189614478565b61492e6040830188614478565b818103606083015261494081876144cd565b905061494f6080830186614469565b61495c60a08301856148f0565b61496960c08301846148f0565b98975050505050505050565b60008060006060848603121561498e5761498d61411f565b5b600061499c868287016142ee565b93505060206149ad86828701614172565b92505060406149be868287016142ee565b9150509250925092565b600080604083850312156149df576149de61411f565b5b60006149ed858286016142ee565b92505060206149fe85828601614172565b9150509250929050565b60008060008060808587031215614a2257614a2161411f565b5b6000614a3087828801614172565b9450506020614a41878288016142ee565b935050604085013567ffffffffffffffff811115614a6257614a61614124565b5b614a6e8782880161429f565b9250506060614a7f878288016142ee565b91505092959194509250565b600060208284031215614aa157614aa061411f565b5b6000614aaf848285016142ee565b91505092915050565b60006060820190508181036000830152614ad281866144cd565b90508181036020830152614ae681856144cd565b9050614af56040830184614478565b949350505050565b60008060408385031215614b1457614b1361411f565b5b6000614b22858286016142ee565b9250506020614b33858286016142ee565b9150509250929050565b60008060008060008060c08789031215614b5a57614b5961411f565b5b6000614b6889828a016142ee565b9650506020614b7989828a01614172565b955050604087013567ffffffffffffffff811115614b9a57614b99614124565b5b614ba689828a0161429f565b945050606087013567ffffffffffffffff811115614bc757614bc6614124565b5b614bd389828a0161429f565b9350506080614be489828a016142ee565b92505060a087013567ffffffffffffffff811115614c0557614c04614124565b5b614c1189828a0161429f565b9150509295509295509295565b600080600060608486031215614c3757614c3661411f565b5b6000614c4586828701614172565b935050602084013567ffffffffffffffff811115614c6657614c65614124565b5b614c728682870161429f565b925050604084013567ffffffffffffffff811115614c9357614c92614124565b5b614c9f8682870161429f565b9150509250925092565b600060208284031215614cbf57614cbe61411f565b5b6000614ccd84828501614172565b91505092915050565b6000610100820190508181036000830152614cf1818b6144cd565b90508181036020830152614d05818a6144cd565b9050614d146040830189614469565b614d216060830188614469565b614d2e6080830187614469565b81810360a0830152614d4081866144cd565b905081810360c0830152614d5481856144cd565b9050614d6360e0830184614478565b9998505050505050505050565b6000819050919050565b6000614d95614d90614d8b84614129565b614d70565b614129565b9050919050565b6000614da782614d7a565b9050919050565b6000614db982614d9c565b9050919050565b614dc981614dae565b82525050565b6000602082019050614de46000830184614dc0565b92915050565b600082825260208201905092915050565b6000614e0682614487565b614e108185614dea565b9350614e208185602086016144a3565b614e2981614191565b840191505092915050565b614e3d816142cd565b82525050565b614e4c81614149565b82525050565b6000610100830160008301518482036000860152614e708282614dfb565b91505060208301518482036020860152614e8a8282614dfb565b9150506040830151614e9f6040860182614e34565b506060830151614eb26060860182614e34565b506080830151614ec56080860182614e34565b5060a083015184820360a0860152614edd8282614dfb565b91505060c083015184820360c0860152614ef78282614dfb565b91505060e0830151614f0c60e0860182614e43565b508091505092915050565b60006020820190508181036000830152614f318184614e52565b905092915050565b7f4e487b7100000000000000000000000000000000000000000000000000000000600052602260045260246000fd5b60006002820490506001821680614f8057607f821691505b602082108103614f9357614f92614f39565b5b50919050565b60008190508160005260206000209050919050565b60006020601f8301049050919050565b600082821b905092915050565b600060088302614ffb7fffffffffffffffffffffffffffffffffffffffffffffffffffffffffffffffff82614fbe565b6150058683614fbe565b95508019841693508086168417925050509392505050565b600061503861503361502e846142cd565b614d70565b6142cd565b9050919050565b6000819050919050565b6150528361501d565b61506661505e8261503f565b848454614fcb565b825550505050565b600090565b61507b61506e565b615086818484615049565b505050565b5b818110156150aa5761509f600082615073565b60018101905061508c565b5050565b601f8211156150ef576150c081614f99565b6150c984614fae565b810160208510156150d8578190505b6150ec6150e485614fae565b83018261508b565b50505b505050565b600082821c905092915050565b6000615112600019846008026150f4565b1980831691505092915050565b600061512b8383615101565b9150826002028217905092915050565b61514482614487565b67ffffffffffffffff81111561515d5761515c6141a2565b5b6151678254614f68565b6151728282856150ae565b600060209050601f8311600181146151a55760008415615193578287015190505b61519d858261511f565b865550615205565b601f1984166151b386614f99565b60005b828110156151db578489015182556001820191506020850194506020810190506151b6565b868310156151f857848901516151f4601f891682615101565b8355505b6001600288020188555050505b505050505050565b600060c0820190506152226000830189614478565b818103602083015261523481886144cd565b9050818103604083015261524881876144cd565b9050818103606083015261525c81866144cd565b9050818103608083015261527081856144cd565b905081810360a083015261528481846144cd565b9050979650505050505050565b61529a816148e4565b81146152a557600080fd5b50565b6000815190506152b781615291565b92915050565b6000602082840312156152d3576152d261411f565b5b60006152e1848285016152a8565b91505092915050565b7f5468652073656e646572206973206e6f7420656c696769626c6520746f20727560008201527f6e20746869732066756e6374696f6e0000000000000000000000000000000000602082015250565b6000615346602f83614492565b9150615351826152ea565b604082019050919050565b6000602082019050818103600083015261537581615339565b9050919050565b60006080820190506153916000830187614469565b61539e6020830186614478565b6153ab6040830185614478565b6153b86060830184614478565b95945050505050565b6153ca81614759565b82525050565b60006060820190506153e56000830186614469565b6153f260208301856153c1565b6153ff6040830184614478565b949350505050565b7f4c65206d65646563696e206574206c652070617469656e74206e65207065757660008201527f656e74207061732065747265206c61206d656d6520706572736f6e6e65000000602082015250565b6000615463603d83614492565b915061546e82615407565b604082019050919050565b6000602082019050818103600083015261549281615456565b9050919050565b7f4c6520636f7574206465206c6120636f6e73756c746174696f6e20646f69742060008201527f65747265207375706572696575722061207a65726f0000000000000000000000602082015250565b60006154f5603583614492565b915061550082615499565b604082019050919050565b60006020820190508181036000830152615524816154e8565b9050919050565b60006020820190506155406000830184614469565b92915050565b600060a082019050818103600083015261556081886144cd565b905061556f6020830187614469565b61557c6040830186614478565b6155896060830185614478565b6155966080830184614478565b9695505050505050565b7f4e487b7100000000000000000000000000000000000000000000000000000000600052603260045260246000fd5b7f4e487b7100000000000000000000000000000000000000000000000000000000600052601160045260246000fd5b6000615609826142cd565b91507fffffffffffffffffffffffffffffffffffffffffffffffffffffffffffffffff820361563b5761563a6155cf565b5b600182019050919050565b7f446f63746f72206e6f7420666f756e642e000000000000000000000000000000600082015250565b600061567c601183614492565b915061568782615646565b602082019050919050565b600060208201905081810360008301526156ab8161566f565b9050919050565b60006080820190506156c76000830187614469565b6156d46020830186614478565b6156e16040830185614469565b6156ee6060830184614478565b95945050505050565b600060608201905061570c6000830186614469565b6157196020830185614478565b6157266040830184614478565b949350505050565b600060a0820190506157436000830188614478565b6157506020830187614469565b818103604083015261576281866144cd565b90506157716060830185614469565b61577e6080830184614478565b9695505050505050565b600060608201905061579d6000830186614478565b6157aa6020830185614469565b6157b76040830184614478565b949350505050565b7f546865206170706f696e746d656e742068617320616c7265616479206265656e60008201527f2072656a65637465642e00000000000000000000000000000000000000000000602082015250565b600061581b602a83614492565b9150615826826157bf565b604082019050919050565b6000602082019050818103600083015261584a8161580e565b9050919050565b7f496e64657820646520636f6e73756c746174696f6e20696e76616c6964650000600082015250565b6000615887601e83614492565b915061589282615851565b602082019050919050565b600060208201905081810360008301526158b68161587a565b9050919050565b7f5365756c206c652070617469656e74207065757420656666656374756572206c60008201527f6520706169656d656e7400000000000000000000000000000000000000000000602082015250565b6000615919602a83614492565b9150615924826158bd565b604082019050919050565b600060208201905081810360008301526159488161590c565b9050919050565b7f4c6520706169656d656e7420646f697420636f72726573706f6e64726520617560008201527f20636f7574206465206c6120636f6e73756c746174696f6e0000000000000000602082015250565b60006159ab603883614492565b91506159b68261594f565b604082019050919050565b600060208201905081810360008301526159da8161599e565b9050919050565b600060c0820190506159f66000830189614469565b615a036020830188614478565b8181036040830152615a1581876144cd565b90508181036060830152615a2981866144cd565b9050615a386080830185614469565b81810360a0830152615a4a81846144cd565b9050979650505050505050565b6000604082019050615a6c6000830185614478565b615a796020830184614478565b9392505050565b7f5365756c206c65206d65646563696e2070657574206d617271756572206c612060008201527f636f6e73756c746174696f6e20636f6d6d6520636f6d706c6574650000000000602082015250565b6000615adc603b83614492565b9150615ae782615a80565b604082019050919050565b60006020820190508181036000830152615b0b81615acf565b9050919050565b7f4c6120636f6e73756c746174696f6e20646f697420657472652070617965652060008201527f6176616e7420642765747265206d61727175656520636f6d6d6520636f6d706c60208201527f6574650000000000000000000000000000000000000000000000000000000000604082015250565b6000615b94604383614492565b9150615b9f82615b12565b606082019050919050565b60006020820190508181036000830152615bc381615b87565b9050919050565b7f546865206170706f696e746d656e742068617320616c7265616479206265656e60008201527f2061636365707465642e00000000000000000000000000000000000000000000602082015250565b6000615c26602a83614492565b9150615c3182615bca565b604082019050919050565b60006020820190508181036000830152615c5581615c19565b905091905056fea2646970667358221220342de2c28cc0551d04415967e6d97fd65f5275fd03ccc1ccdf3983e0c903a50c64736f6c63430008120033",
  "immutableReferences": {},
  "source": "// SPDX-License-Identifier: GPL-3.0\r\npragma solidity >=0.7.0 <0.9.0;\r\nimport \"./Diagnostic.sol\";\r\ncontract ConsultationOnline {\r\n    \r\n    struct Consultation {\r\n        uint id;\r\n        address patient;\r\n        address medecin;\r\n        string infosSante;\r\n        uint256 cout;\r\n        bool paye;\r\n        bool complete;\r\n        //string[] messages;\r\n    }\r\n    struct AppointmentRequest {\r\n        uint id;\r\n        address client;\r\n        address medecin;\r\n        string date;\r\n        string ville;\r\n        uint accepted;\r\n    }\r\n     struct Doctor{\r\n        string name;\r\n        string specialite;\r\n        address doct_add;\r\n    }\r\n    Doctor[] public doctor_information;\r\n    Diagnostic.Patient[] public patient_information;\r\n    Diagnostic public diagnostic;\r\n    mapping(address => AppointmentRequest[]) public Doctor_appointmentRequests;\r\n    mapping(address => AppointmentRequest[]) public Patient_appointmentRequests;\r\n    mapping(address => Consultation[]) public Patient_consultations;\r\n    //Consultation[] public consultations;\r\n    constructor(address _adresseContratExterne) {\r\n        diagnostic = Diagnostic(_adresseContratExterne);\r\n    }\r\n    modifier onlypatient() {\r\n        require(diagnostic.patients(msg.sender), \"The sender is not eligible to run this function\");\r\n        _;\r\n    }\r\n\r\n    modifier onlydoctor() {\r\n        require(diagnostic.doctors(msg.sender), \"The sender is not eligible to run this function\");\r\n        _;\r\n    }\r\n\r\n    modifier onlylaboratory() {\r\n        require(diagnostic.laboratories(msg.sender), \"The sender is not eligible to run this function\");\r\n        _;\r\n    }\r\n\r\n    modifier onlypharmacy() {\r\n        require(diagnostic.pharmacy(msg.sender), \"The sender is not eligible to run this function\");\r\n        _;\r\n    }\r\n    event NouvelleConsultation(address indexed patient, address indexed medecin, uint256 cout);\r\n    event PaiementEffectue(uint256 indexed index, address indexed patient);\r\n    event ConsultationComplete(uint256 indexed index);\r\n    event NouveauMessage(uint256 indexed index, address indexed utilisateur, string message);\r\n    function addDoctorInfo(string memory namedoc, string memory specialite) public onlydoctor{\r\n        Doctor memory d;\r\n        d.name=namedoc;\r\n        d.specialite=specialite;\r\n        d.doct_add=msg.sender;\r\n        doctor_information.push(d);\r\n    }\r\n    function getdoct_add(string memory namedoc, string memory specialite) public view returns (address){\r\n        for (uint256 i = 0; i< doctor_information.length; i++) {\r\n            address doct_add = doctor_information[i].doct_add;\r\n            Doctor memory doctor = doctor_information[i];\r\n            if (keccak256(bytes(doctor.name)) == keccak256(bytes(namedoc)) && keccak256(bytes(doctor.specialite)) == keccak256(bytes(specialite))) {\r\n                return doct_add;\r\n            }\r\n        }\r\n        revert(\"Doctor not found.\");\r\n    }\r\n    function getpatient_add(string memory namep, string memory dob) public view returns (address){\r\n        for (uint256 i = 0; i< patient_information.length; i++) {\r\n            address p_add = patient_information[i].patient_add;\r\n            Diagnostic.Patient memory patient = patient_information[i];\r\n            if (keccak256(bytes(patient.name)) == keccak256(bytes(namep)) && keccak256(bytes(patient.Birth_date)) == keccak256(bytes(dob))) {\r\n                return p_add;\r\n            }\r\n        }\r\n        revert(\"Doctor not found.\");\r\n    }\r\n    \r\n    function nouvelleConsultation(address _patient, string memory _infosSante, uint256 _cout) public onlydoctor  {\r\n        require(msg.sender != _patient, \"Le medecin et le patient ne peuvent pas etre la meme personne\");\r\n        require(_cout > 0, \"Le cout de la consultation doit etre superieur a zero\");\r\n        //consultations.push(Consultation( _patient,msg.sender, _infosSante, _cout, false, false, new string[](0)));\r\n        Patient_consultations[_patient].push(Consultation(Patient_consultations[_patient].length ,_patient,msg.sender, _infosSante, _cout, false, false/*, new string[](0)*/));\r\n        emit NouvelleConsultation( _patient,msg.sender, _cout);\r\n    }\r\n    \r\n    function effectuerPaiement(uint256 _indexCon, uint256 _indexRend) public payable onlypatient {\r\n        require(_indexCon < Patient_consultations[msg.sender].length, \"Index de consultation invalide\");\r\n        Consultation storage consultation = Patient_consultations[msg.sender][_indexCon];\r\n        AppointmentRequest storage appointmentRequest = Patient_appointmentRequests[msg.sender][_indexRend];\r\n        require(msg.sender == consultation.patient, \"Seul le patient peut effectuer le paiement\");\r\n        require(msg.value == consultation.cout, \"Le paiement doit correspondre au cout de la consultation\");\r\n        consultation.paye = true;\r\n        appointmentRequest.accepted =3;\r\n        emit PaiementEffectue(_indexCon, msg.sender);\r\n    }\r\n    \r\n    /*function envoyerMessage(uint256 _index, string memory _message, address patient) public {\r\n        require(_index < Patient_consultations[patient].length, \"Index de consultation invalide\");\r\n        Consultation storage consultation = Patient_consultations[patient][_index];\r\n        require(msg.sender == consultation.patient || msg.sender == consultation.medecin, \"Vous n'etes pas autorise a envoyer des messages pour cette consultation\");\r\n        consultation.messages.push(msg.sender == consultation.patient ? string(abi.encodePacked(\"Patient : \", _message)) : string(abi.encodePacked(\"Medecin : \", _message)));\r\n        emit NouveauMessage(_index, msg.sender, _message);\r\n    }*/\r\n    \r\n    function marquerConsultationComplete(uint256 _index, address patient) public onlydoctor {\r\n        require(_index < Patient_consultations[patient].length, \"Index de consultation invalide\");\r\n        Consultation storage consultation = Patient_consultations[patient][_index];\r\n        require(msg.sender == consultation.medecin, \"Seul le medecin peut marquer la consultation comme complete\");\r\n        require(consultation.paye == true, \"La consultation doit etre payee avant d'etre marquee comme complete\");\r\n        consultation.complete = true;\r\n        emit ConsultationComplete(_index);\r\n    }\r\n    \r\n    /*function getMessages(uint256 _index, address patient) public view returns (string memory) {\r\n        require(_index <Patient_consultations[patient].length, \"Index de consultation invalide\");\r\n        Consultation storage consultation = Patient_consultations[patient][_index];\r\n        require(msg.sender == consultation.patient || msg.sender == consultation.medecin, \"Vous n'etes pas autorise a acceder aux messages pour cette consultation\");\r\n        string memory allMessages = \"\";\r\n        for (uint256 i = 0; i < consultation.messages.length; i++) {\r\n            allMessages = string(abi.encodePacked(allMessages, \"\\n\", consultation.messages[i]));\r\n        }\r\n        return allMessages;\r\n    }*/\r\n   \r\n    function prendreRendezVous(address _medecin, string memory _date, string memory _ville) public onlypatient {\r\n        AppointmentRequest memory request = AppointmentRequest({\r\n            id: Patient_appointmentRequests[msg.sender].length,\r\n            date: _date,\r\n            ville: _ville,\r\n            accepted: 0,\r\n            client: msg.sender,\r\n            medecin :_medecin\r\n        });\r\n        Patient_appointmentRequests[msg.sender].push(request);\r\n        Doctor_appointmentRequests[_medecin].push(request);\r\n    }\r\n\r\n    function accepterRendezVous(uint id, address patient) public onlydoctor{\r\n        AppointmentRequest storage Doctor_request;\r\n        AppointmentRequest storage Patient_request;\r\n        for(uint i=0; i<Doctor_appointmentRequests[msg.sender].length; i++){\r\n            if(Doctor_appointmentRequests[msg.sender][i].id==id){\r\n                Doctor_request=Doctor_appointmentRequests[msg.sender][i];\r\n                require(Doctor_request.accepted!=1, \"The appointment has already been accepted.\");\r\n                Doctor_request.accepted = 1;\r\n                break;\r\n            }\r\n        }\r\n        for(uint i=0; i<Patient_appointmentRequests[patient].length; i++){\r\n            if(Patient_appointmentRequests[patient][i].id==id){\r\n                Patient_request=Patient_appointmentRequests[patient][i];\r\n                require(Patient_request.accepted!=1, \"The appointment has already been accepted.\");\r\n                Patient_request.accepted = 1;\r\n                break;\r\n            }\r\n        }\r\n        \r\n        \r\n    }\r\n\r\n    function refuserRendezVous(uint id, address patient) public onlydoctor {\r\n        AppointmentRequest storage Doctor_request;\r\n        AppointmentRequest storage Patient_request;\r\n        for(uint i=0; i<Doctor_appointmentRequests[msg.sender].length; i++){\r\n            if(Doctor_appointmentRequests[msg.sender][i].id==id){\r\n                Doctor_request=Doctor_appointmentRequests[msg.sender][i];\r\n                require(Doctor_request.accepted!=2, \"The appointment has already been rejected.\");\r\n                Doctor_request.accepted = 2;\r\n                break;\r\n            }\r\n        }\r\n        for(uint i=0; i<Patient_appointmentRequests[patient].length; i++){\r\n            if(Patient_appointmentRequests[patient][i].id==id){\r\n                Patient_request=Patient_appointmentRequests[patient][i];\r\n                require(Patient_request.accepted!=2, \"The appointment has already been rejected.\");\r\n                Patient_request.accepted = 2;\r\n                break;\r\n            }\r\n        }\r\n        \r\n\r\n    }\r\n    /********************************************************************************************************/\r\n\r\n    function addNewPatientInfo(address _patient_add, string memory  _name, string memory  _bloodtype, uint _weight, uint _height, uint _age,\r\n        string memory  _Birth_date, string memory  _Gender) public  {\r\n            \r\n            Diagnostic.Patient memory p;\r\n            p.name = _name;\r\n            p.bloodtype = _bloodtype;\r\n            p.weight = _weight;\r\n            p.height = _height;\r\n            p.age = _age;\r\n            p.Birth_date=_Birth_date;\r\n            p.Gender= _Gender;\r\n            p.patient_add=_patient_add;\r\n            diagnostic.addNewPatientInfo(p);\r\n            patient_information.push(p);\r\n        }\r\n\r\n    function addPatientContact(address _patient_add, string memory _email, string memory _phone, string memory _Name_Emergency,string memory _Phone_Emergency,string memory _Relationship) public  {\r\n        diagnostic.addPatientContact(_patient_add, _email, _phone, _Name_Emergency,_Phone_Emergency,_Relationship);\r\n    }\r\n    \r\n    function ask_for_analyse(string memory analyse_name,uint id_record, address p, address lab )public onlydoctor{\r\n        diagnostic.ask_for_analyse(analyse_name,id_record,p,lab,msg.sender);\r\n    }\r\n    function addPatientRecord (address _patient_add ) public onlydoctor{\r\n        diagnostic.addPatientRecord(_patient_add, msg.sender);\r\n    }\r\n    function Add_Analyse_result(address p, uint id_analyse, string memory result, uint price) public onlylaboratory {\r\n        diagnostic.Add_Analyse_result(p,id_analyse,result,price,msg.sender);\r\n    }\r\n    function pay_analyse (uint id,address payable lab ) public payable onlypatient {\r\n        diagnostic.pay_analyse{value: msg.value}(id,lab,msg.sender);\r\n    }\r\n    function send_analyse_to_patinet (uint id_analyse, address patient) public onlylaboratory{\r\n        diagnostic.send_analyse_to_patinet(id_analyse, patient,msg.sender);\r\n    }\r\n    function add_medecine(uint id_rec ,address patient, string memory name, string memory dosage, uint duration, string memory inst  )public onlydoctor{\r\n        diagnostic.add_medecine(id_rec , patient, name, dosage, duration, inst);\r\n    }\r\n    function approve_pharmacy(address pharmacie,uint id_rec) public onlypatient {\r\n        diagnostic.approve_pharmacy(pharmacie, id_rec,msg.sender);\r\n    }\r\n    function add_prescription_price(uint id,address patient,uint price) public onlypharmacy  {\r\n        diagnostic.add_prescription_price(id,patient,price,msg.sender);\r\n    }\r\n    function pay_prescription (uint id,address payable phar ) public payable onlypatient {\r\n        diagnostic.pay_prescription{value: msg.value} (id, phar,msg.sender );\r\n    }\r\n    function setDeliveryAddress(uint id_rec, address patient, address deliveryAddress) public onlypharmacy {\r\n        diagnostic.setDeliveryAddress(id_rec,patient, deliveryAddress,msg.sender);\r\n    }\r\n    function deliverMedicines(uint id_rec, address pharmacie) public onlypatient  {\r\n        diagnostic.deliverMedicines(id_rec, msg.sender,pharmacie);\r\n    }\r\n}\r\n",
  "sourcePath": "E:\\workspace\\medical\\web3\\contracts\\ConsultationOnline.sol",
  "compiler": {
    "name": "solc",
    "version": "0.8.18+commit.87f61d96.Emscripten.clang"
  },
  "schemaVersion": "3.4.11",
  "updatedAt": "2023-05-28T17:39:08.536Z",
  "networkType": "ethereum",
  "devdoc": {
    "kind": "dev",
    "methods": {},
    "version": 1
  },
  "userdoc": {
    "kind": "user",
    "methods": {},
    "version": 1
  }
}