{
  "contractName": "Diagnostic",
  "abi": [
    {
      "inputs": [],
      "stateMutability": "nonpayable",
      "type": "constructor"
    },
    {
      "inputs": [
        {
          "internalType": "address",
          "name": "",
          "type": "address"
        }
      ],
      "name": "doctors",
      "outputs": [
        {
          "internalType": "bool",
          "name": "",
          "type": "bool"
        }
      ],
      "stateMutability": "view",
      "type": "function",
      "constant": true
    },
    {
      "inputs": [
        {
          "internalType": "address",
          "name": "",
          "type": "address"
        }
      ],
      "name": "laboratories",
      "outputs": [
        {
          "internalType": "bool",
          "name": "",
          "type": "bool"
        }
      ],
      "stateMutability": "view",
      "type": "function",
      "constant": true
    },
    {
      "inputs": [
        {
          "internalType": "address",
          "name": "",
          "type": "address"
        },
        {
          "internalType": "uint256",
          "name": "",
          "type": "uint256"
        }
      ],
      "name": "laboratory_analyses",
      "outputs": [
        {
          "internalType": "uint256",
          "name": "id",
          "type": "uint256"
        },
        {
          "internalType": "string",
          "name": "name",
          "type": "string"
        },
        {
          "internalType": "address",
          "name": "patient",
          "type": "address"
        },
        {
          "internalType": "address",
          "name": "doctor",
          "type": "address"
        },
        {
          "internalType": "string",
          "name": "resultat",
          "type": "string"
        },
        {
          "internalType": "uint256",
          "name": "price",
          "type": "uint256"
        },
        {
          "internalType": "bool",
          "name": "paid",
          "type": "bool"
        }
      ],
      "stateMutability": "view",
      "type": "function",
      "constant": true
    },
    {
      "inputs": [],
      "name": "manager",
      "outputs": [
        {
          "internalType": "address",
          "name": "",
          "type": "address"
        }
      ],
      "stateMutability": "view",
      "type": "function",
      "constant": true
    },
    {
      "inputs": [
        {
          "internalType": "address",
          "name": "",
          "type": "address"
        },
        {
          "internalType": "uint256",
          "name": "",
          "type": "uint256"
        }
      ],
      "name": "patient_analyses",
      "outputs": [
        {
          "internalType": "uint256",
          "name": "id",
          "type": "uint256"
        },
        {
          "internalType": "string",
          "name": "name",
          "type": "string"
        },
        {
          "internalType": "address",
          "name": "patient",
          "type": "address"
        },
        {
          "internalType": "address",
          "name": "doctor",
          "type": "address"
        },
        {
          "internalType": "string",
          "name": "resultat",
          "type": "string"
        },
        {
          "internalType": "uint256",
          "name": "price",
          "type": "uint256"
        },
        {
          "internalType": "bool",
          "name": "paid",
          "type": "bool"
        }
      ],
      "stateMutability": "view",
      "type": "function",
      "constant": true
    },
    {
      "inputs": [
        {
          "internalType": "address",
          "name": "",
          "type": "address"
        }
      ],
      "name": "patient_contact",
      "outputs": [
        {
          "internalType": "string",
          "name": "email",
          "type": "string"
        },
        {
          "internalType": "string",
          "name": "phone",
          "type": "string"
        },
        {
          "internalType": "string",
          "name": "Name_Emergency",
          "type": "string"
        },
        {
          "internalType": "string",
          "name": "Phone_Emergency",
          "type": "string"
        },
        {
          "internalType": "string",
          "name": "Relationship",
          "type": "string"
        }
      ],
      "stateMutability": "view",
      "type": "function",
      "constant": true
    },
    {
      "inputs": [
        {
          "internalType": "address",
          "name": "",
          "type": "address"
        }
      ],
      "name": "patient_information",
      "outputs": [
        {
          "internalType": "string",
          "name": "name",
          "type": "string"
        },
        {
          "internalType": "string",
          "name": "bloodtype",
          "type": "string"
        },
        {
          "internalType": "uint256",
          "name": "weight",
          "type": "uint256"
        },
        {
          "internalType": "uint256",
          "name": "height",
          "type": "uint256"
        },
        {
          "internalType": "uint256",
          "name": "age",
          "type": "uint256"
        },
        {
          "internalType": "string",
          "name": "Birth_date",
          "type": "string"
        },
        {
          "internalType": "string",
          "name": "Gender",
          "type": "string"
        },
        {
          "internalType": "address",
          "name": "patient_add",
          "type": "address"
        }
      ],
      "stateMutability": "view",
      "type": "function",
      "constant": true
    },
    {
      "inputs": [
        {
          "internalType": "address",
          "name": "",
          "type": "address"
        },
        {
          "internalType": "uint256",
          "name": "",
          "type": "uint256"
        },
        {
          "internalType": "uint256",
          "name": "",
          "type": "uint256"
        }
      ],
      "name": "patient_medecines",
      "outputs": [
        {
          "internalType": "uint256",
          "name": "id",
          "type": "uint256"
        },
        {
          "internalType": "string",
          "name": "name",
          "type": "string"
        },
        {
          "internalType": "string",
          "name": "dosage",
          "type": "string"
        },
        {
          "internalType": "uint256",
          "name": "duration",
          "type": "uint256"
        },
        {
          "internalType": "string",
          "name": "instructions",
          "type": "string"
        }
      ],
      "stateMutability": "view",
      "type": "function",
      "constant": true
    },
    {
      "inputs": [
        {
          "internalType": "address",
          "name": "",
          "type": "address"
        },
        {
          "internalType": "uint256",
          "name": "",
          "type": "uint256"
        }
      ],
      "name": "patient_records",
      "outputs": [
        {
          "internalType": "uint256",
          "name": "id",
          "type": "uint256"
        },
        {
          "components": [
            {
              "internalType": "address",
              "name": "p",
              "type": "address"
            },
            {
              "internalType": "uint256",
              "name": "id_rec",
              "type": "uint256"
            },
            {
              "internalType": "address",
              "name": "doctor",
              "type": "address"
            },
            {
              "internalType": "address",
              "name": "pharmacie",
              "type": "address"
            },
            {
              "internalType": "uint256[]",
              "name": "medecines_id",
              "type": "uint256[]"
            },
            {
              "internalType": "uint256",
              "name": "price",
              "type": "uint256"
            },
            {
              "internalType": "bool",
              "name": "isPaid",
              "type": "bool"
            },
            {
              "internalType": "bool",
              "name": "isDelivered",
              "type": "bool"
            },
            {
              "internalType": "address",
              "name": "deliveryAddress",
              "type": "address"
            }
          ],
          "internalType": "struct Diagnostic.Prescription",
          "name": "prescription",
          "type": "tuple"
        },
        {
          "internalType": "string",
          "name": "status",
          "type": "string"
        },
        {
          "internalType": "uint256",
          "name": "diagnostic_time",
          "type": "uint256"
        },
        {
          "internalType": "address",
          "name": "doctor",
          "type": "address"
        }
      ],
      "stateMutability": "view",
      "type": "function",
      "constant": true
    },
    {
      "inputs": [
        {
          "internalType": "address",
          "name": "",
          "type": "address"
        }
      ],
      "name": "patients",
      "outputs": [
        {
          "internalType": "bool",
          "name": "",
          "type": "bool"
        }
      ],
      "stateMutability": "view",
      "type": "function",
      "constant": true
    },
    {
      "inputs": [
        {
          "internalType": "address",
          "name": "",
          "type": "address"
        },
        {
          "internalType": "uint256",
          "name": "",
          "type": "uint256"
        }
      ],
      "name": "pharmacie_prescriptions",
      "outputs": [
        {
          "internalType": "address",
          "name": "p",
          "type": "address"
        },
        {
          "internalType": "uint256",
          "name": "id_rec",
          "type": "uint256"
        },
        {
          "internalType": "address",
          "name": "doctor",
          "type": "address"
        },
        {
          "internalType": "address",
          "name": "pharmacie",
          "type": "address"
        },
        {
          "internalType": "uint256",
          "name": "price",
          "type": "uint256"
        },
        {
          "internalType": "bool",
          "name": "isPaid",
          "type": "bool"
        },
        {
          "internalType": "bool",
          "name": "isDelivered",
          "type": "bool"
        },
        {
          "internalType": "address",
          "name": "deliveryAddress",
          "type": "address"
        }
      ],
      "stateMutability": "view",
      "type": "function",
      "constant": true
    },
    {
      "inputs": [
        {
          "internalType": "address",
          "name": "",
          "type": "address"
        }
      ],
      "name": "pharmacy",
      "outputs": [
        {
          "internalType": "bool",
          "name": "",
          "type": "bool"
        }
      ],
      "stateMutability": "view",
      "type": "function",
      "constant": true
    },
    {
      "inputs": [
        {
          "internalType": "address",
          "name": "user",
          "type": "address"
        }
      ],
      "name": "assigningdoctor",
      "outputs": [],
      "stateMutability": "nonpayable",
      "type": "function"
    },
    {
      "inputs": [
        {
          "internalType": "address",
          "name": "user",
          "type": "address"
        }
      ],
      "name": "assigninglaboratory",
      "outputs": [],
      "stateMutability": "nonpayable",
      "type": "function"
    },
    {
      "inputs": [
        {
          "internalType": "address",
          "name": "user",
          "type": "address"
        }
      ],
      "name": "assigningpharmacy",
      "outputs": [],
      "stateMutability": "nonpayable",
      "type": "function"
    },
    {
      "inputs": [
        {
          "components": [
            {
              "internalType": "string",
              "name": "name",
              "type": "string"
            },
            {
              "internalType": "string",
              "name": "bloodtype",
              "type": "string"
            },
            {
              "internalType": "uint256",
              "name": "weight",
              "type": "uint256"
            },
            {
              "internalType": "uint256",
              "name": "height",
              "type": "uint256"
            },
            {
              "internalType": "uint256",
              "name": "age",
              "type": "uint256"
            },
            {
              "internalType": "string",
              "name": "Birth_date",
              "type": "string"
            },
            {
              "internalType": "string",
              "name": "Gender",
              "type": "string"
            },
            {
              "internalType": "address",
              "name": "patient_add",
              "type": "address"
            }
          ],
          "internalType": "struct Diagnostic.Patient",
          "name": "p",
          "type": "tuple"
        }
      ],
      "name": "addNewPatientInfo",
      "outputs": [],
      "stateMutability": "nonpayable",
      "type": "function"
    },
    {
      "inputs": [
        {
          "internalType": "address",
          "name": "_patient_add",
          "type": "address"
        },
        {
          "internalType": "string",
          "name": "_email",
          "type": "string"
        },
        {
          "internalType": "string",
          "name": "_phone",
          "type": "string"
        },
        {
          "internalType": "string",
          "name": "_Name_Emergency",
          "type": "string"
        },
        {
          "internalType": "string",
          "name": "_Phone_Emergency",
          "type": "string"
        },
        {
          "internalType": "string",
          "name": "_Relationship",
          "type": "string"
        }
      ],
      "name": "addPatientContact",
      "outputs": [],
      "stateMutability": "nonpayable",
      "type": "function"
    },
    {
      "inputs": [
        {
          "internalType": "address",
          "name": "_patient_add",
          "type": "address"
        },
        {
          "internalType": "address",
          "name": "doc",
          "type": "address"
        }
      ],
      "name": "addPatientRecord",
      "outputs": [],
      "stateMutability": "nonpayable",
      "type": "function"
    },
    {
      "inputs": [
        {
          "internalType": "string",
          "name": "analyse_name",
          "type": "string"
        },
        {
          "internalType": "uint256",
          "name": "id_record",
          "type": "uint256"
        },
        {
          "internalType": "address",
          "name": "p",
          "type": "address"
        },
        {
          "internalType": "address",
          "name": "lab",
          "type": "address"
        },
        {
          "internalType": "address",
          "name": "doc",
          "type": "address"
        }
      ],
      "name": "ask_for_analyse",
      "outputs": [],
      "stateMutability": "nonpayable",
      "type": "function"
    },
    {
      "inputs": [
        {
          "internalType": "address",
          "name": "p",
          "type": "address"
        },
        {
          "internalType": "uint256",
          "name": "id_analyse",
          "type": "uint256"
        },
        {
          "internalType": "string",
          "name": "result",
          "type": "string"
        },
        {
          "internalType": "uint256",
          "name": "price",
          "type": "uint256"
        },
        {
          "internalType": "address",
          "name": "lab",
          "type": "address"
        }
      ],
      "name": "Add_Analyse_result",
      "outputs": [],
      "stateMutability": "nonpayable",
      "type": "function"
    },
    {
      "inputs": [
        {
          "internalType": "uint256",
          "name": "id",
          "type": "uint256"
        },
        {
          "internalType": "address payable",
          "name": "lab",
          "type": "address"
        },
        {
          "internalType": "address",
          "name": "patient",
          "type": "address"
        }
      ],
      "name": "pay_analyse",
      "outputs": [],
      "stateMutability": "payable",
      "type": "function",
      "payable": true
    },
    {
      "inputs": [
        {
          "internalType": "uint256",
          "name": "id_analyse",
          "type": "uint256"
        },
        {
          "internalType": "address",
          "name": "patient",
          "type": "address"
        },
        {
          "internalType": "address",
          "name": "lab",
          "type": "address"
        }
      ],
      "name": "send_analyse_to_patinet",
      "outputs": [],
      "stateMutability": "nonpayable",
      "type": "function"
    },
    {
      "inputs": [
        {
          "internalType": "uint256",
          "name": "id_rec",
          "type": "uint256"
        },
        {
          "internalType": "address",
          "name": "patient",
          "type": "address"
        },
        {
          "internalType": "string",
          "name": "name",
          "type": "string"
        },
        {
          "internalType": "string",
          "name": "dosage",
          "type": "string"
        },
        {
          "internalType": "uint256",
          "name": "duration",
          "type": "uint256"
        },
        {
          "internalType": "string",
          "name": "inst",
          "type": "string"
        }
      ],
      "name": "add_medecine",
      "outputs": [],
      "stateMutability": "nonpayable",
      "type": "function"
    },
    {
      "inputs": [
        {
          "internalType": "address",
          "name": "pharmacie",
          "type": "address"
        },
        {
          "internalType": "uint256",
          "name": "id_rec",
          "type": "uint256"
        },
        {
          "internalType": "address",
          "name": "patient",
          "type": "address"
        }
      ],
      "name": "approve_pharmacy",
      "outputs": [],
      "stateMutability": "nonpayable",
      "type": "function"
    },
    {
      "inputs": [
        {
          "internalType": "uint256",
          "name": "id",
          "type": "uint256"
        },
        {
          "internalType": "address",
          "name": "patient",
          "type": "address"
        },
        {
          "internalType": "uint256",
          "name": "price",
          "type": "uint256"
        },
        {
          "internalType": "address",
          "name": "pharmacie",
          "type": "address"
        }
      ],
      "name": "add_prescription_price",
      "outputs": [],
      "stateMutability": "nonpayable",
      "type": "function"
    },
    {
      "inputs": [
        {
          "internalType": "uint256",
          "name": "id",
          "type": "uint256"
        },
        {
          "internalType": "address payable",
          "name": "phar",
          "type": "address"
        },
        {
          "internalType": "address",
          "name": "p",
          "type": "address"
        }
      ],
      "name": "pay_prescription",
      "outputs": [],
      "stateMutability": "payable",
      "type": "function",
      "payable": true
    },
    {
      "inputs": [
        {
          "internalType": "uint256",
          "name": "id_rec",
          "type": "uint256"
        },
        {
          "internalType": "address",
          "name": "patient",
          "type": "address"
        },
        {
          "internalType": "address",
          "name": "deliveryAddress",
          "type": "address"
        },
        {
          "internalType": "address",
          "name": "pharmacie",
          "type": "address"
        }
      ],
      "name": "setDeliveryAddress",
      "outputs": [],
      "stateMutability": "nonpayable",
      "type": "function"
    },
    {
      "inputs": [
        {
          "internalType": "uint256",
          "name": "id_rec",
          "type": "uint256"
        },
        {
          "internalType": "address",
          "name": "patient",
          "type": "address"
        },
        {
          "internalType": "address",
          "name": "pharmacie",
          "type": "address"
        }
      ],
      "name": "deliverMedicines",
      "outputs": [],
      "stateMutability": "nonpayable",
      "type": "function"
    }
  ],
  "bytecode": "0x608060405234801561001057600080fd5b5033600b60006101000a81548173ffffffffffffffffffffffffffffffffffffffff021916908373ffffffffffffffffffffffffffffffffffffffff160217905550615fdc80620000626000396000f3fe6080604052600436106101b75760003560e01c8063812e3fc3116100ec578063c337bb5b1161008a578063e7a7138111610064578063e7a7138114610677578063eaecf1f1146106b4578063f9537a00146106dd578063fcff8c30146106f9576101b7565b8063c337bb5b146105fc578063cbef0b3414610625578063e5ac64ae1461064e576101b7565b806398477785116100c6578063984777851461053d578063a9583c2214610566578063ad3d5ab7146105a3578063aed6513a146105e0576101b7565b8063812e3fc3146104755780638d1cd431146104b95780639329cb9c146104fa576101b7565b80633b455dea1161015957806368a9e17b1161013357806368a9e17b146103b95780636e06ae4c146103e2578063740042181461040b5780637b25b4561461044c576101b7565b80633b455dea1461033c5780633fcc5b5b14610365578063481c6a751461038e576101b7565b80632c15a6ba116101955780632c15a6ba146102655780632ee27e2d1461028e57806338c31696146102b75780633a3b83a3146102fb576101b7565b80630869cfbc146101bc578063183aa4e5146101f95780631bd82a621461023c575b600080fd5b3480156101c857600080fd5b506101e360048036038101906101de9190614ab5565b610722565b6040516101f09190614afd565b60405180910390f35b34801561020557600080fd5b50610220600480360381019061021b9190614b4e565b610742565b6040516102339796959493929190614c3c565b60405180910390f35b34801561024857600080fd5b50610263600480360381019061025e9190614dee565b6108fe565b005b34801561027157600080fd5b5061028c60048036038101906102879190614f07565b6109ed565b005b34801561029a57600080fd5b506102b560048036038101906102b09190614f5a565b610cd9565b005b3480156102c357600080fd5b506102de60048036038101906102d99190614b4e565b611176565b6040516102f2989796959493929190614f9a565b60405180910390f35b34801561030757600080fd5b50610322600480360381019061031d9190614b4e565b611275565b6040516103339594939291906151b9565b60405180910390f35b34801561034857600080fd5b50610363600480360381019061035e9190614ab5565b611575565b005b34801561037157600080fd5b5061038c6004803603810190610387919061521a565b611660565b005b34801561039a57600080fd5b506103a3611b52565b6040516103b091906152b1565b60405180910390f35b3480156103c557600080fd5b506103e060048036038101906103db9190614ab5565b611b78565b005b3480156103ee57600080fd5b5061040960048036038101906104049190614f07565b611c63565b005b34801561041757600080fd5b50610432600480360381019061042d9190614ab5565b61213b565b6040516104439594939291906152cc565b60405180910390f35b34801561045857600080fd5b50610473600480360381019061046e9190615342565b612419565b005b34801561048157600080fd5b5061049c60048036038101906104979190614ab5565b612752565b6040516104b09897969594939291906153a9565b60405180910390f35b3480156104c557600080fd5b506104e060048036038101906104db9190615443565b6129da565b6040516104f1959493929190615496565b60405180910390f35b34801561050657600080fd5b50610521600480360381019061051c9190614b4e565b612bd2565b6040516105349796959493929190614c3c565b60405180910390f35b34801561054957600080fd5b50610564600480360381019061055f91906154fe565b612d8e565b005b34801561057257600080fd5b5061058d60048036038101906105889190614ab5565b613124565b60405161059a9190614afd565b60405180910390f35b3480156105af57600080fd5b506105ca60048036038101906105c59190614ab5565b613144565b6040516105d79190614afd565b60405180910390f35b6105fa60048036038101906105f5919061558f565b613164565b005b34801561060857600080fd5b50610623600480360381019061061e91906155e2565b613769565b005b34801561063157600080fd5b5061064c600480360381019061064791906156c3565b61399b565b005b34801561065a57600080fd5b506106756004803603810190610670919061586e565b613cee565b005b34801561068357600080fd5b5061069e60048036038101906106999190614ab5565b613e50565b6040516106ab9190614afd565b60405180910390f35b3480156106c057600080fd5b506106db60048036038101906106d69190614ab5565b613e70565b005b6106f760048036038101906106f2919061558f565b613f5b565b005b34801561070557600080fd5b50610720600480360381019061071b91906158b7565b61457d565b005b60066020528060005260406000206000915054906101000a900460ff1681565b6003602052816000526040600020818154811061075e57600080fd5b9060005260206000209060070201600091509150508060000154908060010180546107889061597d565b80601f01602080910402602001604051908101604052809291908181526020018280546107b49061597d565b80156108015780601f106107d657610100808354040283529160200191610801565b820191906000526020600020905b8154815290600101906020018083116107e457829003601f168201915b5050505050908060020160009054906101000a900473ffffffffffffffffffffffffffffffffffffffff16908060030160009054906101000a900473ffffffffffffffffffffffffffffffffffffffff16908060040180546108629061597d565b80601f016020809104026020016040519081016040528092919081815260200182805461088e9061597d565b80156108db5780601f106108b0576101008083540402835291602001916108db565b820191906000526020600020905b8154815290600101906020018083116108be57829003601f168201915b5050505050908060050154908060060160009054906101000a900460ff16905087565b6109066148ed565b85816000018190525084816020018190525083816040018190525082816060018190525081816080018190525080600160008973ffffffffffffffffffffffffffffffffffffffff1673ffffffffffffffffffffffffffffffffffffffff16815260200190815260200160002060008201518160000190816109889190615b5a565b50602082015181600101908161099e9190615b5a565b5060408201518160020190816109b49190615b5a565b5060608201518160030190816109ca9190615b5a565b5060808201518160040190816109e09190615b5a565b5090505050505050505050565b6001600460008473ffffffffffffffffffffffffffffffffffffffff1673ffffffffffffffffffffffffffffffffffffffff1681526020019081526020016000208481548110610a4057610a3f615c2c565b5b90600052602060002090600c020160020160060160016101000a81548160ff02191690831515021790555060005b600260008373ffffffffffffffffffffffffffffffffffffffff1673ffffffffffffffffffffffffffffffffffffffff16815260200190815260200160002080549050811015610cd357600460008473ffffffffffffffffffffffffffffffffffffffff1673ffffffffffffffffffffffffffffffffffffffff1681526020019081526020016000208481548110610b0957610b08615c2c565b5b90600052602060002090600c020160020160010154600260008473ffffffffffffffffffffffffffffffffffffffff1673ffffffffffffffffffffffffffffffffffffffff1681526020019081526020016000208281548110610b6f57610b6e615c2c565b5b906000526020600020906007020160010154148015610c3b57508273ffffffffffffffffffffffffffffffffffffffff16600260008473ffffffffffffffffffffffffffffffffffffffff1673ffffffffffffffffffffffffffffffffffffffff1681526020019081526020016000208281548110610bf157610bf0615c2c565b5b906000526020600020906007020160000160009054906101000a900473ffffffffffffffffffffffffffffffffffffffff1673ffffffffffffffffffffffffffffffffffffffff16145b15610cc0576001600260008473ffffffffffffffffffffffffffffffffffffffff1673ffffffffffffffffffffffffffffffffffffffff1681526020019081526020016000208281548110610c9357610c92615c2c565b5b906000526020600020906007020160060160016101000a81548160ff021916908315150217905550610cd3565b8080610ccb90615c8a565b915050610a6e565b50505050565b600460008373ffffffffffffffffffffffffffffffffffffffff1673ffffffffffffffffffffffffffffffffffffffff1681526020019081526020016000206040518060c00160405280600460008673ffffffffffffffffffffffffffffffffffffffff1673ffffffffffffffffffffffffffffffffffffffff168152602001908152602001600020805490508152602001600067ffffffffffffffff811115610d8657610d85614cc3565b5b604051908082528060200260200182016040528015610db45781602001602082028036833780820191505090505b5081526020016040518061012001604052808673ffffffffffffffffffffffffffffffffffffffff168152602001600460008873ffffffffffffffffffffffffffffffffffffffff1673ffffffffffffffffffffffffffffffffffffffff1681526020019081526020016000208054905081526020018573ffffffffffffffffffffffffffffffffffffffff168152602001600073ffffffffffffffffffffffffffffffffffffffff168152602001600067ffffffffffffffff811115610e7e57610e7d614cc3565b5b604051908082528060200260200182016040528015610eac5781602001602082028036833780820191505090505b50815260200160008152602001600015158152602001600015158152602001600073ffffffffffffffffffffffffffffffffffffffff1681525081526020016040518060200160405280600081525081526020014281526020018373ffffffffffffffffffffffffffffffffffffffff1681525090806001815401808255809150506001900390600052602060002090600c0201600090919091909150600082015181600001556020820151816001019080519060200190610f6f92919061491c565b5060408201518160020160008201518160000160006101000a81548173ffffffffffffffffffffffffffffffffffffffff021916908373ffffffffffffffffffffffffffffffffffffffff1602179055506020820151816001015560408201518160020160006101000a81548173ffffffffffffffffffffffffffffffffffffffff021916908373ffffffffffffffffffffffffffffffffffffffff16021790555060608201518160030160006101000a81548173ffffffffffffffffffffffffffffffffffffffff021916908373ffffffffffffffffffffffffffffffffffffffff160217905550608082015181600401908051906020019061107492919061491c565b5060a0820151816005015560c08201518160060160006101000a81548160ff02191690831515021790555060e08201518160060160016101000a81548160ff0219169083151502179055506101008201518160060160026101000a81548173ffffffffffffffffffffffffffffffffffffffff021916908373ffffffffffffffffffffffffffffffffffffffff1602179055505050606082015181600901908161111e9190615b5a565b50608082015181600a015560a082015181600b0160006101000a81548173ffffffffffffffffffffffffffffffffffffffff021916908373ffffffffffffffffffffffffffffffffffffffff16021790555050505050565b6002602052816000526040600020818154811061119257600080fd5b9060005260206000209060070201600091509150508060000160009054906101000a900473ffffffffffffffffffffffffffffffffffffffff16908060010154908060020160009054906101000a900473ffffffffffffffffffffffffffffffffffffffff16908060030160009054906101000a900473ffffffffffffffffffffffffffffffffffffffff16908060050154908060060160009054906101000a900460ff16908060060160019054906101000a900460ff16908060060160029054906101000a900473ffffffffffffffffffffffffffffffffffffffff16905088565b6004602052816000526040600020818154811061129157600080fd5b90600052602060002090600c02016000915091505080600001549080600201604051806101200160405290816000820160009054906101000a900473ffffffffffffffffffffffffffffffffffffffff1673ffffffffffffffffffffffffffffffffffffffff1673ffffffffffffffffffffffffffffffffffffffff168152602001600182015481526020016002820160009054906101000a900473ffffffffffffffffffffffffffffffffffffffff1673ffffffffffffffffffffffffffffffffffffffff1673ffffffffffffffffffffffffffffffffffffffff1681526020016003820160009054906101000a900473ffffffffffffffffffffffffffffffffffffffff1673ffffffffffffffffffffffffffffffffffffffff1673ffffffffffffffffffffffffffffffffffffffff1681526020016004820180548060200260200160405190810160405280929190818152602001828054801561141757602002820191906000526020600020905b815481526020019060010190808311611403575b50505050508152602001600582015481526020016006820160009054906101000a900460ff161515151581526020016006820160019054906101000a900460ff161515151581526020016006820160029054906101000a900473ffffffffffffffffffffffffffffffffffffffff1673ffffffffffffffffffffffffffffffffffffffff1673ffffffffffffffffffffffffffffffffffffffff1681525050908060090180546114c69061597d565b80601f01602080910402602001604051908101604052809291908181526020018280546114f29061597d565b801561153f5780601f106115145761010080835404028352916020019161153f565b820191906000526020600020905b81548152906001019060200180831161152257829003601f168201915b50505050509080600a01549080600b0160009054906101000a900473ffffffffffffffffffffffffffffffffffffffff16905085565b3373ffffffffffffffffffffffffffffffffffffffff16600b60009054906101000a900473ffffffffffffffffffffffffffffffffffffffff1673ffffffffffffffffffffffffffffffffffffffff1614611605576040517f08c379a00000000000000000000000000000000000000000000000000000000081526004016115fc90615d44565b60405180910390fd5b6001600860008373ffffffffffffffffffffffffffffffffffffffff1673ffffffffffffffffffffffffffffffffffffffff16815260200190815260200160002060006101000a81548160ff02191690831515021790555050565b6000600a60008373ffffffffffffffffffffffffffffffffffffffff1673ffffffffffffffffffffffffffffffffffffffff168152602001908152602001600020805480602002602001604051908101604052809291908181526020016000905b828210156118f257838290600052602060002090600702016040518060e0016040529081600082015481526020016001820180546116fe9061597d565b80601f016020809104026020016040519081016040528092919081815260200182805461172a9061597d565b80156117775780601f1061174c57610100808354040283529160200191611777565b820191906000526020600020905b81548152906001019060200180831161175a57829003601f168201915b505050505081526020016002820160009054906101000a900473ffffffffffffffffffffffffffffffffffffffff1673ffffffffffffffffffffffffffffffffffffffff1673ffffffffffffffffffffffffffffffffffffffff1681526020016003820160009054906101000a900473ffffffffffffffffffffffffffffffffffffffff1673ffffffffffffffffffffffffffffffffffffffff1673ffffffffffffffffffffffffffffffffffffffff16815260200160048201805461183c9061597d565b80601f01602080910402602001604051908101604052809291908181526020018280546118689061597d565b80156118b55780601f1061188a576101008083540402835291602001916118b5565b820191906000526020600020905b81548152906001019060200180831161189857829003601f168201915b50505050508152602001600582015481526020016006820160009054906101000a900460ff161515151581525050815260200190600101906116c1565b50505050905060005b8151811015611b49578673ffffffffffffffffffffffffffffffffffffffff1682828151811061192e5761192d615c2c565b5b60200260200101516040015173ffffffffffffffffffffffffffffffffffffffff1614801561197a57508582828151811061196c5761196b615c2c565b5b602002602001015160000151145b15611b36578482828151811061199357611992615c2c565b5b602002602001015160800181905250838282815181106119b6576119b5615c2c565b5b602002602001015160a00181815250508181815181106119d9576119d8615c2c565b5b6020026020010151600a60008573ffffffffffffffffffffffffffffffffffffffff1673ffffffffffffffffffffffffffffffffffffffff1681526020019081526020016000208281548110611a3257611a31615c2c565b5b9060005260206000209060070201600082015181600001556020820151816001019081611a5f9190615b5a565b5060408201518160020160006101000a81548173ffffffffffffffffffffffffffffffffffffffff021916908373ffffffffffffffffffffffffffffffffffffffff16021790555060608201518160030160006101000a81548173ffffffffffffffffffffffffffffffffffffffff021916908373ffffffffffffffffffffffffffffffffffffffff1602179055506080820151816004019081611b039190615b5a565b5060a0820151816005015560c08201518160060160006101000a81548160ff021916908315150217905550905050611b49565b8080611b4190615c8a565b9150506118fb565b50505050505050565b600b60009054906101000a900473ffffffffffffffffffffffffffffffffffffffff1681565b3373ffffffffffffffffffffffffffffffffffffffff16600b60009054906101000a900473ffffffffffffffffffffffffffffffffffffffff1673ffffffffffffffffffffffffffffffffffffffff1614611c08576040517f08c379a0000000000000000000000000000000000000000000000000000000008152600401611bff90615d44565b60405180910390fd5b6001600960008373ffffffffffffffffffffffffffffffffffffffff1673ffffffffffffffffffffffffffffffffffffffff16815260200190815260200160002060006101000a81548160ff02191690831515021790555050565b6000600a60008373ffffffffffffffffffffffffffffffffffffffff1673ffffffffffffffffffffffffffffffffffffffff168152602001908152602001600020805480602002602001604051908101604052809291908181526020016000905b82821015611ef557838290600052602060002090600702016040518060e001604052908160008201548152602001600182018054611d019061597d565b80601f0160208091040260200160405190810160405280929190818152602001828054611d2d9061597d565b8015611d7a5780601f10611d4f57610100808354040283529160200191611d7a565b820191906000526020600020905b815481529060010190602001808311611d5d57829003601f168201915b505050505081526020016002820160009054906101000a900473ffffffffffffffffffffffffffffffffffffffff1673ffffffffffffffffffffffffffffffffffffffff1673ffffffffffffffffffffffffffffffffffffffff1681526020016003820160009054906101000a900473ffffffffffffffffffffffffffffffffffffffff1673ffffffffffffffffffffffffffffffffffffffff1673ffffffffffffffffffffffffffffffffffffffff168152602001600482018054611e3f9061597d565b80601f0160208091040260200160405190810160405280929190818152602001828054611e6b9061597d565b8015611eb85780601f10611e8d57610100808354040283529160200191611eb8565b820191906000526020600020905b815481529060010190602001808311611e9b57829003601f168201915b50505050508152602001600582015481526020016006820160009054906101000a900460ff16151515158152505081526020019060010190611cc4565b50505050905060005b8151811015612134578373ffffffffffffffffffffffffffffffffffffffff16828281518110611f3157611f30615c2c565b5b60200260200101516040015173ffffffffffffffffffffffffffffffffffffffff16148015611f7d575084828281518110611f6f57611f6e615c2c565b5b602002602001015160000151145b8015611fa45750818181518110611f9757611f96615c2c565b5b602002602001015160c001515b1561212157600360008573ffffffffffffffffffffffffffffffffffffffff1673ffffffffffffffffffffffffffffffffffffffff168152602001908152602001600020828281518110611ffb57611ffa615c2c565b5b6020026020010151908060018154018082558091505060019003906000526020600020906007020160009091909190915060008201518160000155602082015181600101908161204b9190615b5a565b5060408201518160020160006101000a81548173ffffffffffffffffffffffffffffffffffffffff021916908373ffffffffffffffffffffffffffffffffffffffff16021790555060608201518160030160006101000a81548173ffffffffffffffffffffffffffffffffffffffff021916908373ffffffffffffffffffffffffffffffffffffffff16021790555060808201518160040190816120ef9190615b5a565b5060a0820151816005015560c08201518160060160006101000a81548160ff0219169083151502179055505050612134565b808061212c90615c8a565b915050611efe565b5050505050565b600160205280600052604060002060009150905080600001805461215e9061597d565b80601f016020809104026020016040519081016040528092919081815260200182805461218a9061597d565b80156121d75780601f106121ac576101008083540402835291602001916121d7565b820191906000526020600020905b8154815290600101906020018083116121ba57829003601f168201915b5050505050908060010180546121ec9061597d565b80601f01602080910402602001604051908101604052809291908181526020018280546122189061597d565b80156122655780601f1061223a57610100808354040283529160200191612265565b820191906000526020600020905b81548152906001019060200180831161224857829003601f168201915b50505050509080600201805461227a9061597d565b80601f01602080910402602001604051908101604052809291908181526020018280546122a69061597d565b80156122f35780601f106122c8576101008083540402835291602001916122f3565b820191906000526020600020905b8154815290600101906020018083116122d657829003601f168201915b5050505050908060030180546123089061597d565b80601f01602080910402602001604051908101604052809291908181526020018280546123349061597d565b80156123815780601f1061235657610100808354040283529160200191612381565b820191906000526020600020905b81548152906001019060200180831161236457829003601f168201915b5050505050908060040180546123969061597d565b80601f01602080910402602001604051908101604052809291908181526020018280546123c29061597d565b801561240f5780601f106123e45761010080835404028352916020019161240f565b820191906000526020600020905b8154815290600101906020018083116123f257829003601f168201915b5050505050905085565b81600460008573ffffffffffffffffffffffffffffffffffffffff1673ffffffffffffffffffffffffffffffffffffffff168152602001908152602001600020858154811061246b5761246a615c2c565b5b90600052602060002090600c020160020160060160026101000a81548173ffffffffffffffffffffffffffffffffffffffff021916908373ffffffffffffffffffffffffffffffffffffffff16021790555060005b600260008373ffffffffffffffffffffffffffffffffffffffff1673ffffffffffffffffffffffffffffffffffffffff1681526020019081526020016000208054905081101561274b57600460008573ffffffffffffffffffffffffffffffffffffffff1673ffffffffffffffffffffffffffffffffffffffff168152602001908152602001600020858154811061255b5761255a615c2c565b5b90600052602060002090600c020160020160010154600260008473ffffffffffffffffffffffffffffffffffffffff1673ffffffffffffffffffffffffffffffffffffffff16815260200190815260200160002082815481106125c1576125c0615c2c565b5b90600052602060002090600702016001015414801561268d57508373ffffffffffffffffffffffffffffffffffffffff16600260008473ffffffffffffffffffffffffffffffffffffffff1673ffffffffffffffffffffffffffffffffffffffff168152602001908152602001600020828154811061264357612642615c2c565b5b906000526020600020906007020160000160009054906101000a900473ffffffffffffffffffffffffffffffffffffffff1673ffffffffffffffffffffffffffffffffffffffff16145b156127385782600260008473ffffffffffffffffffffffffffffffffffffffff1673ffffffffffffffffffffffffffffffffffffffff16815260200190815260200160002082815481106126e4576126e3615c2c565b5b906000526020600020906007020160060160026101000a81548173ffffffffffffffffffffffffffffffffffffffff021916908373ffffffffffffffffffffffffffffffffffffffff16021790555061274b565b808061274390615c8a565b9150506124c0565b5050505050565b60006020528060005260406000206000915090508060000180546127759061597d565b80601f01602080910402602001604051908101604052809291908181526020018280546127a19061597d565b80156127ee5780601f106127c3576101008083540402835291602001916127ee565b820191906000526020600020905b8154815290600101906020018083116127d157829003601f168201915b5050505050908060010180546128039061597d565b80601f016020809104026020016040519081016040528092919081815260200182805461282f9061597d565b801561287c5780601f106128515761010080835404028352916020019161287c565b820191906000526020600020905b81548152906001019060200180831161285f57829003601f168201915b5050505050908060020154908060030154908060040154908060050180546128a39061597d565b80601f01602080910402602001604051908101604052809291908181526020018280546128cf9061597d565b801561291c5780601f106128f15761010080835404028352916020019161291c565b820191906000526020600020905b8154815290600101906020018083116128ff57829003601f168201915b5050505050908060060180546129319061597d565b80601f016020809104026020016040519081016040528092919081815260200182805461295d9061597d565b80156129aa5780601f1061297f576101008083540402835291602001916129aa565b820191906000526020600020905b81548152906001019060200180831161298d57829003601f168201915b5050505050908060070160009054906101000a900473ffffffffffffffffffffffffffffffffffffffff16905088565b60056020528260005260406000206020528160005260406000208181548110612a0257600080fd5b90600052602060002090600502016000925092505050806000015490806001018054612a2d9061597d565b80601f0160208091040260200160405190810160405280929190818152602001828054612a599061597d565b8015612aa65780601f10612a7b57610100808354040283529160200191612aa6565b820191906000526020600020905b815481529060010190602001808311612a8957829003601f168201915b505050505090806002018054612abb9061597d565b80601f0160208091040260200160405190810160405280929190818152602001828054612ae79061597d565b8015612b345780601f10612b0957610100808354040283529160200191612b34565b820191906000526020600020905b815481529060010190602001808311612b1757829003601f168201915b505050505090806003015490806004018054612b4f9061597d565b80601f0160208091040260200160405190810160405280929190818152602001828054612b7b9061597d565b8015612bc85780601f10612b9d57610100808354040283529160200191612bc8565b820191906000526020600020905b815481529060010190602001808311612bab57829003601f168201915b5050505050905085565b600a6020528160005260406000208181548110612bee57600080fd5b906000526020600020906007020160009150915050806000015490806001018054612c189061597d565b80601f0160208091040260200160405190810160405280929190818152602001828054612c449061597d565b8015612c915780601f10612c6657610100808354040283529160200191612c91565b820191906000526020600020905b815481529060010190602001808311612c7457829003601f168201915b5050505050908060020160009054906101000a900473ffffffffffffffffffffffffffffffffffffffff16908060030160009054906101000a900473ffffffffffffffffffffffffffffffffffffffff1690806004018054612cf29061597d565b80601f0160208091040260200160405190810160405280929190818152602001828054612d1e9061597d565b8015612d6b5780601f10612d4057610100808354040283529160200191612d6b565b820191906000526020600020905b815481529060010190602001808311612d4e57829003601f168201915b5050505050908060050154908060060160009054906101000a900460ff16905087565b82600460008373ffffffffffffffffffffffffffffffffffffffff1673ffffffffffffffffffffffffffffffffffffffff1681526020019081526020016000208381548110612de057612ddf615c2c565b5b90600052602060002090600c020160020160030160006101000a81548173ffffffffffffffffffffffffffffffffffffffff021916908373ffffffffffffffffffffffffffffffffffffffff160217905550600260008473ffffffffffffffffffffffffffffffffffffffff1673ffffffffffffffffffffffffffffffffffffffff168152602001908152602001600020600460008373ffffffffffffffffffffffffffffffffffffffff1673ffffffffffffffffffffffffffffffffffffffff1681526020019081526020016000208381548110612ec257612ec1615c2c565b5b90600052602060002090600c020160020190806001815401808255809150506001900390600052602060002090600702016000909190919091506000820160009054906101000a900473ffffffffffffffffffffffffffffffffffffffff168160000160006101000a81548173ffffffffffffffffffffffffffffffffffffffff021916908373ffffffffffffffffffffffffffffffffffffffff160217905550600182015481600101556002820160009054906101000a900473ffffffffffffffffffffffffffffffffffffffff168160020160006101000a81548173ffffffffffffffffffffffffffffffffffffffff021916908373ffffffffffffffffffffffffffffffffffffffff1602179055506003820160009054906101000a900473ffffffffffffffffffffffffffffffffffffffff168160030160006101000a81548173ffffffffffffffffffffffffffffffffffffffff021916908373ffffffffffffffffffffffffffffffffffffffff1602179055506004820181600401908054613051929190614969565b50600582015481600501556006820160009054906101000a900460ff168160060160006101000a81548160ff0219169083151502179055506006820160019054906101000a900460ff168160060160016101000a81548160ff0219169083151502179055506006820160029054906101000a900473ffffffffffffffffffffffffffffffffffffffff168160060160026101000a81548173ffffffffffffffffffffffffffffffffffffffff021916908373ffffffffffffffffffffffffffffffffffffffff1602179055505050505050565b60076020528060005260406000206000915054906101000a900460ff1681565b60096020528060005260406000206000915054906101000a900460ff1681565b600960008373ffffffffffffffffffffffffffffffffffffffff1673ffffffffffffffffffffffffffffffffffffffff16815260200190815260200160002060009054906101000a900460ff166131f0576040517f08c379a00000000000000000000000000000000000000000000000000000000081526004016131e790615db0565b60405180910390fd5b6131f86149bb565b600080600a60008673ffffffffffffffffffffffffffffffffffffffff1673ffffffffffffffffffffffffffffffffffffffff168152602001908152602001600020805480602002602001604051908101604052809291908181526020016000905b8282101561348b57838290600052602060002090600702016040518060e0016040529081600082015481526020016001820180546132979061597d565b80601f01602080910402602001604051908101604052809291908181526020018280546132c39061597d565b80156133105780601f106132e557610100808354040283529160200191613310565b820191906000526020600020905b8154815290600101906020018083116132f357829003601f168201915b505050505081526020016002820160009054906101000a900473ffffffffffffffffffffffffffffffffffffffff1673ffffffffffffffffffffffffffffffffffffffff1673ffffffffffffffffffffffffffffffffffffffff1681526020016003820160009054906101000a900473ffffffffffffffffffffffffffffffffffffffff1673ffffffffffffffffffffffffffffffffffffffff1673ffffffffffffffffffffffffffffffffffffffff1681526020016004820180546133d59061597d565b80601f01602080910402602001604051908101604052809291908181526020018280546134019061597d565b801561344e5780601f106134235761010080835404028352916020019161344e565b820191906000526020600020905b81548152906001019060200180831161343157829003601f168201915b50505050508152602001600582015481526020016006820160009054906101000a900460ff1615151515815250508152602001906001019061325a565b50505050905060005b815181101561354c578473ffffffffffffffffffffffffffffffffffffffff168282815181106134c7576134c6615c2c565b5b60200260200101516040015173ffffffffffffffffffffffffffffffffffffffff1614801561351357508682828151811061350557613504615c2c565b5b602002602001015160000151145b156135395781818151811061352b5761352a615c2c565b5b602002602001015193508092505b808061354490615c8a565b915050613494565b508260c0015115613592576040517f08c379a000000000000000000000000000000000000000000000000000000000815260040161358990615e1c565b60405180910390fd5b8260a001514710156135a357600080fd5b8260a001513410156135b457600080fd5b8473ffffffffffffffffffffffffffffffffffffffff166108fc8460a001519081150290604051600060405180830381858888f193505050501580156135fe573d6000803e3d6000fd5b5060018360c001901515908115158152505082600a60008773ffffffffffffffffffffffffffffffffffffffff1673ffffffffffffffffffffffffffffffffffffffff168152602001908152602001600020838154811061366257613661615c2c565b5b906000526020600020906007020160008201518160000155602082015181600101908161368f9190615b5a565b5060408201518160020160006101000a81548173ffffffffffffffffffffffffffffffffffffffff021916908373ffffffffffffffffffffffffffffffffffffffff16021790555060608201518160030160006101000a81548173ffffffffffffffffffffffffffffffffffffffff021916908373ffffffffffffffffffffffffffffffffffffffff16021790555060808201518160040190816137339190615b5a565b5060a0820151816005015560c08201518160060160006101000a81548160ff021916908315150217905550905050505050505050565b600460008673ffffffffffffffffffffffffffffffffffffffff1673ffffffffffffffffffffffffffffffffffffffff16815260200190815260200160002086815481106137ba576137b9615c2c565b5b90600052602060002090600c0201600201600401600560008773ffffffffffffffffffffffffffffffffffffffff1673ffffffffffffffffffffffffffffffffffffffff1681526020019081526020016000206000888152602001908152602001600020805490509080600181540180825580915050600190039060005260206000200160009091909190915055600560008673ffffffffffffffffffffffffffffffffffffffff1673ffffffffffffffffffffffffffffffffffffffff16815260200190815260200160002060008781526020019081526020016000206040518060a00160405280600560008973ffffffffffffffffffffffffffffffffffffffff1673ffffffffffffffffffffffffffffffffffffffff16815260200190815260200160002060008a815260200190815260200160002080549050815260200186815260200185815260200184815260200183815250908060018154018082558091505060019003906000526020600020906005020160009091909190915060008201518160000155602082015181600101908161395a9190615b5a565b5060408201518160020190816139709190615b5a565b506060820151816003015560808201518160040190816139909190615b5a565b505050505050505050565b8073ffffffffffffffffffffffffffffffffffffffff16600460008573ffffffffffffffffffffffffffffffffffffffff1673ffffffffffffffffffffffffffffffffffffffff1681526020019081526020016000208581548110613a0357613a02615c2c565b5b90600052602060002090600c020160020160030160009054906101000a900473ffffffffffffffffffffffffffffffffffffffff1673ffffffffffffffffffffffffffffffffffffffff1614613a8e576040517f08c379a0000000000000000000000000000000000000000000000000000000008152600401613a8590615eae565b60405180910390fd5b81600460008573ffffffffffffffffffffffffffffffffffffffff1673ffffffffffffffffffffffffffffffffffffffff1681526020019081526020016000208581548110613ae057613adf615c2c565b5b90600052602060002090600c02016002016005018190555060005b600260008373ffffffffffffffffffffffffffffffffffffffff1673ffffffffffffffffffffffffffffffffffffffff16815260200190815260200160002080549050811015613ce75784600260008473ffffffffffffffffffffffffffffffffffffffff1673ffffffffffffffffffffffffffffffffffffffff1681526020019081526020016000208281548110613b9757613b96615c2c565b5b906000526020600020906007020160010154148015613c6357508373ffffffffffffffffffffffffffffffffffffffff16600260008473ffffffffffffffffffffffffffffffffffffffff1673ffffffffffffffffffffffffffffffffffffffff1681526020019081526020016000208281548110613c1957613c18615c2c565b5b906000526020600020906007020160000160009054906101000a900473ffffffffffffffffffffffffffffffffffffffff1673ffffffffffffffffffffffffffffffffffffffff16145b15613cd45782600260008473ffffffffffffffffffffffffffffffffffffffff1673ffffffffffffffffffffffffffffffffffffffff1681526020019081526020016000208281548110613cba57613cb9615c2c565b5b906000526020600020906007020160050181905550613ce7565b8080613cdf90615c8a565b915050613afb565b5050505050565b6001600660008360e0015173ffffffffffffffffffffffffffffffffffffffff1673ffffffffffffffffffffffffffffffffffffffff16815260200190815260200160002060006101000a81548160ff021916908315150217905550806000808360e0015173ffffffffffffffffffffffffffffffffffffffff1673ffffffffffffffffffffffffffffffffffffffff1681526020019081526020016000206000820151816000019081613da29190615b5a565b506020820151816001019081613db89190615b5a565b5060408201518160020155606082015181600301556080820151816004015560a0820151816005019081613dec9190615b5a565b5060c0820151816006019081613e029190615b5a565b5060e08201518160070160006101000a81548173ffffffffffffffffffffffffffffffffffffffff021916908373ffffffffffffffffffffffffffffffffffffffff16021790555090505050565b60086020528060005260406000206000915054906101000a900460ff1681565b3373ffffffffffffffffffffffffffffffffffffffff16600b60009054906101000a900473ffffffffffffffffffffffffffffffffffffffff1673ffffffffffffffffffffffffffffffffffffffff1614613f00576040517f08c379a0000000000000000000000000000000000000000000000000000000008152600401613ef790615d44565b60405180910390fd5b6001600760008373ffffffffffffffffffffffffffffffffffffffff1673ffffffffffffffffffffffffffffffffffffffff16815260200190815260200160002060006101000a81548160ff02191690831515021790555050565b8173ffffffffffffffffffffffffffffffffffffffff16600460008373ffffffffffffffffffffffffffffffffffffffff1673ffffffffffffffffffffffffffffffffffffffff1681526020019081526020016000208481548110613fc357613fc2615c2c565b5b90600052602060002090600c020160020160030160009054906101000a900473ffffffffffffffffffffffffffffffffffffffff1673ffffffffffffffffffffffffffffffffffffffff161461404e576040517f08c379a000000000000000000000000000000000000000000000000000000000815260040161404590615f1a565b60405180910390fd5b600460008273ffffffffffffffffffffffffffffffffffffffff1673ffffffffffffffffffffffffffffffffffffffff168152602001908152602001600020838154811061409f5761409e615c2c565b5b90600052602060002090600c020160020160060160009054906101000a900460ff1615614101576040517f08c379a00000000000000000000000000000000000000000000000000000000081526004016140f890615f86565b60405180910390fd5b600460008273ffffffffffffffffffffffffffffffffffffffff1673ffffffffffffffffffffffffffffffffffffffff168152602001908152602001600020838154811061415257614151615c2c565b5b90600052602060002090600c02016002016005015447101561417357600080fd5b600460008273ffffffffffffffffffffffffffffffffffffffff1673ffffffffffffffffffffffffffffffffffffffff16815260200190815260200160002083815481106141c4576141c3615c2c565b5b90600052602060002090600c0201600201600501543410156141e557600080fd5b8173ffffffffffffffffffffffffffffffffffffffff166108fc600460008473ffffffffffffffffffffffffffffffffffffffff1673ffffffffffffffffffffffffffffffffffffffff16815260200190815260200160002085815481106142505761424f615c2c565b5b90600052602060002090600c0201600201600501549081150290604051600060405180830381858888f19350505050158015614290573d6000803e3d6000fd5b506001600460008373ffffffffffffffffffffffffffffffffffffffff1673ffffffffffffffffffffffffffffffffffffffff16815260200190815260200160002084815481106142e4576142e3615c2c565b5b90600052602060002090600c020160020160060160006101000a81548160ff02191690831515021790555060005b600260008473ffffffffffffffffffffffffffffffffffffffff1673ffffffffffffffffffffffffffffffffffffffff1681526020019081526020016000208054905081101561457757600460008373ffffffffffffffffffffffffffffffffffffffff1673ffffffffffffffffffffffffffffffffffffffff16815260200190815260200160002084815481106143ad576143ac615c2c565b5b90600052602060002090600c020160020160010154600260008573ffffffffffffffffffffffffffffffffffffffff1673ffffffffffffffffffffffffffffffffffffffff168152602001908152602001600020828154811061441357614412615c2c565b5b9060005260206000209060070201600101541480156144df57508173ffffffffffffffffffffffffffffffffffffffff16600260008573ffffffffffffffffffffffffffffffffffffffff1673ffffffffffffffffffffffffffffffffffffffff168152602001908152602001600020828154811061449557614494615c2c565b5b906000526020600020906007020160000160009054906101000a900473ffffffffffffffffffffffffffffffffffffffff1673ffffffffffffffffffffffffffffffffffffffff16145b15614564576001600260008573ffffffffffffffffffffffffffffffffffffffff1673ffffffffffffffffffffffffffffffffffffffff168152602001908152602001600020828154811061453757614536615c2c565b5b906000526020600020906007020160060160006101000a81548160ff021916908315150217905550614577565b808061456f90615c8a565b915050614312565b50505050565b60006040518060e00160405280600360008773ffffffffffffffffffffffffffffffffffffffff1673ffffffffffffffffffffffffffffffffffffffff1681526020019081526020016000208054905081526020018781526020018573ffffffffffffffffffffffffffffffffffffffff1681526020018373ffffffffffffffffffffffffffffffffffffffff16815260200160405180602001604052806000815250815260200160008152602001600015158152509050600960008473ffffffffffffffffffffffffffffffffffffffff1673ffffffffffffffffffffffffffffffffffffffff16815260200190815260200160002060009054906101000a900460ff166146c1576040517f08c379a00000000000000000000000000000000000000000000000000000000081526004016146b890615db0565b60405180910390fd5b600a60008473ffffffffffffffffffffffffffffffffffffffff1673ffffffffffffffffffffffffffffffffffffffff1681526020019081526020016000208190806001815401808255809150506001900390600052602060002090600702016000909190919091506000820151816000015560208201518160010190816147499190615b5a565b5060408201518160020160006101000a81548173ffffffffffffffffffffffffffffffffffffffff021916908373ffffffffffffffffffffffffffffffffffffffff16021790555060608201518160030160006101000a81548173ffffffffffffffffffffffffffffffffffffffff021916908373ffffffffffffffffffffffffffffffffffffffff16021790555060808201518160040190816147ed9190615b5a565b5060a0820151816005015560c08201518160060160006101000a81548160ff0219169083151502179055505050600460008573ffffffffffffffffffffffffffffffffffffffff1673ffffffffffffffffffffffffffffffffffffffff168152602001908152602001600020858154811061486b5761486a615c2c565b5b90600052602060002090600c0201600101600360008673ffffffffffffffffffffffffffffffffffffffff1673ffffffffffffffffffffffffffffffffffffffff168152602001908152602001600020805490509080600181540180825580915050600190039060005260206000200160009091909190915055505050505050565b6040518060a0016040528060608152602001606081526020016060815260200160608152602001606081525090565b828054828255906000526020600020908101928215614958579160200282015b8281111561495757825182559160200191906001019061493c565b5b5090506149659190614a26565b5090565b8280548282559060005260206000209081019282156149aa5760005260206000209182015b828111156149a957825482559160010191906001019061498e565b5b5090506149b79190614a26565b5090565b6040518060e001604052806000815260200160608152602001600073ffffffffffffffffffffffffffffffffffffffff168152602001600073ffffffffffffffffffffffffffffffffffffffff16815260200160608152602001600081526020016000151581525090565b5b80821115614a3f576000816000905550600101614a27565b5090565b6000604051905090565b600080fd5b600080fd5b600073ffffffffffffffffffffffffffffffffffffffff82169050919050565b6000614a8282614a57565b9050919050565b614a9281614a77565b8114614a9d57600080fd5b50565b600081359050614aaf81614a89565b92915050565b600060208284031215614acb57614aca614a4d565b5b6000614ad984828501614aa0565b91505092915050565b60008115159050919050565b614af781614ae2565b82525050565b6000602082019050614b126000830184614aee565b92915050565b6000819050919050565b614b2b81614b18565b8114614b3657600080fd5b50565b600081359050614b4881614b22565b92915050565b60008060408385031215614b6557614b64614a4d565b5b6000614b7385828601614aa0565b9250506020614b8485828601614b39565b9150509250929050565b614b9781614b18565b82525050565b600081519050919050565b600082825260208201905092915050565b60005b83811015614bd7578082015181840152602081019050614bbc565b60008484015250505050565b6000601f19601f8301169050919050565b6000614bff82614b9d565b614c098185614ba8565b9350614c19818560208601614bb9565b614c2281614be3565b840191505092915050565b614c3681614a77565b82525050565b600060e082019050614c51600083018a614b8e565b8181036020830152614c638189614bf4565b9050614c726040830188614c2d565b614c7f6060830187614c2d565b8181036080830152614c918186614bf4565b9050614ca060a0830185614b8e565b614cad60c0830184614aee565b98975050505050505050565b600080fd5b600080fd5b7f4e487b7100000000000000000000000000000000000000000000000000000000600052604160045260246000fd5b614cfb82614be3565b810181811067ffffffffffffffff82111715614d1a57614d19614cc3565b5b80604052505050565b6000614d2d614a43565b9050614d398282614cf2565b919050565b600067ffffffffffffffff821115614d5957614d58614cc3565b5b614d6282614be3565b9050602081019050919050565b82818337600083830152505050565b6000614d91614d8c84614d3e565b614d23565b905082815260208101848484011115614dad57614dac614cbe565b5b614db8848285614d6f565b509392505050565b600082601f830112614dd557614dd4614cb9565b5b8135614de5848260208601614d7e565b91505092915050565b60008060008060008060c08789031215614e0b57614e0a614a4d565b5b6000614e1989828a01614aa0565b965050602087013567ffffffffffffffff811115614e3a57614e39614a52565b5b614e4689828a01614dc0565b955050604087013567ffffffffffffffff811115614e6757614e66614a52565b5b614e7389828a01614dc0565b945050606087013567ffffffffffffffff811115614e9457614e93614a52565b5b614ea089828a01614dc0565b935050608087013567ffffffffffffffff811115614ec157614ec0614a52565b5b614ecd89828a01614dc0565b92505060a087013567ffffffffffffffff811115614eee57614eed614a52565b5b614efa89828a01614dc0565b9150509295509295509295565b600080600060608486031215614f2057614f1f614a4d565b5b6000614f2e86828701614b39565b9350506020614f3f86828701614aa0565b9250506040614f5086828701614aa0565b9150509250925092565b60008060408385031215614f7157614f70614a4d565b5b6000614f7f85828601614aa0565b9250506020614f9085828601614aa0565b9150509250929050565b600061010082019050614fb0600083018b614c2d565b614fbd602083018a614b8e565b614fca6040830189614c2d565b614fd76060830188614c2d565b614fe46080830187614b8e565b614ff160a0830186614aee565b614ffe60c0830185614aee565b61500b60e0830184614c2d565b9998505050505050505050565b61502181614a77565b82525050565b61503081614b18565b82525050565b600081519050919050565b600082825260208201905092915050565b6000819050602082019050919050565b600061506e8383615027565b60208301905092915050565b6000602082019050919050565b600061509282615036565b61509c8185615041565b93506150a783615052565b8060005b838110156150d85781516150bf8882615062565b97506150ca8361507a565b9250506001810190506150ab565b5085935050505092915050565b6150ee81614ae2565b82525050565b60006101208301600083015161510d6000860182615018565b5060208301516151206020860182615027565b5060408301516151336040860182615018565b5060608301516151466060860182615018565b506080830151848203608086015261515e8282615087565b91505060a083015161517360a0860182615027565b5060c083015161518660c08601826150e5565b5060e083015161519960e08601826150e5565b506101008301516151ae610100860182615018565b508091505092915050565b600060a0820190506151ce6000830188614b8e565b81810360208301526151e081876150f4565b905081810360408301526151f48186614bf4565b90506152036060830185614b8e565b6152106080830184614c2d565b9695505050505050565b600080600080600060a0868803121561523657615235614a4d565b5b600061524488828901614aa0565b955050602061525588828901614b39565b945050604086013567ffffffffffffffff81111561527657615275614a52565b5b61528288828901614dc0565b935050606061529388828901614b39565b92505060806152a488828901614aa0565b9150509295509295909350565b60006020820190506152c66000830184614c2d565b92915050565b600060a08201905081810360008301526152e68188614bf4565b905081810360208301526152fa8187614bf4565b9050818103604083015261530e8186614bf4565b905081810360608301526153228185614bf4565b905081810360808301526153368184614bf4565b90509695505050505050565b6000806000806080858703121561535c5761535b614a4d565b5b600061536a87828801614b39565b945050602061537b87828801614aa0565b935050604061538c87828801614aa0565b925050606061539d87828801614aa0565b91505092959194509250565b60006101008201905081810360008301526153c4818b614bf4565b905081810360208301526153d8818a614bf4565b90506153e76040830189614b8e565b6153f46060830188614b8e565b6154016080830187614b8e565b81810360a08301526154138186614bf4565b905081810360c08301526154278185614bf4565b905061543660e0830184614c2d565b9998505050505050505050565b60008060006060848603121561545c5761545b614a4d565b5b600061546a86828701614aa0565b935050602061547b86828701614b39565b925050604061548c86828701614b39565b9150509250925092565b600060a0820190506154ab6000830188614b8e565b81810360208301526154bd8187614bf4565b905081810360408301526154d18186614bf4565b90506154e06060830185614b8e565b81810360808301526154f28184614bf4565b90509695505050505050565b60008060006060848603121561551757615516614a4d565b5b600061552586828701614aa0565b935050602061553686828701614b39565b925050604061554786828701614aa0565b9150509250925092565b600061555c82614a57565b9050919050565b61556c81615551565b811461557757600080fd5b50565b60008135905061558981615563565b92915050565b6000806000606084860312156155a8576155a7614a4d565b5b60006155b686828701614b39565b93505060206155c78682870161557a565b92505060406155d886828701614aa0565b9150509250925092565b60008060008060008060c087890312156155ff576155fe614a4d565b5b600061560d89828a01614b39565b965050602061561e89828a01614aa0565b955050604087013567ffffffffffffffff81111561563f5761563e614a52565b5b61564b89828a01614dc0565b945050606087013567ffffffffffffffff81111561566c5761566b614a52565b5b61567889828a01614dc0565b935050608061568989828a01614b39565b92505060a087013567ffffffffffffffff8111156156aa576156a9614a52565b5b6156b689828a01614dc0565b9150509295509295509295565b600080600080608085870312156156dd576156dc614a4d565b5b60006156eb87828801614b39565b94505060206156fc87828801614aa0565b935050604061570d87828801614b39565b925050606061571e87828801614aa0565b91505092959194509250565b600080fd5b600080fd5b6000610100828403121561574b5761574a61572a565b5b615756610100614d23565b9050600082013567ffffffffffffffff8111156157765761577561572f565b5b61578284828501614dc0565b600083015250602082013567ffffffffffffffff8111156157a6576157a561572f565b5b6157b284828501614dc0565b60208301525060406157c684828501614b39565b60408301525060606157da84828501614b39565b60608301525060806157ee84828501614b39565b60808301525060a082013567ffffffffffffffff8111156158125761581161572f565b5b61581e84828501614dc0565b60a08301525060c082013567ffffffffffffffff8111156158425761584161572f565b5b61584e84828501614dc0565b60c08301525060e061586284828501614aa0565b60e08301525092915050565b60006020828403121561588457615883614a4d565b5b600082013567ffffffffffffffff8111156158a2576158a1614a52565b5b6158ae84828501615734565b91505092915050565b600080600080600060a086880312156158d3576158d2614a4d565b5b600086013567ffffffffffffffff8111156158f1576158f0614a52565b5b6158fd88828901614dc0565b955050602061590e88828901614b39565b945050604061591f88828901614aa0565b935050606061593088828901614aa0565b925050608061594188828901614aa0565b9150509295509295909350565b7f4e487b7100000000000000000000000000000000000000000000000000000000600052602260045260246000fd5b6000600282049050600182168061599557607f821691505b6020821081036159a8576159a761594e565b5b50919050565b60008190508160005260206000209050919050565b60006020601f8301049050919050565b600082821b905092915050565b600060088302615a107fffffffffffffffffffffffffffffffffffffffffffffffffffffffffffffffff826159d3565b615a1a86836159d3565b95508019841693508086168417925050509392505050565b6000819050919050565b6000615a57615a52615a4d84614b18565b615a32565b614b18565b9050919050565b6000819050919050565b615a7183615a3c565b615a85615a7d82615a5e565b8484546159e0565b825550505050565b600090565b615a9a615a8d565b615aa5818484615a68565b505050565b5b81811015615ac957615abe600082615a92565b600181019050615aab565b5050565b601f821115615b0e57615adf816159ae565b615ae8846159c3565b81016020851015615af7578190505b615b0b615b03856159c3565b830182615aaa565b50505b505050565b600082821c905092915050565b6000615b3160001984600802615b13565b1980831691505092915050565b6000615b4a8383615b20565b9150826002028217905092915050565b615b6382614b9d565b67ffffffffffffffff811115615b7c57615b7b614cc3565b5b615b86825461597d565b615b91828285615acd565b600060209050601f831160018114615bc45760008415615bb2578287015190505b615bbc8582615b3e565b865550615c24565b601f198416615bd2866159ae565b60005b82811015615bfa57848901518255600182019150602085019450602081019050615bd5565b86831015615c175784890151615c13601f891682615b20565b8355505b6001600288020188555050505b505050505050565b7f4e487b7100000000000000000000000000000000000000000000000000000000600052603260045260246000fd5b7f4e487b7100000000000000000000000000000000000000000000000000000000600052601160045260246000fd5b6000615c9582614b18565b91507fffffffffffffffffffffffffffffffffffffffffffffffffffffffffffffffff8203615cc757615cc6615c5b565b5b600182019050919050565b7f5468652073656e646572206973206e6f7420656c696769626c6520746f20727560008201527f6e20746869732066756e6374696f6e0000000000000000000000000000000000602082015250565b6000615d2e602f83614ba8565b9150615d3982615cd2565b604082019050919050565b60006020820190508181036000830152615d5d81615d21565b9050919050565b7f696e76616c6964206c61626f7261746f72790000000000000000000000000000600082015250565b6000615d9a601283614ba8565b9150615da582615d64565b602082019050919050565b60006020820190508181036000830152615dc981615d8d565b9050919050565b7f416e616c79736520616c72656164792070616964000000000000000000000000600082015250565b6000615e06601483614ba8565b9150615e1182615dd0565b602082019050919050565b60006020820190508181036000830152615e3581615df9565b9050919050565b7f596f75277265206e6f7420616c6c6f77656420746f207365652070726573637260008201527f697074696f6e0000000000000000000000000000000000000000000000000000602082015250565b6000615e98602683614ba8565b9150615ea382615e3c565b604082019050919050565b60006020820190508181036000830152615ec781615e8b565b9050919050565b7f696e76616c696420706861726d61637900000000000000000000000000000000600082015250565b6000615f04601083614ba8565b9150615f0f82615ece565b602082019050919050565b60006020820190508181036000830152615f3381615ef7565b9050919050565b7f507265736372697074696f6e20616c7265616479207061696400000000000000600082015250565b6000615f70601983614ba8565b9150615f7b82615f3a565b602082019050919050565b60006020820190508181036000830152615f9f81615f63565b905091905056fea2646970667358221220a4187787228e777a0e730e21a6aef7511f7206f0ceb947b30cda8c3c55c4d16a64736f6c63430008120033",
  "immutableReferences": {},
  "source": "// SPDX-License-Identifier: GPL-3.0\r\npragma solidity >=0.7.0 <0.9.0;\r\n\r\ncontract Diagnostic {\r\n\r\n    struct Patient  {\r\n        string name;\r\n        string bloodtype;\r\n        uint weight;\r\n        uint height;\r\n        uint age;\r\n        string Birth_date; \r\n        string Gender; \r\n        address patient_add;\r\n    }\r\n    struct PatientContact {\r\n        string email;\r\n        string phone;\r\n        string Name_Emergency;\r\n        string Phone_Emergency;\r\n        string Relationship;\r\n    }\r\n    struct Analyse {\r\n        uint id; //auto incriment\r\n        string name;\r\n        address patient;\r\n        address doctor;\r\n        string resultat;\r\n        uint price;\r\n        bool paid;\r\n    }\r\n\r\n    struct Record { // auto incriment\r\n        uint id;\r\n        //address p;\r\n        uint[] test_id;\r\n        Prescription prescription;\r\n        string status;\r\n        uint diagnostic_time;\r\n        address doctor;\r\n    }\r\n\r\n    struct Prescription {\r\n        address p;\r\n        uint id_rec;\r\n        address doctor;\r\n        address pharmacie;\r\n        uint[] medecines_id;\r\n        uint price;\r\n        bool isPaid;\r\n        bool isDelivered;\r\n        address deliveryAddress;\r\n    }\r\n\r\n    struct Medecine {\r\n        uint id; //auto incriment \r\n        string name; \r\n        string dosage;\r\n        uint duration;\r\n        string instructions;\r\n    }\r\n    \r\n    mapping(address => Patient) public patient_information;\r\n    mapping(address => PatientContact) public patient_contact;\r\n    mapping(address => Prescription[]) public pharmacie_prescriptions;\r\n    mapping(address => Analyse[]) public patient_analyses;\r\n    mapping(address => Record[]) public patient_records;\r\n    mapping(address =>mapping(uint => Medecine[])) public patient_medecines;\r\n    mapping(address => bool) public patients;\r\n    mapping(address => bool) public doctors;\r\n    mapping(address => bool) public pharmacy;\r\n    mapping(address => bool) public laboratories;\r\n    mapping(address => Analyse[]) public laboratory_analyses;\r\n    address public manager;\r\n\r\n    constructor() {\r\n        manager = msg.sender;\r\n    }\r\n\r\n    modifier onlyManager() {\r\n        require(manager == msg.sender, \"The sender is not eligible to run this function\");\r\n        _;\r\n    }\r\n\r\n    \r\n\r\n    function assigningdoctor(address user) public onlyManager {\r\n        doctors[user] = true;\r\n    }\r\n\r\n    function assigninglaboratory(address user) public onlyManager {\r\n        laboratories[user] = true;\r\n    }\r\n\r\n    function assigningpharmacy(address user) public onlyManager {\r\n        pharmacy[user] = true;\r\n    }\r\n    \r\n    function addNewPatientInfo(Patient memory p ) public  {\r\n        patients[p.patient_add] = true;\r\n        patient_information[p.patient_add]=p;\r\n    }\r\n    function addPatientContact(address _patient_add, string memory _email, string memory _phone, string memory _Name_Emergency,string memory _Phone_Emergency,string memory _Relationship) public  {\r\n        PatientContact memory pc;\r\n        pc.email=_email;\r\n        pc.phone=_phone;\r\n        pc.Name_Emergency=_Name_Emergency;\r\n        pc.Phone_Emergency=_Phone_Emergency;\r\n        pc.Relationship=_Relationship;\r\n        patient_contact[_patient_add]=pc;\r\n    }\r\n\r\n    function addPatientRecord (address _patient_add, address doc  ) public {\r\n         patient_records[_patient_add].push(Record({\r\n        id: patient_records[_patient_add].length,\r\n        \r\n        test_id: new uint[](0),\r\n        prescription:Prescription({\r\n        p: _patient_add,\r\n        id_rec:patient_records[_patient_add].length,    \r\n        doctor:doc,\r\n        pharmacie: address(0),\r\n        medecines_id:new uint[](0),\r\n        price :0,\r\n        isPaid:false,\r\n        isDelivered:false,\r\n        deliveryAddress: address(0)\r\n\r\n        }) ,\r\n        status: \"\",\r\n        diagnostic_time: block.timestamp,\r\n        doctor: doc\r\n        }));\r\n        \r\n    }\r\n    function ask_for_analyse( string memory analyse_name,uint id_record, address p, address lab, address doc) public {\r\n         \r\n         Analyse memory a = Analyse({\r\n             id: patient_analyses[p].length,\r\n             name: analyse_name,\r\n             patient: p,\r\n             doctor: doc,\r\n             resultat: \"\",\r\n             price: 0,\r\n             paid: false\r\n         });\r\n        require(laboratories[lab],\"invalid laboratory\"); \r\n        laboratory_analyses[lab].push(a);\r\n        /*uint[] memory test_id_new = new uint[](patient_records[p][id_record].test_id.length + 1);\r\n        for (uint i = 0; i < patient_records[p][id_record].test_id.length; i++) {\r\n              test_id_new[i] = patient_records[p][id_record].test_id[i];\r\n                  }*/\r\n        //test_id_new[test_id_new.length - 1] = id_record; //patientanalyses[p].length\r\n        patient_records[p][id_record].test_id.push(patient_analyses[p].length); //= test_id_new;\r\n    }\r\n   \r\n    function Add_Analyse_result(address p, uint id_analyse, string memory result, uint price, address lab) public {\r\n       Analyse[] memory analyses_recived =  laboratory_analyses[lab];\r\n       for(uint i = 0; i<analyses_recived.length; i++){\r\n           if(analyses_recived[i].patient==p && analyses_recived[i].id ==id_analyse )\r\n           {\r\n               analyses_recived[i].resultat=result;\r\n               analyses_recived[i].price=price;\r\n               laboratory_analyses[lab][i]=analyses_recived[i];\r\n               break;\r\n           }\r\n       }\r\n    }\r\n    \r\n   /* function View_analyse_doctor (address p, uint id) public view onlydoctor returns(Analyse memory) {\r\n        Analyse memory a;\r\n        Analyse[] memory analyses_done = patient_analyses[p];\r\n        for(uint i = 0; i<analyses_done.length; i++){\r\n           if(  analyses_done[i].id ==id )\r\n           {\r\n               return analyses_done[i];\r\n           }\r\n        }\r\n        return a;\r\n    }\r\n    function view_analyse_patient ( uint id) public view onlypatient returns(Analyse memory) {\r\n        Analyse memory a;\r\n        Analyse[] memory analyses_done = patient_analyses[msg.sender];\r\n       for(uint i = 0; i<analyses_done.length; i++){\r\n           if(  analyses_done[i].id ==id )\r\n           {\r\n               return analyses_done[i];\r\n           }\r\n        }\r\n        return a;\r\n    }*/\r\n\r\n    function pay_analyse (uint id,address payable lab, address patient ) public  payable{\r\n        require(laboratories[address(lab)],\"invalid laboratory\"); \r\n        Analyse memory a ;\r\n        uint index;\r\n        Analyse[] memory analyses_done = laboratory_analyses[lab];\r\n        for(uint i = 0; i<analyses_done.length; i++){\r\n           if(  analyses_done[i].patient ==patient && analyses_done[i].id ==id )\r\n           {\r\n               a= analyses_done[i];\r\n               index=i;\r\n           }\r\n        }\r\n         require(!a.paid,\"Analyse already paid\");\r\n         require(address(this).balance >= a.price);\r\n         require(msg.value >= a.price);\r\n         lab.transfer(a.price);\r\n         a.paid=true;\r\n         laboratory_analyses[lab][index]=a;\r\n    }\r\n    function send_analyse_to_patinet (uint id_analyse, address patient, address lab) public {\r\n        Analyse[] memory analyses_recived =  laboratory_analyses[lab];\r\n        for(uint i = 0; i<analyses_recived.length; i++){\r\n           if(analyses_recived[i].patient==patient && analyses_recived[i].id ==id_analyse && analyses_recived[i].paid)\r\n           {   patient_analyses[patient].push(analyses_recived[i]);\r\n               break;\r\n           }\r\n       }\r\n    }\r\n\r\n    //Pharmacie Patient Doctor\r\n    function add_medecine(uint id_rec ,address patient, string memory name, string memory dosage, uint duration, string memory inst  )public {\r\n        patient_records[patient][id_rec].prescription.medecines_id.push(patient_medecines[patient][id_rec].length);\r\n        patient_medecines[patient][id_rec].push(Medecine(patient_medecines[patient][id_rec].length,name,dosage,duration,inst));\r\n    }\r\n    function approve_pharmacy(address pharmacie,uint id_rec, address patient) public {\r\n        patient_records[patient][id_rec].prescription.pharmacie=pharmacie;\r\n        pharmacie_prescriptions[pharmacie].push(patient_records[patient][id_rec].prescription);\r\n        \r\n    }\r\n    /*function read_medecine(address patient,uint id_rec)public view onlypharmacy returns(Medecine[] memory){\r\n        return patient_medecines[patient][id_rec];\r\n    }*/\r\n    function add_prescription_price(uint id,address patient,uint price, address pharmacie) public  { //id record\r\n        require(patient_records[patient][id].prescription.pharmacie==pharmacie,\"You're not allowed to see prescription\");\r\n              patient_records[patient][id].prescription.price=price;\r\n              for(uint i=0; i<pharmacie_prescriptions[pharmacie].length; i++){\r\n            if(pharmacie_prescriptions[pharmacie][i].id_rec==id && pharmacie_prescriptions[pharmacie][i].p==patient){\r\n                pharmacie_prescriptions[pharmacie][i].price=price;\r\n                \r\n                break;\r\n            }\r\n        }\r\n        }\r\n    \r\n    function pay_prescription (uint id,address payable phar, address p ) public  payable {\r\n        require(patient_records[p][id].prescription.pharmacie==phar,\"invalid pharmacy\"); \r\n        require(!patient_records[p][id].prescription.isPaid,\"Prescription already paid\");\r\n        require(address(this).balance >= patient_records[p][id].prescription.price);\r\n        require(msg.value >= patient_records[p][id].prescription.price);\r\n        phar.transfer(patient_records[p][id].prescription.price);\r\n        patient_records[p][id].prescription.isPaid=true;\r\n        for(uint i=0; i<pharmacie_prescriptions[phar].length; i++){\r\n            if(pharmacie_prescriptions[phar][i].id_rec==patient_records[p][id].prescription.id_rec && pharmacie_prescriptions[phar][i].p==p){\r\n                pharmacie_prescriptions[phar][i].isPaid=true;\r\n                break;\r\n            }\r\n        }\r\n    }\r\n    function setDeliveryAddress(uint id_rec, address patient, address deliveryAddress, address pharmacie) public  {\r\n    patient_records[patient][id_rec].prescription.deliveryAddress= deliveryAddress;\r\n    for(uint i=0; i<pharmacie_prescriptions[pharmacie].length; i++){\r\n            if(pharmacie_prescriptions[pharmacie][i].id_rec==patient_records[patient][id_rec].prescription.id_rec && pharmacie_prescriptions[pharmacie][i].p==patient){\r\n                pharmacie_prescriptions[pharmacie][i].deliveryAddress= deliveryAddress;\r\n                break;\r\n            }\r\n        }\r\n    }\r\n    function deliverMedicines(uint id_rec,address patient,address pharmacie) public  {\r\n    patient_records[patient][id_rec].prescription.isDelivered =true;\r\n    for(uint i=0; i<pharmacie_prescriptions[pharmacie].length; i++){\r\n            if(pharmacie_prescriptions[pharmacie][i].id_rec==patient_records[patient][id_rec].prescription.id_rec && pharmacie_prescriptions[pharmacie][i].p==patient){\r\n                pharmacie_prescriptions[pharmacie][i].isDelivered =true;\r\n                break;\r\n            }\r\n        }\r\n}\r\n}",
  "sourcePath": "E:\\workspace\\medical\\web3\\contracts\\Diagnostic.sol",
  "compiler": {
    "name": "solc",
    "version": "0.8.18+commit.87f61d96.Emscripten.clang"
  },
  "schemaVersion": "3.4.11",
  "updatedAt": "2023-05-28T17:39:08.562Z",
  "networkType": "ethereum",
  "devdoc": {
    "kind": "dev",
    "methods": {},
    "version": 1
  },
  "userdoc": {
    "kind": "user",
    "methods": {},
    "version": 1
  }
}