{
  "contractName": "OrganDoanation",
  "abi": [
    {
      "inputs": [],
      "stateMutability": "nonpayable",
      "type": "constructor"
    },
    {
      "anonymous": false,
      "inputs": [
        {
          "indexed": false,
          "internalType": "address",
          "name": "ProcurementOrganizer",
          "type": "address"
        },
        {
          "indexed": false,
          "internalType": "uint256",
          "name": "Donor_ID",
          "type": "uint256"
        },
        {
          "indexed": false,
          "internalType": "enum OrganDoanation.OrganType",
          "name": "_OrganType_",
          "type": "uint8"
        }
      ],
      "name": "DonatedHeartisAvailable",
      "type": "event"
    },
    {
      "anonymous": false,
      "inputs": [
        {
          "indexed": false,
          "internalType": "address",
          "name": "PatientDoctor",
          "type": "address"
        }
      ],
      "name": "MatchingProcessStarted",
      "type": "event"
    },
    {
      "anonymous": false,
      "inputs": [
        {
          "indexed": false,
          "internalType": "address",
          "name": "TransplantTeamMember",
          "type": "address"
        },
        {
          "indexed": false,
          "internalType": "uint256",
          "name": "Donor_ID",
          "type": "uint256"
        }
      ],
      "name": "MedicalTestApproval",
      "type": "event"
    },
    {
      "anonymous": false,
      "inputs": [
        {
          "indexed": false,
          "internalType": "address",
          "name": "ProcurementOrganizer",
          "type": "address"
        }
      ],
      "name": "NewMatchedOrgan",
      "type": "event"
    },
    {
      "anonymous": false,
      "inputs": [
        {
          "indexed": false,
          "internalType": "address",
          "name": "PatientDoctor",
          "type": "address"
        },
        {
          "indexed": false,
          "internalType": "uint256",
          "name": "Patient_ID",
          "type": "uint256"
        },
        {
          "indexed": false,
          "internalType": "uint256",
          "name": "Patient_Age",
          "type": "uint256"
        },
        {
          "indexed": false,
          "internalType": "uint256",
          "name": "Patient_BMI",
          "type": "uint256"
        },
        {
          "indexed": false,
          "internalType": "enum OrganDoanation.Bloodtype",
          "name": "Bloodtype_",
          "type": "uint8"
        },
        {
          "indexed": false,
          "internalType": "enum OrganDoanation.OrganType",
          "name": "_OrganType_",
          "type": "uint8"
        }
      ],
      "name": "NewPatient_AddedOnTheWaitingList",
      "type": "event"
    },
    {
      "inputs": [
        {
          "internalType": "uint256",
          "name": "",
          "type": "uint256"
        }
      ],
      "name": "BMI",
      "outputs": [
        {
          "internalType": "uint256",
          "name": "",
          "type": "uint256"
        }
      ],
      "stateMutability": "view",
      "type": "function",
      "constant": true
    },
    {
      "inputs": [
        {
          "internalType": "uint256",
          "name": "",
          "type": "uint256"
        }
      ],
      "name": "Blood_type",
      "outputs": [
        {
          "internalType": "uint256",
          "name": "",
          "type": "uint256"
        }
      ],
      "stateMutability": "view",
      "type": "function",
      "constant": true
    },
    {
      "inputs": [],
      "name": "Bloodtype_",
      "outputs": [
        {
          "internalType": "enum OrganDoanation.Bloodtype",
          "name": "",
          "type": "uint8"
        }
      ],
      "stateMutability": "view",
      "type": "function",
      "constant": true
    },
    {
      "inputs": [],
      "name": "Donor_BloodType",
      "outputs": [
        {
          "internalType": "uint256",
          "name": "",
          "type": "uint256"
        }
      ],
      "stateMutability": "view",
      "type": "function",
      "constant": true
    },
    {
      "inputs": [],
      "name": "Donor_ID",
      "outputs": [
        {
          "internalType": "uint256",
          "name": "",
          "type": "uint256"
        }
      ],
      "stateMutability": "view",
      "type": "function",
      "constant": true
    },
    {
      "inputs": [],
      "name": "Donor_MaxBMI",
      "outputs": [
        {
          "internalType": "uint256",
          "name": "",
          "type": "uint256"
        }
      ],
      "stateMutability": "view",
      "type": "function",
      "constant": true
    },
    {
      "inputs": [],
      "name": "Donor_MinBMI",
      "outputs": [
        {
          "internalType": "uint256",
          "name": "",
          "type": "uint256"
        }
      ],
      "stateMutability": "view",
      "type": "function",
      "constant": true
    },
    {
      "inputs": [],
      "name": "Donor_OrganType",
      "outputs": [
        {
          "internalType": "uint256",
          "name": "",
          "type": "uint256"
        }
      ],
      "stateMutability": "view",
      "type": "function",
      "constant": true
    },
    {
      "inputs": [
        {
          "internalType": "uint256",
          "name": "",
          "type": "uint256"
        }
      ],
      "name": "Matched",
      "outputs": [
        {
          "internalType": "uint256",
          "name": "",
          "type": "uint256"
        }
      ],
      "stateMutability": "view",
      "type": "function",
      "constant": true
    },
    {
      "inputs": [],
      "name": "Max_Age",
      "outputs": [
        {
          "internalType": "uint256",
          "name": "",
          "type": "uint256"
        }
      ],
      "stateMutability": "view",
      "type": "function",
      "constant": true
    },
    {
      "inputs": [],
      "name": "Min_Age",
      "outputs": [
        {
          "internalType": "uint256",
          "name": "",
          "type": "uint256"
        }
      ],
      "stateMutability": "view",
      "type": "function",
      "constant": true
    },
    {
      "inputs": [
        {
          "internalType": "uint256",
          "name": "",
          "type": "uint256"
        }
      ],
      "name": "NeededOrganType",
      "outputs": [
        {
          "internalType": "uint256",
          "name": "",
          "type": "uint256"
        }
      ],
      "stateMutability": "view",
      "type": "function",
      "constant": true
    },
    {
      "inputs": [],
      "name": "OrganMatchingOrganizer",
      "outputs": [
        {
          "internalType": "address",
          "name": "",
          "type": "address"
        }
      ],
      "stateMutability": "view",
      "type": "function",
      "constant": true
    },
    {
      "inputs": [
        {
          "internalType": "address",
          "name": "",
          "type": "address"
        }
      ],
      "name": "PatientDoctor",
      "outputs": [
        {
          "internalType": "bool",
          "name": "",
          "type": "bool"
        }
      ],
      "stateMutability": "view",
      "type": "function",
      "constant": true
    },
    {
      "inputs": [
        {
          "internalType": "uint256",
          "name": "",
          "type": "uint256"
        }
      ],
      "name": "PatientValidity",
      "outputs": [
        {
          "internalType": "bool",
          "name": "",
          "type": "bool"
        }
      ],
      "stateMutability": "view",
      "type": "function",
      "constant": true
    },
    {
      "inputs": [],
      "name": "Patient_Age",
      "outputs": [
        {
          "internalType": "uint256",
          "name": "",
          "type": "uint256"
        }
      ],
      "stateMutability": "view",
      "type": "function",
      "constant": true
    },
    {
      "inputs": [],
      "name": "Patient_BMI",
      "outputs": [
        {
          "internalType": "uint256",
          "name": "",
          "type": "uint256"
        }
      ],
      "stateMutability": "view",
      "type": "function",
      "constant": true
    },
    {
      "inputs": [],
      "name": "Patient_ID",
      "outputs": [
        {
          "internalType": "uint256",
          "name": "",
          "type": "uint256"
        }
      ],
      "stateMutability": "view",
      "type": "function",
      "constant": true
    },
    {
      "inputs": [
        {
          "internalType": "uint256",
          "name": "",
          "type": "uint256"
        }
      ],
      "name": "PatientsID",
      "outputs": [
        {
          "internalType": "uint256",
          "name": "",
          "type": "uint256"
        }
      ],
      "stateMutability": "view",
      "type": "function",
      "constant": true
    },
    {
      "inputs": [
        {
          "internalType": "uint256",
          "name": "",
          "type": "uint256"
        }
      ],
      "name": "Patients_age",
      "outputs": [
        {
          "internalType": "uint256",
          "name": "",
          "type": "uint256"
        }
      ],
      "stateMutability": "view",
      "type": "function",
      "constant": true
    },
    {
      "inputs": [],
      "name": "ProcurementOrganizer",
      "outputs": [
        {
          "internalType": "address",
          "name": "",
          "type": "address"
        }
      ],
      "stateMutability": "view",
      "type": "function",
      "constant": true
    },
    {
      "inputs": [
        {
          "internalType": "address",
          "name": "",
          "type": "address"
        }
      ],
      "name": "TransplantTeamMember",
      "outputs": [
        {
          "internalType": "bool",
          "name": "",
          "type": "bool"
        }
      ],
      "stateMutability": "view",
      "type": "function",
      "constant": true
    },
    {
      "inputs": [],
      "name": "_OrganType_",
      "outputs": [
        {
          "internalType": "enum OrganDoanation.OrganType",
          "name": "",
          "type": "uint8"
        }
      ],
      "stateMutability": "view",
      "type": "function",
      "constant": true
    },
    {
      "inputs": [],
      "name": "startTime",
      "outputs": [
        {
          "internalType": "uint256",
          "name": "",
          "type": "uint256"
        }
      ],
      "stateMutability": "view",
      "type": "function",
      "constant": true
    },
    {
      "inputs": [
        {
          "internalType": "address",
          "name": "user",
          "type": "address"
        }
      ],
      "name": "AssigningPatientDoctors",
      "outputs": [],
      "stateMutability": "nonpayable",
      "type": "function"
    },
    {
      "inputs": [
        {
          "internalType": "address",
          "name": "user",
          "type": "address"
        }
      ],
      "name": "getPatientDoctorTest",
      "outputs": [
        {
          "internalType": "bool",
          "name": "",
          "type": "bool"
        }
      ],
      "stateMutability": "view",
      "type": "function",
      "constant": true
    },
    {
      "inputs": [
        {
          "internalType": "address",
          "name": "user",
          "type": "address"
        }
      ],
      "name": "AssigningTransplantTeamMember",
      "outputs": [],
      "stateMutability": "nonpayable",
      "type": "function"
    },
    {
      "inputs": [
        {
          "internalType": "address",
          "name": "user",
          "type": "address"
        }
      ],
      "name": "getTransplantTeamMemberTest",
      "outputs": [
        {
          "internalType": "bool",
          "name": "",
          "type": "bool"
        }
      ],
      "stateMutability": "view",
      "type": "function",
      "constant": true
    },
    {
      "inputs": [
        {
          "internalType": "uint256",
          "name": "ID",
          "type": "uint256"
        },
        {
          "internalType": "uint256",
          "name": "_age",
          "type": "uint256"
        },
        {
          "internalType": "uint256",
          "name": "_BMI",
          "type": "uint256"
        },
        {
          "internalType": "uint256",
          "name": "_BloodType",
          "type": "uint256"
        },
        {
          "internalType": "uint256",
          "name": "_OrganType",
          "type": "uint256"
        }
      ],
      "name": "AddingNewPatient",
      "outputs": [],
      "stateMutability": "nonpayable",
      "type": "function"
    },
    {
      "inputs": [
        {
          "internalType": "uint256",
          "name": "DonorID",
          "type": "uint256"
        }
      ],
      "name": "TestApproval",
      "outputs": [],
      "stateMutability": "nonpayable",
      "type": "function"
    },
    {
      "inputs": [
        {
          "internalType": "uint256",
          "name": "DonorID",
          "type": "uint256"
        },
        {
          "internalType": "enum OrganDoanation.OrganType",
          "name": "_OrganType",
          "type": "uint8"
        }
      ],
      "name": "RegisteringNewDonor",
      "outputs": [],
      "stateMutability": "nonpayable",
      "type": "function"
    },
    {
      "inputs": [
        {
          "internalType": "uint256",
          "name": "_MinAge",
          "type": "uint256"
        },
        {
          "internalType": "uint256",
          "name": "_MaxAge",
          "type": "uint256"
        },
        {
          "internalType": "uint256",
          "name": "_BloodType",
          "type": "uint256"
        },
        {
          "internalType": "uint256",
          "name": "_MinBMI",
          "type": "uint256"
        },
        {
          "internalType": "uint256",
          "name": "_MaxBMI",
          "type": "uint256"
        },
        {
          "internalType": "uint256",
          "name": "_OrganType",
          "type": "uint256"
        }
      ],
      "name": "MatchingProcess",
      "outputs": [],
      "stateMutability": "nonpayable",
      "type": "function"
    }
  ],
  "bytecode": "0x60806040523480156200001157600080fd5b50336000806101000a81548173ffffffffffffffffffffffffffffffffffffffff021916908373ffffffffffffffffffffffffffffffffffffffff160217905550738b0ed0582af7a86e90a7cd0f6e1228f03b6b9a72600160006101000a81548173ffffffffffffffffffffffffffffffffffffffff021916908373ffffffffffffffffffffffffffffffffffffffff160217905550426015819055507fedc032c60f34f13267c00b2a9ee1af2f81fb39d4023ea01191d96dc291c26a8b60008054906101000a900473ffffffffffffffffffffffffffffffffffffffff16604051620000ff919062000152565b60405180910390a16200016f565b600073ffffffffffffffffffffffffffffffffffffffff82169050919050565b60006200013a826200010d565b9050919050565b6200014c816200012d565b82525050565b600060208201905062000169600083018462000141565b92915050565b611a99806200017f6000396000f3fe608060405234801561001057600080fd5b50600436106101f05760003560e01c8063846d85c61161010f578063cc311eb6116100a2578063d950c7cc11610071578063d950c7cc146105e7578063e59568cd14610605578063eac5784314610621578063f5479c441461063f576101f0565b8063cc311eb614610571578063d45a7a041461058f578063d79ebcd6146105ab578063d8f0837b146105c9576101f0565b8063964df0ff116100de578063964df0ff146104d757806399c53c0e14610507578063a99531d514610537578063aef9318714610555576101f0565b8063846d85c61461046157806387594c6f1461047f57806389729a9e1461049d57806391a40602146104bb576101f0565b806337119f641161018757806362b70fed1161015657806362b70fed146103d7578063651342ef146103f55780636cb2055e1461042557806378e9792514610443576101f0565b806337119f64146103175780633e814e39146103475780634636ef6b146103775780635622e566146103a7576101f0565b80632052b20a116101c35780632052b20a1461028f5780632b384cc9146102ab5780632cb26d38146102db5780633589eaf5146102f9576101f0565b806306cdd146146101f55780630e12839e146102255780631ca4c358146102415780631dec3ca314610271575b600080fd5b61020f600480360381019061020a9190611391565b61066f565b60405161021c91906113cd565b60405180910390f35b61023f600480360381019061023a9190611391565b610693565b005b61025b60048036038101906102569190611446565b610764565b604051610268919061148e565b60405180910390f35b610279610784565b60405161028691906113cd565b60405180910390f35b6102a960048036038101906102a491906114a9565b61078a565b005b6102c560048036038101906102c09190611391565b610ab9565b6040516102d291906113cd565b60405180910390f35b6102e3610add565b6040516102f091906113cd565b60405180910390f35b610301610ae3565b60405161030e91906113cd565b60405180910390f35b610331600480360381019061032c9190611391565b610ae9565b60405161033e91906113cd565b60405180910390f35b610361600480360381019061035c9190611446565b610b0d565b60405161036e919061148e565b60405180910390f35b610391600480360381019061038c9190611391565b610b2d565b60405161039e91906113cd565b60405180910390f35b6103c160048036038101906103bc9190611391565b610b51565b6040516103ce919061148e565b60405180910390f35b6103df610b71565b6040516103ec91906115ad565b60405180910390f35b61040f600480360381019061040a9190611446565b610b84565b60405161041c919061148e565b60405180910390f35b61042d610c66565b60405161043a9190611610565b60405180910390f35b61044b610c79565b60405161045891906113cd565b60405180910390f35b610469610c7f565b60405161047691906113cd565b60405180910390f35b610487610c85565b60405161049491906113cd565b60405180910390f35b6104a5610c8b565b6040516104b291906113cd565b60405180910390f35b6104d560048036038101906104d0919061162b565b610c91565b005b6104f160048036038101906104ec9190611391565b610ee9565b6040516104fe91906113cd565b60405180910390f35b610521600480360381019061051c9190611446565b610f0d565b60405161052e919061148e565b60405180910390f35b61053f610fef565b60405161054c91906113cd565b60405180910390f35b61056f600480360381019061056a9190611446565b610ff5565b005b6105796110de565b60405161058691906113cd565b60405180910390f35b6105a960048036038101906105a49190611446565b6110e4565b005b6105b36111cd565b6040516105c091906113cd565b60405180910390f35b6105d16111d3565b6040516105de91906113cd565b60405180910390f35b6105ef6111d9565b6040516105fc91906116b5565b60405180910390f35b61061f600480360381019061061a91906116f5565b6111fd565b005b61062961130c565b60405161063691906116b5565b60405180910390f35b61065960048036038101906106549190611391565b611332565b60405161066691906113cd565b60405180910390f35b6014818154811061067f57600080fd5b906000526020600020016000915090505481565b600260003373ffffffffffffffffffffffffffffffffffffffff1673ffffffffffffffffffffffffffffffffffffffff16815260200190815260200160002060009054906101000a900460ff1661071f576040517f08c379a0000000000000000000000000000000000000000000000000000000008152600401610716906117b8565b60405180910390fd5b806004819055507fa07aea95ed450317d3530ce5fe43525fa15f13755159ab4322f740cc556d1cb1336004546040516107599291906117d8565b60405180910390a150565b60036020528060005260406000206000915054906101000a900460ff1681565b60065481565b3373ffffffffffffffffffffffffffffffffffffffff16600160009054906101000a900473ffffffffffffffffffffffffffffffffffffffff1673ffffffffffffffffffffffffffffffffffffffff161461081a576040517f08c379a0000000000000000000000000000000000000000000000000000000008152600401610811906117b8565b60405180910390fd5b856007819055508460088190555083600581905550806006819055508260098190555081600a8190555060005b601080549050811015610a795760001515600e6000601084815481106108705761086f611801565b5b9060005260206000200154815260200190815260200160002060009054906101000a900460ff161515146108d9576040517f08c379a00000000000000000000000000000000000000000000000000000000081526004016108d0906118a2565b60405180910390fd5b81600f82815481106108ee576108ed611801565b5b906000526020600020015414801561092557506007546011828154811061091857610917611801565b5b9060005260206000200154115b801561095057506008546011828154811061094357610942611801565b5b9060005260206000200154105b80156109795750846012828154811061096c5761096b611801565b5b9060005260206000200154145b80156109a457506009546013828154811061099757610996611801565b5b9060005260206000200154115b80156109cf5750600a54601382815481106109c2576109c1611801565b5b9060005260206000200154105b15610a66576014601082815481106109ea576109e9611801565b5b906000526020600020015490806001815401808255809150506001900390600052602060002001600090919091909150556001600e600060108481548110610a3557610a34611801565b5b9060005260206000200154815260200190815260200160002060006101000a81548160ff0219169083151502179055505b8080610a71906118f1565b915050610847565b507fe26782269f3811e4f8e5ba21782bd088e7b8115520af0111aef48f24312ddb4d33604051610aa991906116b5565b60405180910390a1505050505050565b60128181548110610ac957600080fd5b906000526020600020016000915090505481565b60095481565b600d5481565b600f8181548110610af957600080fd5b906000526020600020016000915090505481565b60026020528060005260406000206000915054906101000a900460ff1681565b60138181548110610b3d57600080fd5b906000526020600020016000915090505481565b600e6020528060005260406000206000915054906101000a900460ff1681565b601660009054906101000a900460ff1681565b6000600360008373ffffffffffffffffffffffffffffffffffffffff1673ffffffffffffffffffffffffffffffffffffffff16815260200190815260200160002060009054906101000a900460ff16610c12576040517f08c379a0000000000000000000000000000000000000000000000000000000008152600401610c09906119ab565b60405180910390fd5b600360008373ffffffffffffffffffffffffffffffffffffffff1673ffffffffffffffffffffffffffffffffffffffff16815260200190815260200160002060009054906101000a900460ff169050919050565b601660019054906101000a900460ff1681565b60155481565b60085481565b60045481565b60055481565b600360003373ffffffffffffffffffffffffffffffffffffffff1673ffffffffffffffffffffffffffffffffffffffff16815260200190815260200160002060009054906101000a900460ff16610d1d576040517f08c379a0000000000000000000000000000000000000000000000000000000008152600401610d14906117b8565b60405180910390fd5b84600b8190555083600c8190555082600d81905550816003811115610d4557610d44611536565b5b601660006101000a81548160ff02191690836003811115610d6957610d68611536565b5b0217905550806003811115610d8157610d80611536565b5b601660016101000a81548160ff02191690836003811115610da557610da4611536565b5b02179055506010600b549080600181540180825580915050600190039060005260206000200160009091909190915055600f8190806001815401808255809150506001900390600052602060002001600090919091909150556011600c54908060018154018082558091505060019003906000526020600020016000909190919091505560128290806001815401808255809150506001900390600052602060002001600090919091909150556013600d5490806001815401808255809150506001900390600052602060002001600090919091909150557f914a4e81d757aa34e292d6b1723c5646811e6d5f04484265aed7de7596f0a2d633600b54600c54600d54601660009054906101000a900460ff16601660019054906101000a900460ff16604051610eda969594939291906119cb565b60405180910390a15050505050565b60108181548110610ef957600080fd5b906000526020600020016000915090505481565b6000600260008373ffffffffffffffffffffffffffffffffffffffff1673ffffffffffffffffffffffffffffffffffffffff16815260200190815260200160002060009054906101000a900460ff16610f9b576040517f08c379a0000000000000000000000000000000000000000000000000000000008152600401610f92906119ab565b60405180910390fd5b600260008373ffffffffffffffffffffffffffffffffffffffff1673ffffffffffffffffffffffffffffffffffffffff16815260200190815260200160002060009054906101000a900460ff169050919050565b600a5481565b3373ffffffffffffffffffffffffffffffffffffffff1660008054906101000a900473ffffffffffffffffffffffffffffffffffffffff1673ffffffffffffffffffffffffffffffffffffffff1614611083576040517f08c379a000000000000000000000000000000000000000000000000000000000815260040161107a906117b8565b60405180910390fd5b6001600360008373ffffffffffffffffffffffffffffffffffffffff1673ffffffffffffffffffffffffffffffffffffffff16815260200190815260200160002060006101000a81548160ff02191690831515021790555050565b600c5481565b3373ffffffffffffffffffffffffffffffffffffffff1660008054906101000a900473ffffffffffffffffffffffffffffffffffffffff1673ffffffffffffffffffffffffffffffffffffffff1614611172576040517f08c379a0000000000000000000000000000000000000000000000000000000008152600401611169906117b8565b60405180910390fd5b6001600260008373ffffffffffffffffffffffffffffffffffffffff1673ffffffffffffffffffffffffffffffffffffffff16815260200190815260200160002060006101000a81548160ff02191690831515021790555050565b60075481565b600b5481565b60008054906101000a900473ffffffffffffffffffffffffffffffffffffffff1681565b3373ffffffffffffffffffffffffffffffffffffffff1660008054906101000a900473ffffffffffffffffffffffffffffffffffffffff1673ffffffffffffffffffffffffffffffffffffffff161461128b576040517f08c379a0000000000000000000000000000000000000000000000000000000008152600401611282906117b8565b60405180910390fd5b8160048190555080601660016101000a81548160ff021916908360038111156112b7576112b6611536565b5b02179055507fc092f36603dca9dd1ed0358e7d900630b04054d59efdf774a34a3fa48e9cdeb833600454601660019054906101000a900460ff1660405161130093929190611a2c565b60405180910390a15050565b600160009054906101000a900473ffffffffffffffffffffffffffffffffffffffff1681565b6011818154811061134257600080fd5b906000526020600020016000915090505481565b600080fd5b6000819050919050565b61136e8161135b565b811461137957600080fd5b50565b60008135905061138b81611365565b92915050565b6000602082840312156113a7576113a6611356565b5b60006113b58482850161137c565b91505092915050565b6113c78161135b565b82525050565b60006020820190506113e260008301846113be565b92915050565b600073ffffffffffffffffffffffffffffffffffffffff82169050919050565b6000611413826113e8565b9050919050565b61142381611408565b811461142e57600080fd5b50565b6000813590506114408161141a565b92915050565b60006020828403121561145c5761145b611356565b5b600061146a84828501611431565b91505092915050565b60008115159050919050565b61148881611473565b82525050565b60006020820190506114a3600083018461147f565b92915050565b60008060008060008060c087890312156114c6576114c5611356565b5b60006114d489828a0161137c565b96505060206114e589828a0161137c565b95505060406114f689828a0161137c565b945050606061150789828a0161137c565b935050608061151889828a0161137c565b92505060a061152989828a0161137c565b9150509295509295509295565b7f4e487b7100000000000000000000000000000000000000000000000000000000600052602160045260246000fd5b6004811061157657611575611536565b5b50565b600081905061158782611565565b919050565b600061159782611579565b9050919050565b6115a78161158c565b82525050565b60006020820190506115c2600083018461159e565b92915050565b600481106115d9576115d8611536565b5b50565b60008190506115ea826115c8565b919050565b60006115fa826115dc565b9050919050565b61160a816115ef565b82525050565b60006020820190506116256000830184611601565b92915050565b600080600080600060a0868803121561164757611646611356565b5b60006116558882890161137c565b95505060206116668882890161137c565b94505060406116778882890161137c565b93505060606116888882890161137c565b92505060806116998882890161137c565b9150509295509295909350565b6116af81611408565b82525050565b60006020820190506116ca60008301846116a6565b92915050565b600481106116dd57600080fd5b50565b6000813590506116ef816116d0565b92915050565b6000806040838503121561170c5761170b611356565b5b600061171a8582860161137c565b925050602061172b858286016116e0565b9150509250929050565b600082825260208201905092915050565b7f5468652073656e646572206973206e6f7420656c696769626c6520746f20727560008201527f6e20746869732066756e6374696f6e0000000000000000000000000000000000602082015250565b60006117a2602f83611735565b91506117ad82611746565b604082019050919050565b600060208201905081810360008301526117d181611795565b9050919050565b60006040820190506117ed60008301856116a6565b6117fa60208301846113be565b9392505050565b7f4e487b7100000000000000000000000000000000000000000000000000000000600052603260045260246000fd5b7f5468652070617469656e742068617320616c7265616479206265656e206d617460008201527f636865642077697468206120646f6e6f72000000000000000000000000000000602082015250565b600061188c603183611735565b915061189782611830565b604082019050919050565b600060208201905081810360008301526118bb8161187f565b9050919050565b7f4e487b7100000000000000000000000000000000000000000000000000000000600052601160045260246000fd5b60006118fc8261135b565b91507fffffffffffffffffffffffffffffffffffffffffffffffffffffffffffffffff820361192e5761192d6118c2565b5b600182019050919050565b7f7573657220646f6573206e6f7420657869737420696e20746865206d6170706960008201527f6e672e0000000000000000000000000000000000000000000000000000000000602082015250565b6000611995602383611735565b91506119a082611939565b604082019050919050565b600060208201905081810360008301526119c481611988565b9050919050565b600060c0820190506119e060008301896116a6565b6119ed60208301886113be565b6119fa60408301876113be565b611a0760608301866113be565b611a14608083018561159e565b611a2160a0830184611601565b979650505050505050565b6000606082019050611a4160008301866116a6565b611a4e60208301856113be565b611a5b6040830184611601565b94935050505056fea2646970667358221220dd7f6a1c2676e9ef4b6bd44ef86acca5c6a0ff3a90ae8a8b95584d7f1608265e64736f6c63430008120033",
  "immutableReferences": {},
  "source": "// SPDX-License-Identifier: GPL-3.0\r\npragma solidity >=0.7.0 <0.9.0;\r\ncontract OrganDoanation {\r\naddress public ProcurementOrganizer;\r\naddress public OrganMatchingOrganizer;\r\nmapping(address => bool) public TransplantTeamMember; // only authorized Hospital Transplant Team Members are allowed\r\nmapping(address => bool) public PatientDoctor; \r\nuint public Donor_ID;\r\nuint public Donor_BloodType;\r\nuint public Donor_OrganType;\r\nuint public Min_Age;\r\nuint public Max_Age;\r\nuint public Donor_MinBMI;\r\nuint public Donor_MaxBMI;\r\nuint public Patient_ID; // address Patient_EA; \r\nuint public Patient_Age;\r\nuint public Patient_BMI;\r\nmapping(uint => bool) public PatientValidity; //Used to ensure that patient selection is not repeated\r\nuint [] public NeededOrganType;\r\nuint [] public PatientsID;\r\nuint []  public Patients_age;\r\nuint [] public Blood_type;\r\nuint [] public BMI;\r\nuint [] public Matched; \r\nuint public startTime;\r\nenum Bloodtype {A, B, AB, O}\r\nBloodtype public Bloodtype_;\r\nenum OrganType {Heart, Lung, Liver, Kidney}\r\nOrganType public _OrganType_;\r\n\r\n// Events\r\nevent MatchingProcessStarted (address PatientDoctor);\r\nevent NewPatient_AddedOnTheWaitingList (address PatientDoctor, uint Patient_ID, uint Patient_Age, uint Patient_BMI, Bloodtype Bloodtype_ , OrganType _OrganType_); \r\nevent MedicalTestApproval (address TransplantTeamMember, uint Donor_ID); \r\nevent DonatedHeartisAvailable (address ProcurementOrganizer, uint Donor_ID, OrganType _OrganType_);\r\nevent NewMatchedOrgan (address ProcurementOrganizer);\r\n\r\nconstructor()  {\r\n    ProcurementOrganizer = msg.sender;\r\n    OrganMatchingOrganizer= 0x8B0ed0582Af7A86E90A7CD0F6e1228f03B6b9A72;\r\n    startTime = block.timestamp;\r\n    emit MatchingProcessStarted(ProcurementOrganizer);\r\n}\r\n\r\n\r\n//Defining Modifiers \r\nmodifier onlyPatientDoctor() {\r\n    require(PatientDoctor[msg.sender], \"The sender is not eligible to run this function\");\r\n    _;\r\n}\r\nmodifier onlyTransplantTeamMember() {\r\n    require(TransplantTeamMember[msg.sender], \"The sender is not eligible to run this function\");\r\n    _;\r\n}\r\nmodifier onlyProcurementOrganizer() {\r\n    require(ProcurementOrganizer == msg.sender, \"The sender is not eligible to run this function\");\r\n    _;\r\n}\r\nmodifier onlyOrganMatchingOrganizer() {\r\n    require(OrganMatchingOrganizer == msg.sender, \"The sender is not eligible to run this function\");\r\n    _;\r\n}\r\n// Hospital Transplant Team Members Authorization Function\r\n    function AssigningPatientDoctors (address user) public onlyProcurementOrganizer {\r\n        PatientDoctor[user]=true;\r\n    }\r\n    function getPatientDoctorTest (address user) public view returns(bool) {\r\n        require(PatientDoctor[user], \"user does not exist in the mapping.\");\r\n        return PatientDoctor[user];\r\n    }\r\n     function AssigningTransplantTeamMember (address user) public onlyProcurementOrganizer {\r\n        TransplantTeamMember [user]=true;\r\n    } \r\n    function getTransplantTeamMemberTest (address user) public view returns(bool) {\r\n        require(TransplantTeamMember[user], \"user does not exist in the mapping.\");\r\n        return TransplantTeamMember[user];\r\n    }\r\n\r\n\r\n    function AddingNewPatient(uint ID, uint _age, uint _BMI, uint _BloodType, uint _OrganType) public onlyPatientDoctor{\r\n    Patient_ID = ID;\r\n    Patient_Age = _age;\r\n    Patient_BMI= _BMI;\r\n    Bloodtype_ = Bloodtype(_BloodType);\r\n    _OrganType_ = OrganType(_OrganType);\r\n    PatientsID.push(Patient_ID);\r\n    NeededOrganType.push(_OrganType);\r\n    Patients_age.push(Patient_Age);    \r\n    Blood_type.push(_BloodType);\r\n    BMI.push(Patient_BMI);\r\n        emit NewPatient_AddedOnTheWaitingList(msg.sender, Patient_ID, Patient_Age, Patient_BMI, Bloodtype_ , _OrganType_);\r\n    \r\n    }\r\n    \r\n    function TestApproval(uint DonorID) public onlyTransplantTeamMember{\r\n        Donor_ID = DonorID;\r\n        emit MedicalTestApproval(msg.sender, Donor_ID); \r\n    }\r\n    function RegisteringNewDonor (uint DonorID, OrganType _OrganType ) public onlyProcurementOrganizer{\r\n        Donor_ID = DonorID;\r\n        _OrganType_ = OrganType(_OrganType);\r\n        emit DonatedHeartisAvailable(msg.sender, Donor_ID,  _OrganType_ );\r\n    }\r\n\r\n    function MatchingProcess (uint _MinAge, uint _MaxAge, uint _BloodType, uint _MinBMI, uint _MaxBMI, uint _OrganType) public onlyOrganMatchingOrganizer{\r\n        Min_Age = _MinAge;\r\n        Max_Age = _MaxAge;\r\n        Donor_BloodType = _BloodType;\r\n        Donor_OrganType = _OrganType;\r\n        Donor_MinBMI = _MinBMI;\r\n        Donor_MaxBMI = _MaxBMI;\r\n        \r\n         for (uint i = 0; i < PatientsID.length; i++ ) {\r\n             require(PatientValidity[PatientsID[i]]==false, \"The patient has already been matched with a donor\");\r\n            if ( \r\n            NeededOrganType[i] == _OrganType &&\r\n            Patients_age[i]> Min_Age &&\r\n            Patients_age[i] < Max_Age &&\r\n            Blood_type[i] == _BloodType &&\r\n            BMI[i]> Donor_MinBMI &&\r\n            BMI[i] < Donor_MaxBMI) \r\n            { \r\n              Matched.push(PatientsID[i]);\r\n              PatientValidity[PatientsID[i]]=true; \r\n            }\r\n         }\r\n    emit NewMatchedOrgan (msg.sender);          \r\n    }}",
  "sourcePath": "E:\\workspace\\medical\\web3\\contracts\\OrganDonation.sol",
  "compiler": {
    "name": "solc",
    "version": "0.8.18+commit.87f61d96.Emscripten.clang"
  },
  "schemaVersion": "3.4.11",
  "updatedAt": "2023-05-28T17:39:06.932Z",
  "networkType": "ethereum",
  "devdoc": {
    "kind": "dev",
    "methods": {},
    "version": 1
  },
  "userdoc": {
    "kind": "user",
    "methods": {},
    "version": 1
  }
}