{
  "contractName": "OrganTransplantation",
  "abi": [
    {
      "inputs": [],
      "stateMutability": "nonpayable",
      "type": "constructor"
    },
    {
      "anonymous": false,
      "inputs": [
        {
          "indexed": false,
          "internalType": "address",
          "name": "transporter",
          "type": "address"
        }
      ],
      "name": "DeliveryEnd",
      "type": "event"
    },
    {
      "anonymous": false,
      "inputs": [
        {
          "indexed": false,
          "internalType": "address",
          "name": "transporter",
          "type": "address"
        }
      ],
      "name": "DeliveryStart",
      "type": "event"
    },
    {
      "anonymous": false,
      "inputs": [
        {
          "indexed": false,
          "internalType": "address",
          "name": "DonorSurgeon",
          "type": "address"
        },
        {
          "indexed": false,
          "internalType": "uint256",
          "name": "Donor_ID",
          "type": "uint256"
        }
      ],
      "name": "DonatedHeartisRemoved",
      "type": "event"
    },
    {
      "anonymous": false,
      "inputs": [
        {
          "indexed": false,
          "internalType": "address",
          "name": "DonorSurgeon",
          "type": "address"
        },
        {
          "indexed": false,
          "internalType": "uint256",
          "name": "Donor_ID",
          "type": "uint256"
        }
      ],
      "name": "DonatedLiverisRemoved",
      "type": "event"
    },
    {
      "anonymous": false,
      "inputs": [
        {
          "indexed": true,
          "internalType": "address",
          "name": "TransplantSurgeon",
          "type": "address"
        }
      ],
      "name": "DonatedOrganisReceived",
      "type": "event"
    },
    {
      "anonymous": false,
      "inputs": [
        {
          "indexed": false,
          "internalType": "address",
          "name": "DonorSurgeon",
          "type": "address"
        },
        {
          "indexed": false,
          "internalType": "uint256",
          "name": "Donor_ID",
          "type": "uint256"
        }
      ],
      "name": "DonatedkidneyisRemoved",
      "type": "event"
    },
    {
      "anonymous": false,
      "inputs": [
        {
          "indexed": false,
          "internalType": "address",
          "name": "DonorSurgeon",
          "type": "address"
        },
        {
          "indexed": false,
          "internalType": "uint256",
          "name": "Donor_ID",
          "type": "uint256"
        }
      ],
      "name": "DonatedlungisRemoved",
      "type": "event"
    },
    {
      "anonymous": false,
      "inputs": [
        {
          "indexed": true,
          "internalType": "address",
          "name": "DonorSurgeon",
          "type": "address"
        }
      ],
      "name": "TransplantationProcessStarted",
      "type": "event"
    },
    {
      "anonymous": false,
      "inputs": [
        {
          "indexed": false,
          "internalType": "address",
          "name": "TransplantSurgeon",
          "type": "address"
        },
        {
          "indexed": false,
          "internalType": "uint256",
          "name": "PatientID",
          "type": "uint256"
        },
        {
          "indexed": false,
          "internalType": "uint256",
          "name": "TransplantationTime",
          "type": "uint256"
        },
        {
          "indexed": false,
          "internalType": "uint256",
          "name": "TransplantationDate",
          "type": "uint256"
        }
      ],
      "name": "Transplantationend",
      "type": "event"
    },
    {
      "inputs": [],
      "name": "DonatedOrganType",
      "outputs": [
        {
          "internalType": "enum OrganTransplantation.OrganType",
          "name": "",
          "type": "uint8"
        }
      ],
      "stateMutability": "view",
      "type": "function",
      "constant": true
    },
    {
      "inputs": [],
      "name": "DonorSurgeon",
      "outputs": [
        {
          "internalType": "address",
          "name": "",
          "type": "address"
        }
      ],
      "stateMutability": "view",
      "type": "function",
      "constant": true
    },
    {
      "inputs": [],
      "name": "Organstate",
      "outputs": [
        {
          "internalType": "enum OrganTransplantation.OrganStatus",
          "name": "",
          "type": "uint8"
        }
      ],
      "stateMutability": "view",
      "type": "function",
      "constant": true
    },
    {
      "inputs": [],
      "name": "TransplantSurgeon",
      "outputs": [
        {
          "internalType": "address",
          "name": "",
          "type": "address"
        }
      ],
      "stateMutability": "view",
      "type": "function",
      "constant": true
    },
    {
      "inputs": [
        {
          "internalType": "address",
          "name": "user",
          "type": "address"
        }
      ],
      "name": "assigningtransporter",
      "outputs": [],
      "stateMutability": "nonpayable",
      "type": "function"
    },
    {
      "inputs": [
        {
          "internalType": "address",
          "name": "user",
          "type": "address"
        }
      ],
      "name": "getTransporterTest",
      "outputs": [
        {
          "internalType": "bool",
          "name": "",
          "type": "bool"
        }
      ],
      "stateMutability": "view",
      "type": "function",
      "constant": true
    },
    {
      "inputs": [
        {
          "internalType": "uint256",
          "name": "donorID",
          "type": "uint256"
        },
        {
          "internalType": "enum OrganTransplantation.OrganType",
          "name": "_DonatedOrganType",
          "type": "uint8"
        },
        {
          "internalType": "uint256",
          "name": "date",
          "type": "uint256"
        },
        {
          "internalType": "uint256",
          "name": "time",
          "type": "uint256"
        }
      ],
      "name": "RemovingDonatedOrgan",
      "outputs": [],
      "stateMutability": "nonpayable",
      "type": "function"
    },
    {
      "inputs": [],
      "name": "StartDelivery",
      "outputs": [],
      "stateMutability": "nonpayable",
      "type": "function"
    },
    {
      "inputs": [],
      "name": "EndDelivery",
      "outputs": [],
      "stateMutability": "nonpayable",
      "type": "function"
    },
    {
      "inputs": [],
      "name": "ReceiveDonatedOrgan",
      "outputs": [],
      "stateMutability": "nonpayable",
      "type": "function"
    },
    {
      "inputs": [
        {
          "internalType": "uint256",
          "name": "ID",
          "type": "uint256"
        },
        {
          "internalType": "uint256",
          "name": "Date",
          "type": "uint256"
        },
        {
          "internalType": "uint256",
          "name": "Time",
          "type": "uint256"
        }
      ],
      "name": "Organ_Transplantation",
      "outputs": [],
      "stateMutability": "nonpayable",
      "type": "function"
    }
  ],
  "bytecode": "0x608060405234801561001057600080fd5b5033600160006101000a81548173ffffffffffffffffffffffffffffffffffffffff021916908373ffffffffffffffffffffffffffffffffffffffff16021790555073ff530a0e0e3c59c2b293479429aec1a6a2eec4866000806101000a81548173ffffffffffffffffffffffffffffffffffffffff021916908373ffffffffffffffffffffffffffffffffffffffff160217905550426004819055506000600360006101000a81548160ff021916908360058111156100d3576100d2610120565b5b02179055503373ffffffffffffffffffffffffffffffffffffffff167fca445a24f0b56bf76c7d707d2c943bd713480a45f981c6f6b061200bef132a3360405160405180910390a261014f565b7f4e487b7100000000000000000000000000000000000000000000000000000000600052602160045260246000fd5b6113448061015e6000396000f3fe608060405234801561001057600080fd5b50600436106100a95760003560e01c806377284eea1161007157806377284eea146101185780637e5b85af14610136578063898f1d411461015457806399a1151d14610170578063b0ca7fb11461018c578063c5200e81146101aa576100a9565b8063188b7468146100ae5780633202a999146100de5780635336d2b4146100e8578063669e9b9d146101045780636d7373831461010e575b600080fd5b6100c860048036038101906100c39190610c7d565b6101c8565b6040516100d59190610cc5565b60405180910390f35b6100e66102aa565b005b61010260048036038101906100fd9190610d16565b610420565b005b61010c61050d565b005b610116610673565b005b6101206107d8565b60405161012d9190610d78565b60405180910390f35b61013e6107fe565b60405161014b9190610d78565b60405180910390f35b61016e60048036038101906101699190610c7d565b610822565b005b61018a60048036038101906101859190610db8565b61090b565b005b610194610bf4565b6040516101a19190610e96565b60405180910390f35b6101b2610c07565b6040516101bf9190610ef9565b60405180910390f35b6000600260008373ffffffffffffffffffffffffffffffffffffffff1673ffffffffffffffffffffffffffffffffffffffff16815260200190815260200160002060009054906101000a900460ff16610256576040517f08c379a000000000000000000000000000000000000000000000000000000000815260040161024d90610f97565b60405180910390fd5b600260008373ffffffffffffffffffffffffffffffffffffffff1673ffffffffffffffffffffffffffffffffffffffff16815260200190815260200160002060009054906101000a900460ff169050919050565b3373ffffffffffffffffffffffffffffffffffffffff16600160009054906101000a900473ffffffffffffffffffffffffffffffffffffffff1673ffffffffffffffffffffffffffffffffffffffff161461033a576040517f08c379a000000000000000000000000000000000000000000000000000000000815260040161033190611029565b60405180910390fd5b6004600581111561034e5761034d610e1f565b5b600360009054906101000a900460ff1660058111156103705761036f610e1f565b5b146103b0576040517f08c379a00000000000000000000000000000000000000000000000000000000081526004016103a7906110e1565b60405180910390fd5b6005600360006101000a81548160ff021916908360058111156103d6576103d5610e1f565b5b02179055503373ffffffffffffffffffffffffffffffffffffffff167f8503adf53e3183656c667cce31c520993aa631879f174d0a031935f9537b022f60405160405180910390a2565b3373ffffffffffffffffffffffffffffffffffffffff16600160009054906101000a900473ffffffffffffffffffffffffffffffffffffffff1673ffffffffffffffffffffffffffffffffffffffff16146104b0576040517f08c379a00000000000000000000000000000000000000000000000000000000081526004016104a790611029565b60405180910390fd5b826006819055508160098190555080600a819055507ff086d48958b78c01c7cc044ca24c2cc7606510829a18e9865c8bd9a780e60eea33600654600a546009546040516105009493929190611110565b60405180910390a1505050565b600260003373ffffffffffffffffffffffffffffffffffffffff1673ffffffffffffffffffffffffffffffffffffffff16815260200190815260200160002060009054906101000a900460ff16610599576040517f08c379a000000000000000000000000000000000000000000000000000000000815260040161059090611029565b60405180910390fd5b600360058111156105ad576105ac610e1f565b5b600360009054906101000a900460ff1660058111156105cf576105ce610e1f565b5b1461060f576040517f08c379a0000000000000000000000000000000000000000000000000000000008152600401610606906111c7565b60405180910390fd5b6004600360006101000a81548160ff0219169083600581111561063557610634610e1f565b5b02179055507f68419833cbb385bd8e9a766208f60e8dc0fe3253d009c3410d838ca3c1f1922a336040516106699190610d78565b60405180910390a1565b600260003373ffffffffffffffffffffffffffffffffffffffff1673ffffffffffffffffffffffffffffffffffffffff16815260200190815260200160002060009054906101000a900460ff166106ff576040517f08c379a00000000000000000000000000000000000000000000000000000000081526004016106f690611029565b60405180910390fd5b6001600581111561071357610712610e1f565b5b600360009054906101000a900460ff16600581111561073557610734610e1f565b5b14610775576040517f08c379a000000000000000000000000000000000000000000000000000000000815260040161076c90611259565b60405180910390fd5b60038060006101000a81548160ff0219169083600581111561079a57610799610e1f565b5b02179055507f7d0f0df8f1806d2f409f331004c27d888a97d17e3badc68d0afbbae5b7f84709336040516107ce9190610d78565b60405180910390a1565b600160009054906101000a900473ffffffffffffffffffffffffffffffffffffffff1681565b60008054906101000a900473ffffffffffffffffffffffffffffffffffffffff1681565b3373ffffffffffffffffffffffffffffffffffffffff1660008054906101000a900473ffffffffffffffffffffffffffffffffffffffff1673ffffffffffffffffffffffffffffffffffffffff16146108b0576040517f08c379a00000000000000000000000000000000000000000000000000000000081526004016108a790611029565b60405180910390fd5b6001600260008373ffffffffffffffffffffffffffffffffffffffff1673ffffffffffffffffffffffffffffffffffffffff16815260200190815260200160002060006101000a81548160ff02191690831515021790555050565b3373ffffffffffffffffffffffffffffffffffffffff1660008054906101000a900473ffffffffffffffffffffffffffffffffffffffff1673ffffffffffffffffffffffffffffffffffffffff1614610999576040517f08c379a000000000000000000000000000000000000000000000000000000000815260040161099090611029565b60405180910390fd5b836005819055508160088190555080600781905550600060058111156109c2576109c1610e1f565b5b600360009054906101000a900460ff1660058111156109e4576109e3610e1f565b5b14610a24576040517f08c379a0000000000000000000000000000000000000000000000000000000008152600401610a1b906112c5565b60405180910390fd5b6001600360006101000a81548160ff02191690836005811115610a4a57610a49610e1f565b5b021790555060006003811115610a6357610a62610e1f565b5b836003811115610a7657610a75610e1f565b5b03610ab7577f6a9ba01e28ab1ad09d77ce2cc0d70817c64432220b2f87af3d4fab1122325bad33600554604051610aae9291906112e5565b60405180910390a15b60016003811115610acb57610aca610e1f565b5b836003811115610ade57610add610e1f565b5b03610b1f577fee7f25a220558058a428e88b164af8abbf0d76ee59a054cbab9f0946f25dd84933600554604051610b169291906112e5565b60405180910390a15b60026003811115610b3357610b32610e1f565b5b836003811115610b4657610b45610e1f565b5b03610b87577f790c4e68a5e2b95d14fa79cc14a0971e38b2855eccd03345af5db6669e0183be33600554604051610b7e9291906112e5565b60405180910390a15b600380811115610b9a57610b99610e1f565b5b836003811115610bad57610bac610e1f565b5b03610bee577fa85ca2689ef4a626043507642e2c9c314e4d31746b2e8588776f804c183b054b33600554604051610be59291906112e5565b60405180910390a15b50505050565b600360009054906101000a900460ff1681565b600b60009054906101000a900460ff1681565b600080fd5b600073ffffffffffffffffffffffffffffffffffffffff82169050919050565b6000610c4a82610c1f565b9050919050565b610c5a81610c3f565b8114610c6557600080fd5b50565b600081359050610c7781610c51565b92915050565b600060208284031215610c9357610c92610c1a565b5b6000610ca184828501610c68565b91505092915050565b60008115159050919050565b610cbf81610caa565b82525050565b6000602082019050610cda6000830184610cb6565b92915050565b6000819050919050565b610cf381610ce0565b8114610cfe57600080fd5b50565b600081359050610d1081610cea565b92915050565b600080600060608486031215610d2f57610d2e610c1a565b5b6000610d3d86828701610d01565b9350506020610d4e86828701610d01565b9250506040610d5f86828701610d01565b9150509250925092565b610d7281610c3f565b82525050565b6000602082019050610d8d6000830184610d69565b92915050565b60048110610da057600080fd5b50565b600081359050610db281610d93565b92915050565b60008060008060808587031215610dd257610dd1610c1a565b5b6000610de087828801610d01565b9450506020610df187828801610da3565b9350506040610e0287828801610d01565b9250506060610e1387828801610d01565b91505092959194509250565b7f4e487b7100000000000000000000000000000000000000000000000000000000600052602160045260246000fd5b60068110610e5f57610e5e610e1f565b5b50565b6000819050610e7082610e4e565b919050565b6000610e8082610e62565b9050919050565b610e9081610e75565b82525050565b6000602082019050610eab6000830184610e87565b92915050565b60048110610ec257610ec1610e1f565b5b50565b6000819050610ed382610eb1565b919050565b6000610ee382610ec5565b9050919050565b610ef381610ed8565b82525050565b6000602082019050610f0e6000830184610eea565b92915050565b600082825260208201905092915050565b7f7573657220646f6573206e6f7420657869737420696e20746865206d6170706960008201527f6e672e0000000000000000000000000000000000000000000000000000000000602082015250565b6000610f81602383610f14565b9150610f8c82610f25565b604082019050919050565b60006020820190508181036000830152610fb081610f74565b9050919050565b7f5468652073656e646572206973206e6f7420656c696769626c6520746f20727560008201527f6e20746869732066756e6374696f6e0000000000000000000000000000000000602082015250565b6000611013602f83610f14565b915061101e82610fb7565b604082019050919050565b6000602082019050818103600083015261104281611006565b9050919050565b7f43616e277420726563656976652074686520646f6e61746564204f7267616e2060008201527f756e6974206265666f726520616e6e6f756e63696e672074686520656e64206f60208201527f66207468652064656c6976657279000000000000000000000000000000000000604082015250565b60006110cb604e83610f14565b91506110d682611049565b606082019050919050565b600060208201905081810360008301526110fa816110be565b9050919050565b61110a81610ce0565b82525050565b60006080820190506111256000830187610d69565b6111326020830186611101565b61113f6040830185611101565b61114c6060830184611101565b95945050505050565b7f43616e277420656e642064656c6976657279206265666f726520616e6e6f756e60008201527f63696e6720746865207374617274206f66206974000000000000000000000000602082015250565b60006111b1603483610f14565b91506111bc82611155565b604082019050919050565b600060208201905081810360008301526111e0816111a4565b9050919050565b7f43616e27742073746172742064656c6976657279206265666f72652072656d6f60008201527f76696e6720746865206f7267616e000000000000000000000000000000000000602082015250565b6000611243602e83610f14565b915061124e826111e7565b604082019050919050565b6000602082019050818103600083015261127281611236565b9050919050565b7f446f6e61746564204f7267616e20697320616c72656164792072656d6f766564600082015250565b60006112af602083610f14565b91506112ba82611279565b602082019050919050565b600060208201905081810360008301526112de816112a2565b9050919050565b60006040820190506112fa6000830185610d69565b6113076020830184611101565b939250505056fea2646970667358221220c96898557d482a0eed66d6f6df74bd4a07c8d40ddd2138feeaf2a5d08013628964736f6c63430008120033",
  "immutableReferences": {},
  "source": "// SPDX-License-Identifier: GPL-3.0\r\npragma solidity >=0.7.0 <0.9.0;\r\ncontract OrganTransplantation{\r\n        address public DonorSurgeon;\r\n        address public TransplantSurgeon; \r\n        mapping(address => bool)  transporter; \r\n        enum OrganStatus {NotReady, ReadyforDelivery, StartDelivery, onTrack, EndDelivery, OrganReceived}\r\n        OrganStatus public Organstate;\r\n        uint startTime;\r\n        uint Donor_ID;\r\n        uint PatientID;\r\n        uint Removing_time;\r\n        uint Removing_date;\r\n        uint TransplantationDate;\r\n        uint  TransplantationTime;\r\n        enum OrganType {Heart, Lung, Liver, Kidney}\r\n        OrganType public DonatedOrganType;\r\n        \r\n        //Events\r\n        event TransplantationProcessStarted (address indexed DonorSurgeon);\r\n        event DonatedHeartisRemoved(address DonorSurgeon, uint Donor_ID);\r\n        event DonatedLiverisRemoved(address DonorSurgeon, uint Donor_ID);\r\n        event DonatedkidneyisRemoved(address DonorSurgeon, uint Donor_ID);\r\n        event DonatedlungisRemoved(address DonorSurgeon, uint Donor_ID);\r\n        event DeliveryStart (address transporter); \r\n        event DeliveryEnd(address transporter); \r\n        event DonatedOrganisReceived (address indexed TransplantSurgeon);\r\n        event Transplantationend(address TransplantSurgeon, uint PatientID, uint TransplantationTime, uint TransplantationDate);\r\n        \r\n    constructor() {\r\n    TransplantSurgeon = msg.sender;\r\n    DonorSurgeon =0xff530A0E0E3c59C2b293479429aeC1a6a2eec486;\r\n    startTime = block.timestamp;\r\n    Organstate = OrganStatus.NotReady;\r\n    emit TransplantationProcessStarted(msg.sender);\r\n}\r\n\r\nmodifier onlyDonorSurgeon() {\r\n    require(DonorSurgeon == msg.sender, \"The sender is not eligible to run this function\");\r\n    _;\r\n}\r\nmodifier onlyTransplantSurgeon() {\r\n    require(TransplantSurgeon == msg.sender, \"The sender is not eligible to run this function\");\r\n    _;\r\n}\r\n\r\nmodifier onlytransporter() {\r\n    require(transporter[msg.sender], \"The sender is not eligible to run this function\");\r\n    _;\r\n}\r\n// Transporter Authorization Function\r\n\r\n       function assigningtransporter (address user) public onlyDonorSurgeon{\r\n        transporter [user]=true;\r\n    }\r\n       function getTransporterTest (address user) public view returns(bool) {\r\n        require(transporter[user], \"user does not exist in the mapping.\");\r\n        return transporter[user];\r\n    }\r\n       function RemovingDonatedOrgan(uint donorID, OrganType _DonatedOrganType, uint date, uint time ) public onlyDonorSurgeon{\r\n        Donor_ID= donorID;\r\n        Removing_date = date;\r\n        Removing_time = time; \r\n        require(Organstate == OrganStatus.NotReady, \"Donated Organ is already removed\");\r\n        Organstate = OrganStatus.ReadyforDelivery;\r\n         if (_DonatedOrganType == OrganType.Heart){\r\n        \r\n        emit DonatedHeartisRemoved(msg.sender, Donor_ID);\r\n    }\r\n       \r\n         if (_DonatedOrganType == OrganType.Lung){\r\n        \r\n        emit DonatedlungisRemoved(msg.sender,Donor_ID);\r\n    }\r\n            \r\n         if (_DonatedOrganType == OrganType.Liver){\r\n        \r\n        emit DonatedLiverisRemoved(msg.sender,Donor_ID);\r\n    }\r\n         \r\n         if (_DonatedOrganType == OrganType.Kidney){\r\n        \r\n        emit DonatedkidneyisRemoved(msg.sender,Donor_ID);\r\n    }\r\n    \r\n    }\r\n       function StartDelivery() public onlytransporter{\r\n        require(Organstate == OrganStatus.ReadyforDelivery, \"Can't start delivery before removing the organ\");\r\n         Organstate = OrganStatus.onTrack;\r\n        emit DeliveryStart(msg.sender);\r\n    }\r\n    \r\n    function EndDelivery() public onlytransporter{\r\n        require(Organstate == OrganStatus.onTrack, \"Can't end delivery before announcing the start of it\");\r\n        Organstate = OrganStatus.EndDelivery;\r\n        emit DeliveryEnd(msg.sender);\r\n        \r\n    }\r\n    function ReceiveDonatedOrgan() public onlyTransplantSurgeon{\r\n        require(Organstate == OrganStatus.EndDelivery, \"Can't receive the donated Organ unit before announcing the end of the delivery\");\r\n        Organstate = OrganStatus.OrganReceived;\r\n        emit DonatedOrganisReceived(msg.sender);\r\n    }\r\n        function Organ_Transplantation(uint ID, uint Date, uint Time) public onlyTransplantSurgeon{\r\n         PatientID = ID;\r\n         TransplantationDate = Date; \r\n         TransplantationTime = Time;\r\n        emit Transplantationend(msg.sender, PatientID, TransplantationTime, TransplantationDate);\r\n    }\r\n    \r\n    }",
  "sourcePath": "E:\\workspace\\medical\\web3\\contracts\\OrganTransplantation.sol",
  "compiler": {
    "name": "solc",
    "version": "0.8.18+commit.87f61d96.Emscripten.clang"
  },
  "schemaVersion": "3.4.11",
  "updatedAt": "2023-05-28T17:39:09.551Z",
  "networkType": "ethereum",
  "devdoc": {
    "kind": "dev",
    "methods": {},
    "version": 1
  },
  "userdoc": {
    "kind": "user",
    "methods": {},
    "version": 1
  }
}